{
  "_format": "hh-sol-artifact-1",
  "contractName": "Rifa",
  "sourceName": "contracts/RifaChain.sol",
  "abi": [
    {
      "inputs": [],
      "stateMutability": "nonpayable",
      "type": "constructor"
    },
    {
      "anonymous": false,
      "inputs": [
        {
          "indexed": false,
          "internalType": "address",
          "name": "comprador",
          "type": "address"
        },
        {
          "indexed": false,
          "internalType": "uint256",
          "name": "idBilhete",
          "type": "uint256"
        }
      ],
      "name": "BilheteComprado",
      "type": "event"
    },
    {
      "anonymous": false,
      "inputs": [
        {
          "indexed": false,
          "internalType": "uint256",
          "name": "idRifa",
          "type": "uint256"
        },
        {
          "indexed": false,
          "internalType": "uint256",
          "name": "valorPremio",
          "type": "uint256"
        }
      ],
      "name": "RifaCriada",
      "type": "event"
    },
    {
      "anonymous": false,
      "inputs": [
        {
          "indexed": false,
          "internalType": "uint256",
          "name": "idRifa",
          "type": "uint256"
        },
        {
          "indexed": false,
          "internalType": "address",
          "name": "ganhador",
          "type": "address"
        }
      ],
      "name": "RifaFinalizada",
      "type": "event"
    },
    {
      "anonymous": false,
      "inputs": [
        {
          "indexed": false,
          "internalType": "address",
          "name": "destinatario",
          "type": "address"
        },
        {
          "indexed": false,
          "internalType": "uint256",
          "name": "valor",
          "type": "uint256"
        }
      ],
      "name": "SaqueRealizado",
      "type": "event"
    },
    {
      "anonymous": false,
      "inputs": [
        {
          "indexed": false,
          "internalType": "address",
          "name": "administrador",
          "type": "address"
        },
        {
          "indexed": false,
          "internalType": "uint256",
          "name": "valorTaxaAdministrativa",
          "type": "uint256"
        }
      ],
      "name": "TaxaAdministrativaRecebida",
      "type": "event"
    },
    {
      "anonymous": false,
      "inputs": [
        {
          "indexed": false,
          "internalType": "uint256",
          "name": "idTransacao",
          "type": "uint256"
        }
      ],
      "name": "TransacaoCriada",
      "type": "event"
    },
    {
      "inputs": [],
      "name": "administrador",
      "outputs": [
        {
          "internalType": "address",
          "name": "",
          "type": "address"
        }
      ],
      "stateMutability": "view",
      "type": "function"
    },
    {
      "inputs": [
        {
          "internalType": "uint256",
          "name": "_novaTaxa",
          "type": "uint256"
        }
      ],
      "name": "ajustarTaxaAdministrativa",
      "outputs": [],
      "stateMutability": "nonpayable",
      "type": "function"
    },
    {
      "inputs": [
        {
          "internalType": "uint256",
          "name": "_idTransacao",
          "type": "uint256"
        },
        {
          "internalType": "string",
          "name": "_tx",
          "type": "string"
        }
      ],
      "name": "atualizarTransacao",
      "outputs": [],
      "stateMutability": "nonpayable",
      "type": "function"
    },
    {
      "inputs": [
        {
          "internalType": "uint256",
          "name": "",
          "type": "uint256"
        }
      ],
      "name": "bilhetes",
      "outputs": [
        {
          "internalType": "address",
          "name": "dono",
          "type": "address"
        },
        {
          "internalType": "bool",
          "name": "vendido",
          "type": "bool"
        }
      ],
      "stateMutability": "view",
      "type": "function"
    },
    {
      "inputs": [
        {
          "internalType": "uint256",
          "name": "_idRifa",
          "type": "uint256"
        }
      ],
      "name": "cancelarRifa",
      "outputs": [],
      "stateMutability": "nonpayable",
      "type": "function"
    },
    {
      "inputs": [
        {
          "internalType": "uint256",
          "name": "_idRifa",
          "type": "uint256"
        },
        {
          "internalType": "uint256",
          "name": "_qntBilhetes",
          "type": "uint256"
        }
      ],
      "name": "comprarBilhete",
      "outputs": [],
      "stateMutability": "payable",
      "type": "function"
    },
    {
      "inputs": [
        {
          "internalType": "string",
          "name": "_nomeRifa",
          "type": "string"
        },
        {
          "internalType": "string",
          "name": "_metadataURI",
          "type": "string"
        },
        {
          "internalType": "uint256",
          "name": "_valorPremio",
          "type": "uint256"
        },
        {
          "internalType": "uint256",
          "name": "_precoBilhete",
          "type": "uint256"
        },
        {
          "internalType": "uint256",
          "name": "_quantidadeBilhete",
          "type": "uint256"
        }
      ],
      "name": "criarRifa",
      "outputs": [
        {
          "internalType": "uint256",
          "name": "idRifa",
          "type": "uint256"
        }
      ],
      "stateMutability": "nonpayable",
      "type": "function"
    },
    {
      "inputs": [
        {
          "internalType": "uint256",
          "name": "_idRifa",
          "type": "uint256"
        }
      ],
      "name": "finalizarRifa",
      "outputs": [],
      "stateMutability": "nonpayable",
      "type": "function"
    },
    {
      "inputs": [
        {
          "internalType": "address",
          "name": "_address",
          "type": "address"
        }
      ],
      "name": "listarBilhetes",
      "outputs": [
        {
          "components": [
            {
              "internalType": "address",
              "name": "dono",
              "type": "address"
            },
            {
              "internalType": "bool",
              "name": "vendido",
              "type": "bool"
            }
          ],
          "internalType": "struct Rifa.Bilhete[]",
          "name": "",
          "type": "tuple[]"
        }
      ],
      "stateMutability": "view",
      "type": "function"
    },
    {
      "inputs": [
        {
          "internalType": "address",
          "name": "_address",
          "type": "address"
        }
      ],
      "name": "listarRifas",
      "outputs": [
        {
          "components": [
            {
              "internalType": "uint256",
              "name": "id",
              "type": "uint256"
            },
            {
              "internalType": "string",
              "name": "nomeRifa",
              "type": "string"
            },
            {
              "internalType": "string",
              "name": "metadataURI",
              "type": "string"
            },
            {
              "internalType": "uint256",
              "name": "valorPremio",
              "type": "uint256"
            },
            {
              "internalType": "uint256",
              "name": "precoBilhete",
              "type": "uint256"
            },
            {
              "internalType": "uint256",
              "name": "quantidadeBilhete",
              "type": "uint256"
            },
            {
              "internalType": "uint256",
              "name": "bilhetesDisponiveis",
              "type": "uint256"
            },
            {
              "internalType": "uint256",
              "name": "valorTotal",
              "type": "uint256"
            },
            {
              "internalType": "address",
              "name": "administrador",
              "type": "address"
            },
            {
              "internalType": "address",
              "name": "ganhador",
              "type": "address"
            },
            {
              "internalType": "bool",
              "name": "rifaFinalizada",
              "type": "bool"
            },
            {
              "internalType": "bool",
              "name": "saldoSacado",
              "type": "bool"
            }
          ],
          "internalType": "struct Rifa.RifaInfo[]",
          "name": "",
          "type": "tuple[]"
        }
      ],
      "stateMutability": "view",
      "type": "function"
    },
    {
      "inputs": [],
      "name": "listarTransacoes",
      "outputs": [
        {
          "components": [
            {
              "internalType": "uint256",
              "name": "id",
              "type": "uint256"
            },
            {
              "internalType": "address",
              "name": "from",
              "type": "address"
            },
            {
              "internalType": "uint256",
              "name": "value",
              "type": "uint256"
            },
            {
              "internalType": "uint256",
              "name": "quantidadeBilhetes",
              "type": "uint256"
            },
            {
              "internalType": "uint256",
              "name": "timestamp",
              "type": "uint256"
            },
            {
              "internalType": "string",
              "name": "tx",
              "type": "string"
            }
          ],
          "internalType": "struct Rifa.TransactionStruct[]",
          "name": "",
          "type": "tuple[]"
        }
      ],
      "stateMutability": "view",
      "type": "function"
    },
    {
      "inputs": [
        {
          "internalType": "uint256",
          "name": "",
          "type": "uint256"
        }
      ],
      "name": "rifas",
      "outputs": [
        {
          "internalType": "uint256",
          "name": "id",
          "type": "uint256"
        },
        {
          "internalType": "string",
          "name": "nomeRifa",
          "type": "string"
        },
        {
          "internalType": "string",
          "name": "metadataURI",
          "type": "string"
        },
        {
          "internalType": "uint256",
          "name": "valorPremio",
          "type": "uint256"
        },
        {
          "internalType": "uint256",
          "name": "precoBilhete",
          "type": "uint256"
        },
        {
          "internalType": "uint256",
          "name": "quantidadeBilhete",
          "type": "uint256"
        },
        {
          "internalType": "uint256",
          "name": "bilhetesDisponiveis",
          "type": "uint256"
        },
        {
          "internalType": "uint256",
          "name": "valorTotal",
          "type": "uint256"
        },
        {
          "internalType": "address",
          "name": "administrador",
          "type": "address"
        },
        {
          "internalType": "address",
          "name": "ganhador",
          "type": "address"
        },
        {
          "internalType": "bool",
          "name": "rifaFinalizada",
          "type": "bool"
        },
        {
          "internalType": "bool",
          "name": "saldoSacado",
          "type": "bool"
        }
      ],
      "stateMutability": "view",
      "type": "function"
    },
    {
      "inputs": [],
      "name": "sacarSaldoAdministrativo",
      "outputs": [],
      "stateMutability": "nonpayable",
      "type": "function"
    },
    {
      "inputs": [
        {
          "internalType": "uint256",
          "name": "_idRifa",
          "type": "uint256"
        }
      ],
      "name": "sacarValorArrecadado",
      "outputs": [],
      "stateMutability": "nonpayable",
      "type": "function"
    },
    {
      "inputs": [
        {
          "internalType": "address",
          "name": "",
          "type": "address"
        }
      ],
      "name": "saldoAdministrativo",
      "outputs": [
        {
          "internalType": "uint256",
          "name": "",
          "type": "uint256"
        }
      ],
      "stateMutability": "view",
      "type": "function"
    },
    {
      "inputs": [],
      "name": "taxaAdministrativa",
      "outputs": [
        {
          "internalType": "uint256",
          "name": "",
          "type": "uint256"
        }
      ],
      "stateMutability": "view",
      "type": "function"
    },
    {
      "inputs": [
        {
          "internalType": "uint256",
          "name": "",
          "type": "uint256"
        }
      ],
      "name": "transactions",
      "outputs": [
        {
          "internalType": "uint256",
          "name": "id",
          "type": "uint256"
        },
        {
          "internalType": "address",
          "name": "from",
          "type": "address"
        },
        {
          "internalType": "uint256",
          "name": "value",
          "type": "uint256"
        },
        {
          "internalType": "uint256",
          "name": "quantidadeBilhetes",
          "type": "uint256"
        },
        {
          "internalType": "uint256",
          "name": "timestamp",
          "type": "uint256"
        },
        {
          "internalType": "string",
          "name": "tx",
          "type": "string"
        }
      ],
      "stateMutability": "view",
      "type": "function"
    },
    {
      "inputs": [],
      "name": "ultimaRifaId",
      "outputs": [
        {
          "internalType": "uint256",
          "name": "",
          "type": "uint256"
        }
      ],
      "stateMutability": "view",
      "type": "function"
    },
    {
      "inputs": [],
      "name": "ultimaTransacaoId",
      "outputs": [
        {
          "internalType": "uint256",
          "name": "",
          "type": "uint256"
        }
      ],
      "stateMutability": "view",
      "type": "function"
    }
  ],
  "bytecode": "0x6080604052600a6001556000600360146101000a81548160ff02191690831515021790555034801561003057600080fd5b5033600360006101000a81548173ffffffffffffffffffffffffffffffffffffffff021916908373ffffffffffffffffffffffffffffffffffffffff160217905550613f64806100816000396000f3fe6080604052600436106101145760003560e01c806372d980df116100a0578063cd56997a11610064578063cd56997a146103a0578063d531efb5146103c9578063d89d672e14610406578063f3bbad8314610431578063fc41d55f1461046f57610114565b806372d980df1461029757806374f5e540146102c25780639ace38c2146102ed578063ba20fc661461032f578063c5197e771461035857610114565b80633ef64663116100e75780633ef64663146101c4578063431da33f146101ed578063560d6bbe1461022a5780635a754340146102415780637062b97d1461026c57610114565b80630c4886df1461011957806319630e1b14610135578063204506071461015e5780633a3d0d8914610187575b600080fd5b610133600480360381019061012e91906125fd565b6104ac565b005b34801561014157600080fd5b5061015c6004803603810190610157919061263d565b6108a1565b005b34801561016a57600080fd5b50610185600480360381019061018091906127b0565b610b52565b005b34801561019357600080fd5b506101ae60048036038101906101a9919061286a565b610bd4565b6040516101bb9190612b1c565b60405180910390f35b3480156101d057600080fd5b506101eb60048036038101906101e6919061263d565b610ff2565b005b3480156101f957600080fd5b50610214600480360381019061020f9190612b3e565b6110dd565b6040516102219190612c00565b60405180910390f35b34801561023657600080fd5b5061023f6113e6565b005b34801561024d57600080fd5b5061025661160d565b6040516102639190612c00565b60405180910390f35b34801561027857600080fd5b50610281611613565b60405161028e9190612c2a565b60405180910390f35b3480156102a357600080fd5b506102ac611639565b6040516102b99190612c00565b60405180910390f35b3480156102ce57600080fd5b506102d761163f565b6040516102e49190612c00565b60405180910390f35b3480156102f957600080fd5b50610314600480360381019061030f919061263d565b611645565b60405161032696959493929190612c8f565b60405180910390f35b34801561033b57600080fd5b506103566004803603810190610351919061263d565b611739565b005b34801561036457600080fd5b5061037f600480360381019061037a919061263d565b6119d5565b6040516103979c9b9a99989796959493929190612d06565b60405180910390f35b3480156103ac57600080fd5b506103c760048036038101906103c2919061263d565b611b9f565b005b3480156103d557600080fd5b506103f060048036038101906103eb919061286a565b611fa7565b6040516103fd9190612c00565b60405180910390f35b34801561041257600080fd5b5061041b611fbf565b6040516104289190612f19565b60405180910390f35b34801561043d57600080fd5b506104586004803603810190610453919061263d565b61212e565b604051610466929190612f3b565b60405180910390f35b34801561047b57600080fd5b506104966004803603810190610491919061286a565b61217f565b6040516104a39190613042565b60405180910390f35b6000600460008481526020019081526020016000209050600081600001540361050a576040517f08c379a0000000000000000000000000000000000000000000000000000000008152600401610501906130b0565b60405180910390fd5b8060090160149054906101000a900460ff161561055c576040517f08c379a00000000000000000000000000000000000000000000000000000000081526004016105539061311c565b60405180910390fd5b81816006015410156105a3576040517f08c379a000000000000000000000000000000000000000000000000000000000815260040161059a906131ae565b60405180910390fd5b8181600401546105b391906131fd565b3410156105f5576040517f08c379a00000000000000000000000000000000000000000000000000000000081526004016105ec906132b1565b60405180910390fd5b60005b8281101561070957600060018360060154846005015461061891906132d1565b6106229190613305565b9050336005600083815260200190815260200160002060000160006101000a81548173ffffffffffffffffffffffffffffffffffffffff021916908373ffffffffffffffffffffffffffffffffffffffff16021790555060016005600083815260200190815260200160002060000160146101000a81548160ff0219169083151502179055508260060160008154809291906106bd90613339565b91905055507fc1b08244fd0980bab64af15ce86041df50137ac89779371abc2fad51ceb0914533826040516106f3929190613362565b60405180910390a15080806001019150506105f8565b5060008160060154036107205761071f83611b9f565b5b6000808154809291906107329061338b565b919050555060076040518060c0016040528060005481526020013373ffffffffffffffffffffffffffffffffffffffff1681526020013481526020018481526020014281526020016040518060400160405280600181526020017f300000000000000000000000000000000000000000000000000000000000000081525081525090806001815401808255809150506001900390600052602060002090600602016000909190919091506000820151816000015560208201518160010160006101000a81548173ffffffffffffffffffffffffffffffffffffffff021916908373ffffffffffffffffffffffffffffffffffffffff16021790555060408201518160020155606082015181600301556080820151816004015560a082015181600501908161086091906135df565b5050507f31131dbb3af21cb8ed8649f6b5da34c43e1dbb01b6bd07998d4dd22b041f477c6000546040516108949190612c00565b60405180910390a1505050565b600060046000838152602001908152602001600020905060008160000154036108ff576040517f08c379a00000000000000000000000000000000000000000000000000000000081526004016108f6906130b0565b60405180910390fd5b8060090160149054906101000a900460ff16610950576040517f08c379a0000000000000000000000000000000000000000000000000000000008152600401610947906136fd565b60405180910390fd5b8060080160009054906101000a900473ffffffffffffffffffffffffffffffffffffffff1673ffffffffffffffffffffffffffffffffffffffff163373ffffffffffffffffffffffffffffffffffffffff16146109e2576040517f08c379a00000000000000000000000000000000000000000000000000000000081526004016109d99061378f565b60405180910390fd5b600360149054906101000a900460ff1615610a32576040517f08c379a0000000000000000000000000000000000000000000000000000000008152600401610a2990613821565b60405180910390fd5b6001600360146101000a81548160ff0219169083151502179055506000816007015490506000606460015483610a6891906131fd565b610a729190613870565b9050600081846003015484610a8791906132d1565b610a9191906132d1565b90503373ffffffffffffffffffffffffffffffffffffffff166108fc829081150290604051600060405180830381858888f19350505050158015610ad9573d6000803e3d6000fd5b5060018460090160156101000a81548160ff0219169083151502179055507fff12809415c01c2cf89ed7c318b357cb402d1ce96537d1592e9966b4f425e4d43382604051610b28929190613362565b60405180910390a16000600360146101000a81548160ff0219169083151502179055505050505050565b60005b600780549050811015610bcf578260078281548110610b7757610b766138a1565b5b90600052602060002090600602016000015403610bc2578160078281548110610ba357610ba26138a1565b5b90600052602060002090600602016005019081610bc091906135df565b505b8080600101915050610b55565b505050565b6060600080600190505b6002548111610c72578373ffffffffffffffffffffffffffffffffffffffff166004600083815260200190815260200160002060080160009054906101000a900473ffffffffffffffffffffffffffffffffffffffff1673ffffffffffffffffffffffffffffffffffffffff1603610c5f578180610c5b9061338b565b9250505b8080610c6a9061338b565b915050610bde565b5060008167ffffffffffffffff811115610c8f57610c8e612685565b5b604051908082528060200260200182016040528015610cc857816020015b610cb56124f0565b815260200190600190039081610cad5790505b509050600080600190505b6002548111610fe6578573ffffffffffffffffffffffffffffffffffffffff166004600083815260200190815260200160002060080160009054906101000a900473ffffffffffffffffffffffffffffffffffffffff1673ffffffffffffffffffffffffffffffffffffffff1603610fd357600460008281526020019081526020016000206040518061018001604052908160008201548152602001600182018054610d7e90613402565b80601f0160208091040260200160405190810160405280929190818152602001828054610daa90613402565b8015610df75780601f10610dcc57610100808354040283529160200191610df7565b820191906000526020600020905b815481529060010190602001808311610dda57829003601f168201915b50505050508152602001600282018054610e1090613402565b80601f0160208091040260200160405190810160405280929190818152602001828054610e3c90613402565b8015610e895780601f10610e5e57610100808354040283529160200191610e89565b820191906000526020600020905b815481529060010190602001808311610e6c57829003601f168201915b5050505050815260200160038201548152602001600482015481526020016005820154815260200160068201548152602001600782015481526020016008820160009054906101000a900473ffffffffffffffffffffffffffffffffffffffff1673ffffffffffffffffffffffffffffffffffffffff1673ffffffffffffffffffffffffffffffffffffffff1681526020016009820160009054906101000a900473ffffffffffffffffffffffffffffffffffffffff1673ffffffffffffffffffffffffffffffffffffffff1673ffffffffffffffffffffffffffffffffffffffff1681526020016009820160149054906101000a900460ff161515151581526020016009820160159054906101000a900460ff161515151581525050838381518110610fb957610fb86138a1565b5b60200260200101819052508180610fcf9061338b565b9250505b8080610fde9061338b565b915050610cd3565b50819350505050919050565b600360009054906101000a900473ffffffffffffffffffffffffffffffffffffffff1673ffffffffffffffffffffffffffffffffffffffff163373ffffffffffffffffffffffffffffffffffffffff1614611082576040517f08c379a000000000000000000000000000000000000000000000000000000000815260040161107990613942565b60405180910390fd5b60008110158015611094575060648111155b6110d3576040517f08c379a00000000000000000000000000000000000000000000000000000000081526004016110ca906139d4565b60405180910390fd5b8060018190555050565b6000808411611121576040517f08c379a000000000000000000000000000000000000000000000000000000000815260040161111890613a66565b60405180910390fd5b60008311611164576040517f08c379a000000000000000000000000000000000000000000000000000000000815260040161115b90613af8565b60405180910390fd5b600082116111a7576040517f08c379a000000000000000000000000000000000000000000000000000000000815260040161119e90613b8a565b60405180910390fd5b600260008154809291906111ba9061338b565b91905055506002549050604051806101800160405280828152602001878152602001868152602001858152602001848152602001838152602001838152602001848461120691906131fd565b81526020013373ffffffffffffffffffffffffffffffffffffffff168152602001600073ffffffffffffffffffffffffffffffffffffffff168152602001600015158152602001600015158152506004600083815260200190815260200160002060008201518160000155602082015181600101908161128691906135df565b50604082015181600201908161129c91906135df565b50606082015181600301556080820151816004015560a0820151816005015560c0820151816006015560e082015181600701556101008201518160080160006101000a81548173ffffffffffffffffffffffffffffffffffffffff021916908373ffffffffffffffffffffffffffffffffffffffff1602179055506101208201518160090160006101000a81548173ffffffffffffffffffffffffffffffffffffffff021916908373ffffffffffffffffffffffffffffffffffffffff1602179055506101408201518160090160146101000a81548160ff0219169083151502179055506101608201518160090160156101000a81548160ff0219169083151502179055509050507f9f788631323233e97aa120b252b89837fbc7d796f463281e8c4ff2d94b745f0081856040516113d5929190613baa565b60405180910390a195945050505050565b600360009054906101000a900473ffffffffffffffffffffffffffffffffffffffff1673ffffffffffffffffffffffffffffffffffffffff163373ffffffffffffffffffffffffffffffffffffffff1614611476576040517f08c379a000000000000000000000000000000000000000000000000000000000815260040161146d90613942565b60405180910390fd5b6000600660003373ffffffffffffffffffffffffffffffffffffffff1673ffffffffffffffffffffffffffffffffffffffff168152602001908152602001600020549050600081116114fd576040517f08c379a00000000000000000000000000000000000000000000000000000000081526004016114f490613c45565b60405180910390fd5b61150633612419565b611545576040517f08c379a000000000000000000000000000000000000000000000000000000000815260040161153c90613cb1565b60405180910390fd5b6000600660003373ffffffffffffffffffffffffffffffffffffffff1673ffffffffffffffffffffffffffffffffffffffff168152602001908152602001600020819055503373ffffffffffffffffffffffffffffffffffffffff166108fc829081150290604051600060405180830381858888f193505050501580156115d0573d6000803e3d6000fd5b507fff12809415c01c2cf89ed7c318b357cb402d1ce96537d1592e9966b4f425e4d43382604051611602929190613362565b60405180910390a150565b60005481565b600360009054906101000a900473ffffffffffffffffffffffffffffffffffffffff1681565b60015481565b60025481565b6007818154811061165557600080fd5b90600052602060002090600602016000915090508060000154908060010160009054906101000a900473ffffffffffffffffffffffffffffffffffffffff16908060020154908060030154908060040154908060050180546116b690613402565b80601f01602080910402602001604051908101604052809291908181526020018280546116e290613402565b801561172f5780601f106117045761010080835404028352916020019161172f565b820191906000526020600020905b81548152906001019060200180831161171257829003601f168201915b5050505050905086565b60006004600083815260200190815260200160002090506000816000015403611797576040517f08c379a000000000000000000000000000000000000000000000000000000000815260040161178e906130b0565b60405180910390fd5b8060080160009054906101000a900473ffffffffffffffffffffffffffffffffffffffff1673ffffffffffffffffffffffffffffffffffffffff163373ffffffffffffffffffffffffffffffffffffffff1614806118425750600360009054906101000a900473ffffffffffffffffffffffffffffffffffffffff1673ffffffffffffffffffffffffffffffffffffffff163373ffffffffffffffffffffffffffffffffffffffff16145b611881576040517f08c379a000000000000000000000000000000000000000000000000000000000815260040161187890613d43565b60405180910390fd5b8060090160149054906101000a900460ff16156118d3576040517f08c379a00000000000000000000000000000000000000000000000000000000081526004016118ca90613dd5565b60405180910390fd5b80600601548160050154146119b4576000600190505b816005015481116119b2576005600082815260200190815260200160002060000160149054906101000a900460ff161561199f576005600082815260200190815260200160002060000160009054906101000a900473ffffffffffffffffffffffffffffffffffffffff1673ffffffffffffffffffffffffffffffffffffffff166108fc83600401549081150290604051600060405180830381858888f1935050505015801561199d573d6000803e3d6000fd5b505b80806119aa9061338b565b9150506118e9565b505b60018160090160146101000a81548160ff0219169083151502179055505050565b60046020528060005260406000206000915090508060000154908060010180546119fe90613402565b80601f0160208091040260200160405190810160405280929190818152602001828054611a2a90613402565b8015611a775780601f10611a4c57610100808354040283529160200191611a77565b820191906000526020600020905b815481529060010190602001808311611a5a57829003601f168201915b505050505090806002018054611a8c90613402565b80601f0160208091040260200160405190810160405280929190818152602001828054611ab890613402565b8015611b055780601f10611ada57610100808354040283529160200191611b05565b820191906000526020600020905b815481529060010190602001808311611ae857829003601f168201915b5050505050908060030154908060040154908060050154908060060154908060070154908060080160009054906101000a900473ffffffffffffffffffffffffffffffffffffffff16908060090160009054906101000a900473ffffffffffffffffffffffffffffffffffffffff16908060090160149054906101000a900460ff16908060090160159054906101000a900460ff1690508c565b60006004600083815260200190815260200160002090506000816000015403611bfd576040517f08c379a0000000000000000000000000000000000000000000000000000000008152600401611bf4906130b0565b60405180910390fd5b8060090160149054906101000a900460ff1615611c4f576040517f08c379a0000000000000000000000000000000000000000000000000000000008152600401611c469061311c565b60405180910390fd5b6000816006015414611c96576040517f08c379a0000000000000000000000000000000000000000000000000000000008152600401611c8d90613e67565b60405180910390fd5b6000600182600501544244604051602001611cb2929190613ea8565b6040516020818303038152906040528051906020012060001c611cd59190613ed4565b611cdf9190613305565b90506005600082815260200190815260200160002060000160009054906101000a900473ffffffffffffffffffffffffffffffffffffffff168260090160006101000a81548173ffffffffffffffffffffffffffffffffffffffff021916908373ffffffffffffffffffffffffffffffffffffffff16021790555060018260090160146101000a81548160ff0219169083151502179055508160090160009054906101000a900473ffffffffffffffffffffffffffffffffffffffff1673ffffffffffffffffffffffffffffffffffffffff166108fc83600301549081150290604051600060405180830381858888f19350505050158015611de5573d6000803e3d6000fd5b50600060646001548460070154611dfc91906131fd565b611e069190613870565b90508060066000600360009054906101000a900473ffffffffffffffffffffffffffffffffffffffff1673ffffffffffffffffffffffffffffffffffffffff1673ffffffffffffffffffffffffffffffffffffffff1681526020019081526020016000206000828254611e799190613305565b92505081905550600360009054906101000a900473ffffffffffffffffffffffffffffffffffffffff1673ffffffffffffffffffffffffffffffffffffffff166108fc829081150290604051600060405180830381858888f19350505050158015611ee8573d6000803e3d6000fd5b507f6823229c48e2515e0419d97541510a5c6d9e94ce2b8741c001b9acb1fc6e1bc4848460090160009054906101000a900473ffffffffffffffffffffffffffffffffffffffff16604051611f3e929190613f05565b60405180910390a17f25d5cd9948bbe5aa16f7c9ceb592835ff8c5f142cdf6f2aae3e86da6e4f34668600360009054906101000a900473ffffffffffffffffffffffffffffffffffffffff1682604051611f99929190613362565b60405180910390a150505050565b60066020528060005260406000206000915090505481565b60606007805480602002602001604051908101604052809291908181526020016000905b8282101561212557838290600052602060002090600602016040518060c0016040529081600082015481526020016001820160009054906101000a900473ffffffffffffffffffffffffffffffffffffffff1673ffffffffffffffffffffffffffffffffffffffff1673ffffffffffffffffffffffffffffffffffffffff16815260200160028201548152602001600382015481526020016004820154815260200160058201805461209490613402565b80601f01602080910402602001604051908101604052809291908181526020018280546120c090613402565b801561210d5780601f106120e25761010080835404028352916020019161210d565b820191906000526020600020905b8154815290600101906020018083116120f057829003601f168201915b50505050508152505081526020019060010190611fe3565b50505050905090565b60056020528060005260406000206000915090508060000160009054906101000a900473ffffffffffffffffffffffffffffffffffffffff16908060000160149054906101000a900460ff16905082565b6060600080600190505b6002548111612233578373ffffffffffffffffffffffffffffffffffffffff166004600083815260200190815260200160002060080160009054906101000a900473ffffffffffffffffffffffffffffffffffffffff1673ffffffffffffffffffffffffffffffffffffffff16036122205760046000828152602001908152602001600020600501548261221d9190613305565b91505b808061222b9061338b565b915050612189565b5060008167ffffffffffffffff8111156122505761224f612685565b5b60405190808252806020026020018201604052801561228957816020015b612276612581565b81526020019060019003908161226e5790505b509050600080600190505b600254811161240d578573ffffffffffffffffffffffffffffffffffffffff166004600083815260200190815260200160002060080160009054906101000a900473ffffffffffffffffffffffffffffffffffffffff1673ffffffffffffffffffffffffffffffffffffffff16036123fa576000600190505b600460008381526020019081526020016000206005015481116123f857600560008281526020019081526020016000206040518060400160405290816000820160009054906101000a900473ffffffffffffffffffffffffffffffffffffffff1673ffffffffffffffffffffffffffffffffffffffff1673ffffffffffffffffffffffffffffffffffffffff1681526020016000820160149054906101000a900460ff1615151515815250508484815181106123cc576123cb6138a1565b5b602002602001018190525082806123e29061338b565b93505080806123f09061338b565b91505061230d565b505b80806124059061338b565b915050612294565b50819350505050919050565b600080600090506000600190505b60025481116124a45760006004600083815260200190815260200160002090508060090160149054906101000a900460ff16156124905760006064600154836007015461247491906131fd565b61247e9190613870565b9050808461248c9190613305565b9350505b50808061249c9061338b565b915050612427565b5080600660008573ffffffffffffffffffffffffffffffffffffffff1673ffffffffffffffffffffffffffffffffffffffff168152602001908152602001600020541115915050919050565b6040518061018001604052806000815260200160608152602001606081526020016000815260200160008152602001600081526020016000815260200160008152602001600073ffffffffffffffffffffffffffffffffffffffff168152602001600073ffffffffffffffffffffffffffffffffffffffff1681526020016000151581526020016000151581525090565b6040518060400160405280600073ffffffffffffffffffffffffffffffffffffffff1681526020016000151581525090565b6000604051905090565b600080fd5b600080fd5b6000819050919050565b6125da816125c7565b81146125e557600080fd5b50565b6000813590506125f7816125d1565b92915050565b60008060408385031215612614576126136125bd565b5b6000612622858286016125e8565b9250506020612633858286016125e8565b9150509250929050565b600060208284031215612653576126526125bd565b5b6000612661848285016125e8565b91505092915050565b600080fd5b600080fd5b6000601f19601f8301169050919050565b7f4e487b7100000000000000000000000000000000000000000000000000000000600052604160045260246000fd5b6126bd82612674565b810181811067ffffffffffffffff821117156126dc576126db612685565b5b80604052505050565b60006126ef6125b3565b90506126fb82826126b4565b919050565b600067ffffffffffffffff82111561271b5761271a612685565b5b61272482612674565b9050602081019050919050565b82818337600083830152505050565b600061275361274e84612700565b6126e5565b90508281526020810184848401111561276f5761276e61266f565b5b61277a848285612731565b509392505050565b600082601f8301126127975761279661266a565b5b81356127a7848260208601612740565b91505092915050565b600080604083850312156127c7576127c66125bd565b5b60006127d5858286016125e8565b925050602083013567ffffffffffffffff8111156127f6576127f56125c2565b5b61280285828601612782565b9150509250929050565b600073ffffffffffffffffffffffffffffffffffffffff82169050919050565b60006128378261280c565b9050919050565b6128478161282c565b811461285257600080fd5b50565b6000813590506128648161283e565b92915050565b6000602082840312156128805761287f6125bd565b5b600061288e84828501612855565b91505092915050565b600081519050919050565b600082825260208201905092915050565b6000819050602082019050919050565b6128cc816125c7565b82525050565b600081519050919050565b600082825260208201905092915050565b60005b8381101561290c5780820151818401526020810190506128f1565b60008484015250505050565b6000612923826128d2565b61292d81856128dd565b935061293d8185602086016128ee565b61294681612674565b840191505092915050565b61295a8161282c565b82525050565b60008115159050919050565b61297581612960565b82525050565b60006101808301600083015161299460008601826128c3565b50602083015184820360208601526129ac8282612918565b915050604083015184820360408601526129c68282612918565b91505060608301516129db60608601826128c3565b5060808301516129ee60808601826128c3565b5060a0830151612a0160a08601826128c3565b5060c0830151612a1460c08601826128c3565b5060e0830151612a2760e08601826128c3565b50610100830151612a3c610100860182612951565b50610120830151612a51610120860182612951565b50610140830151612a6661014086018261296c565b50610160830151612a7b61016086018261296c565b508091505092915050565b6000612a92838361297b565b905092915050565b6000602082019050919050565b6000612ab282612897565b612abc81856128a2565b935083602082028501612ace856128b3565b8060005b85811015612b0a5784840389528151612aeb8582612a86565b9450612af683612a9a565b925060208a01995050600181019050612ad2565b50829750879550505050505092915050565b60006020820190508181036000830152612b368184612aa7565b905092915050565b600080600080600060a08688031215612b5a57612b596125bd565b5b600086013567ffffffffffffffff811115612b7857612b776125c2565b5b612b8488828901612782565b955050602086013567ffffffffffffffff811115612ba557612ba46125c2565b5b612bb188828901612782565b9450506040612bc2888289016125e8565b9350506060612bd3888289016125e8565b9250506080612be4888289016125e8565b9150509295509295909350565b612bfa816125c7565b82525050565b6000602082019050612c156000830184612bf1565b92915050565b612c248161282c565b82525050565b6000602082019050612c3f6000830184612c1b565b92915050565b600082825260208201905092915050565b6000612c61826128d2565b612c6b8185612c45565b9350612c7b8185602086016128ee565b612c8481612674565b840191505092915050565b600060c082019050612ca46000830189612bf1565b612cb16020830188612c1b565b612cbe6040830187612bf1565b612ccb6060830186612bf1565b612cd86080830185612bf1565b81810360a0830152612cea8184612c56565b9050979650505050505050565b612d0081612960565b82525050565b600061018082019050612d1c600083018f612bf1565b8181036020830152612d2e818e612c56565b90508181036040830152612d42818d612c56565b9050612d51606083018c612bf1565b612d5e608083018b612bf1565b612d6b60a083018a612bf1565b612d7860c0830189612bf1565b612d8560e0830188612bf1565b612d93610100830187612c1b565b612da1610120830186612c1b565b612daf610140830185612cf7565b612dbd610160830184612cf7565b9d9c50505050505050505050505050565b600081519050919050565b600082825260208201905092915050565b6000819050602082019050919050565b600060c083016000830151612e1260008601826128c3565b506020830151612e256020860182612951565b506040830151612e3860408601826128c3565b506060830151612e4b60608601826128c3565b506080830151612e5e60808601826128c3565b5060a083015184820360a0860152612e768282612918565b9150508091505092915050565b6000612e8f8383612dfa565b905092915050565b6000602082019050919050565b6000612eaf82612dce565b612eb98185612dd9565b935083602082028501612ecb85612dea565b8060005b85811015612f075784840389528151612ee88582612e83565b9450612ef383612e97565b925060208a01995050600181019050612ecf565b50829750879550505050505092915050565b60006020820190508181036000830152612f338184612ea4565b905092915050565b6000604082019050612f506000830185612c1b565b612f5d6020830184612cf7565b9392505050565b600081519050919050565b600082825260208201905092915050565b6000819050602082019050919050565b604082016000820151612fa66000850182612951565b506020820151612fb9602085018261296c565b50505050565b6000612fcb8383612f90565b60408301905092915050565b6000602082019050919050565b6000612fef82612f64565b612ff98185612f6f565b935061300483612f80565b8060005b8381101561303557815161301c8882612fbf565b975061302783612fd7565b925050600181019050613008565b5085935050505092915050565b6000602082019050818103600083015261305c8184612fe4565b905092915050565b7f52696661206ec3a36f20656e636f6e7472616461000000000000000000000000600082015250565b600061309a601483612c45565b91506130a582613064565b602082019050919050565b600060208201905081810360008301526130c98161308d565b9050919050565b7f412072696661206ac3a120666f692066696e616c697a61646100000000000000600082015250565b6000613106601983612c45565b9150613111826130d0565b602082019050919050565b60006020820190508181036000830152613135816130f9565b9050919050565b7f4ec3a36f2068c3a12062696c686574657320737566696369656e74657320646960008201527f73706f6ec3ad7665697300000000000000000000000000000000000000000000602082015250565b6000613198602a83612c45565b91506131a38261313c565b604082019050919050565b600060208201905081810360008301526131c78161318b565b9050919050565b7f4e487b7100000000000000000000000000000000000000000000000000000000600052601160045260246000fd5b6000613208826125c7565b9150613213836125c7565b9250828202613221816125c7565b91508282048414831517613238576132376131ce565b5b5092915050565b7f56616c6f7220696e737566696369656e7465207061726120636f6d707261722060008201527f6f732062696c6865746573000000000000000000000000000000000000000000602082015250565b600061329b602b83612c45565b91506132a68261323f565b604082019050919050565b600060208201905081810360008301526132ca8161328e565b9050919050565b60006132dc826125c7565b91506132e7836125c7565b92508282039050818111156132ff576132fe6131ce565b5b92915050565b6000613310826125c7565b915061331b836125c7565b9250828201905080821115613333576133326131ce565b5b92915050565b6000613344826125c7565b915060008203613357576133566131ce565b5b600182039050919050565b60006040820190506133776000830185612c1b565b6133846020830184612bf1565b9392505050565b6000613396826125c7565b91507fffffffffffffffffffffffffffffffffffffffffffffffffffffffffffffffff82036133c8576133c76131ce565b5b600182019050919050565b7f4e487b7100000000000000000000000000000000000000000000000000000000600052602260045260246000fd5b6000600282049050600182168061341a57607f821691505b60208210810361342d5761342c6133d3565b5b50919050565b60008190508160005260206000209050919050565b60006020601f8301049050919050565b600082821b905092915050565b6000600883026134957fffffffffffffffffffffffffffffffffffffffffffffffffffffffffffffffff82613458565b61349f8683613458565b95508019841693508086168417925050509392505050565b6000819050919050565b60006134dc6134d76134d2846125c7565b6134b7565b6125c7565b9050919050565b6000819050919050565b6134f6836134c1565b61350a613502826134e3565b848454613465565b825550505050565b600090565b61351f613512565b61352a8184846134ed565b505050565b5b8181101561354e57613543600082613517565b600181019050613530565b5050565b601f8211156135935761356481613433565b61356d84613448565b8101602085101561357c578190505b61359061358885613448565b83018261352f565b50505b505050565b600082821c905092915050565b60006135b660001984600802613598565b1980831691505092915050565b60006135cf83836135a5565b9150826002028217905092915050565b6135e8826128d2565b67ffffffffffffffff81111561360157613600612685565b5b61360b8254613402565b613616828285613552565b600060209050601f8311600181146136495760008415613637578287015190505b61364185826135c3565b8655506136a9565b601f19841661365786613433565b60005b8281101561367f5784890151825560018201915060208501945060208101905061365a565b8683101561369c5784890151613698601f8916826135a5565b8355505b6001600288020188555050505b505050505050565b7f4120726966612061696e6461206ec3a36f20666f692066696e616c697a616461600082015250565b60006136e7602083612c45565b91506136f2826136b1565b602082019050919050565b60006020820190508181036000830152613716816136da565b9050919050565b7f536f6d656e7465206f2061646d696e6973747261646f7220646120726966612060008201527f706f6465207361636172206f2076616c6f72206172726563616461646f000000602082015250565b6000613779603d83612c45565b91506137848261371d565b604082019050919050565b600060208201905081810360008301526137a88161376c565b9050919050565b7f46756ec3a7c3a36f20736163617256616c6f724172726563616461646f20656d60008201527f206578656375c3a7c3a36f000000000000000000000000000000000000000000602082015250565b600061380b602b83612c45565b9150613816826137af565b604082019050919050565b6000602082019050818103600083015261383a816137fe565b9050919050565b7f4e487b7100000000000000000000000000000000000000000000000000000000600052601260045260246000fd5b600061387b826125c7565b9150613886836125c7565b92508261389657613895613841565b5b828204905092915050565b7f4e487b7100000000000000000000000000000000000000000000000000000000600052603260045260246000fd5b7f536f6d656e7465206f2061646d696e6973747261646f7220646f20636f6e747260008201527f61746f20706f646520657865637574617220657373612066756ec3a7c3a36f00602082015250565b600061392c603f83612c45565b9150613937826138d0565b604082019050919050565b6000602082019050818103600083015261395b8161391f565b9050919050565b7f4120746178612061646d696e697374726174697661206465766520736572207560008201527f6d2076616c6f7220656e74726520302065203130300000000000000000000000602082015250565b60006139be603583612c45565b91506139c982613962565b604082019050919050565b600060208201905081810360008301526139ed816139b1565b9050919050565b7f4f2076616c6f7220746f74616c2064612072696661206465766520736572206d60008201527f61696f7220717565207a65726f00000000000000000000000000000000000000602082015250565b6000613a50602d83612c45565b9150613a5b826139f4565b604082019050919050565b60006020820190508181036000830152613a7f81613a43565b9050919050565b7f4f20707265c3a76f20646f2062696c68657465206465766520736572206d616960008201527f6f7220717565207a65726f000000000000000000000000000000000000000000602082015250565b6000613ae2602b83612c45565b9150613aed82613a86565b604082019050919050565b60006020820190508181036000830152613b1181613ad5565b9050919050565b7f41207175616e7469646164652064652062696c6865746573206465766520736560008201527f72206d61696f7220717565207a65726f00000000000000000000000000000000602082015250565b6000613b74603083612c45565b9150613b7f82613b18565b604082019050919050565b60006020820190508181036000830152613ba381613b67565b9050919050565b6000604082019050613bbf6000830185612bf1565b613bcc6020830184612bf1565b9392505050565b7f53616c646f2061646d696e69737472617469766f20696e737566696369656e7460008201527f6500000000000000000000000000000000000000000000000000000000000000602082015250565b6000613c2f602183612c45565b9150613c3a82613bd3565b604082019050919050565b60006020820190508181036000830152613c5e81613c22565b9050919050565b7f53616c646f2061646d696e69737472617469766f20696e76c3a16c69646f0000600082015250565b6000613c9b601e83612c45565b9150613ca682613c65565b602082019050919050565b60006020820190508181036000830152613cca81613c8e565b9050919050565b7f536f6d656e7465206f2061646d696e6973747261646f7220646120726966612060008201527f706f64652063616e63656c617220612072696661000000000000000000000000602082015250565b6000613d2d603483612c45565b9150613d3882613cd1565b604082019050919050565b60006020820190508181036000830152613d5c81613d20565b9050919050565b7f4ec3a36f20c3a920706f7373c3ad76656c2063616e63656c617220756d61207260008201527f6966612066696e616c697a616461000000000000000000000000000000000000602082015250565b6000613dbf602e83612c45565b9150613dca82613d63565b604082019050919050565b60006020820190508181036000830152613dee81613db2565b9050919050565b7f4120726966612061696e64612074656d2062696c686574657320646973706f6e60008201527fc3ad766569730000000000000000000000000000000000000000000000000000602082015250565b6000613e51602683612c45565b9150613e5c82613df5565b604082019050919050565b60006020820190508181036000830152613e8081613e44565b9050919050565b6000819050919050565b613ea2613e9d826125c7565b613e87565b82525050565b6000613eb48285613e91565b602082019150613ec48284613e91565b6020820191508190509392505050565b6000613edf826125c7565b9150613eea836125c7565b925082613efa57613ef9613841565b5b828206905092915050565b6000604082019050613f1a6000830185612bf1565b613f276020830184612c1b565b939250505056fea2646970667358221220d30a17aaf620dc5b7129767b5956994f812091e9c234364562994c8b89f5867964736f6c63430008180033",
  "linkReferences": {},
  "deployedLinkReferences": {}
}