{
  "_format": "hh-sol-artifact-1",
  "contractName": "Rifa",
  "sourceName": "contracts/RifaChain.sol",
  "abi": [
    {
      "inputs": [],
      "stateMutability": "nonpayable",
      "type": "constructor"
    },
    {
      "anonymous": false,
      "inputs": [
        {
          "indexed": false,
          "internalType": "address",
          "name": "comprador",
          "type": "address"
        },
        {
          "indexed": false,
          "internalType": "uint256",
          "name": "idBilhete",
          "type": "uint256"
        }
      ],
      "name": "BilheteComprado",
      "type": "event"
    },
    {
      "anonymous": false,
      "inputs": [
        {
          "indexed": false,
          "internalType": "uint256",
          "name": "idRifa",
          "type": "uint256"
        },
        {
          "indexed": false,
          "internalType": "uint256",
          "name": "valorPremio",
          "type": "uint256"
        }
      ],
      "name": "RifaCriada",
      "type": "event"
    },
    {
      "anonymous": false,
      "inputs": [
        {
          "indexed": false,
          "internalType": "uint256",
          "name": "idRifa",
          "type": "uint256"
        },
        {
          "indexed": false,
          "internalType": "address",
          "name": "ganhador",
          "type": "address"
        }
      ],
      "name": "RifaFinalizada",
      "type": "event"
    },
    {
      "anonymous": false,
      "inputs": [
        {
          "indexed": false,
          "internalType": "address",
          "name": "destinatario",
          "type": "address"
        },
        {
          "indexed": false,
          "internalType": "uint256",
          "name": "valor",
          "type": "uint256"
        }
      ],
      "name": "SaqueRealizado",
      "type": "event"
    },
    {
      "anonymous": false,
      "inputs": [
        {
          "indexed": false,
          "internalType": "address",
          "name": "administrador",
          "type": "address"
        },
        {
          "indexed": false,
          "internalType": "uint256",
          "name": "valorTaxaAdministrativa",
          "type": "uint256"
        }
      ],
      "name": "TaxaAdministrativaRecebida",
      "type": "event"
    },
    {
      "anonymous": false,
      "inputs": [
        {
          "indexed": false,
          "internalType": "uint256",
          "name": "idTransacao",
          "type": "uint256"
        }
      ],
      "name": "TransacaoCriada",
      "type": "event"
    },
    {
      "inputs": [],
      "name": "administrador",
      "outputs": [
        {
          "internalType": "address",
          "name": "",
          "type": "address"
        }
      ],
      "stateMutability": "view",
      "type": "function"
    },
    {
      "inputs": [
        {
          "internalType": "uint256",
          "name": "_novaTaxa",
          "type": "uint256"
        }
      ],
      "name": "ajustarTaxaAdministrativa",
      "outputs": [],
      "stateMutability": "nonpayable",
      "type": "function"
    },
    {
      "inputs": [
        {
          "internalType": "uint256",
          "name": "_idTransacao",
          "type": "uint256"
        },
        {
          "internalType": "string",
          "name": "_tx",
          "type": "string"
        }
      ],
      "name": "atualizarTransacao",
      "outputs": [],
      "stateMutability": "nonpayable",
      "type": "function"
    },
    {
      "inputs": [
        {
          "internalType": "uint256",
          "name": "",
          "type": "uint256"
        }
      ],
      "name": "bilhetes",
      "outputs": [
        {
          "internalType": "address",
          "name": "dono",
          "type": "address"
        },
        {
          "internalType": "bool",
          "name": "vendido",
          "type": "bool"
        }
      ],
      "stateMutability": "view",
      "type": "function"
    },
    {
      "inputs": [
        {
          "internalType": "uint256",
          "name": "_idRifa",
          "type": "uint256"
        }
      ],
      "name": "cancelarRifa",
      "outputs": [],
      "stateMutability": "nonpayable",
      "type": "function"
    },
    {
      "inputs": [
        {
          "internalType": "uint256",
          "name": "_idRifa",
          "type": "uint256"
        },
        {
          "internalType": "uint256",
          "name": "_qntBilhetes",
          "type": "uint256"
        }
      ],
      "name": "comprarBilhete",
      "outputs": [],
      "stateMutability": "payable",
      "type": "function"
    },
    {
      "inputs": [
        {
          "internalType": "string",
          "name": "_nomeRifa",
          "type": "string"
        },
        {
          "internalType": "string",
          "name": "_metadataURI",
          "type": "string"
        },
        {
          "internalType": "uint256",
          "name": "_valorPremio",
          "type": "uint256"
        },
        {
          "internalType": "uint256",
          "name": "_precoBilhete",
          "type": "uint256"
        },
        {
          "internalType": "uint256",
          "name": "_quantidadeBilhete",
          "type": "uint256"
        }
      ],
      "name": "criarRifa",
      "outputs": [
        {
          "internalType": "uint256",
          "name": "idRifa",
          "type": "uint256"
        }
      ],
      "stateMutability": "nonpayable",
      "type": "function"
    },
    {
      "inputs": [
        {
          "internalType": "uint256",
          "name": "_idRifa",
          "type": "uint256"
        }
      ],
      "name": "finalizarRifa",
      "outputs": [],
      "stateMutability": "nonpayable",
      "type": "function"
    },
    {
      "inputs": [
        {
          "internalType": "address",
          "name": "_address",
          "type": "address"
        }
      ],
      "name": "listarRifas",
      "outputs": [
        {
          "components": [
            {
              "internalType": "uint256",
              "name": "id",
              "type": "uint256"
            },
            {
              "internalType": "string",
              "name": "nomeRifa",
              "type": "string"
            },
            {
              "internalType": "string",
              "name": "metadataURI",
              "type": "string"
            },
            {
              "internalType": "uint256",
              "name": "valorPremio",
              "type": "uint256"
            },
            {
              "internalType": "uint256",
              "name": "precoBilhete",
              "type": "uint256"
            },
            {
              "internalType": "uint256",
              "name": "quantidadeBilhete",
              "type": "uint256"
            },
            {
              "internalType": "uint256",
              "name": "bilhetesDisponiveis",
              "type": "uint256"
            },
            {
              "internalType": "uint256",
              "name": "valorTotal",
              "type": "uint256"
            },
            {
              "internalType": "address",
              "name": "administrador",
              "type": "address"
            },
            {
              "internalType": "address",
              "name": "ganhador",
              "type": "address"
            },
            {
              "internalType": "bool",
              "name": "rifaFinalizada",
              "type": "bool"
            }
          ],
          "internalType": "struct Rifa.RifaInfo[]",
          "name": "",
          "type": "tuple[]"
        }
      ],
      "stateMutability": "view",
      "type": "function"
    },
    {
      "inputs": [],
      "name": "listarTransacoes",
      "outputs": [
        {
          "components": [
            {
              "internalType": "uint256",
              "name": "id",
              "type": "uint256"
            },
            {
              "internalType": "address",
              "name": "from",
              "type": "address"
            },
            {
              "internalType": "uint256",
              "name": "value",
              "type": "uint256"
            },
            {
              "internalType": "uint256",
              "name": "quantidadeBilhetes",
              "type": "uint256"
            },
            {
              "internalType": "uint256",
              "name": "timestamp",
              "type": "uint256"
            },
            {
              "internalType": "string",
              "name": "tx",
              "type": "string"
            }
          ],
          "internalType": "struct Rifa.TransactionStruct[]",
          "name": "",
          "type": "tuple[]"
        }
      ],
      "stateMutability": "view",
      "type": "function"
    },
    {
      "inputs": [
        {
          "internalType": "uint256",
          "name": "",
          "type": "uint256"
        }
      ],
      "name": "rifas",
      "outputs": [
        {
          "internalType": "uint256",
          "name": "id",
          "type": "uint256"
        },
        {
          "internalType": "string",
          "name": "nomeRifa",
          "type": "string"
        },
        {
          "internalType": "string",
          "name": "metadataURI",
          "type": "string"
        },
        {
          "internalType": "uint256",
          "name": "valorPremio",
          "type": "uint256"
        },
        {
          "internalType": "uint256",
          "name": "precoBilhete",
          "type": "uint256"
        },
        {
          "internalType": "uint256",
          "name": "quantidadeBilhete",
          "type": "uint256"
        },
        {
          "internalType": "uint256",
          "name": "bilhetesDisponiveis",
          "type": "uint256"
        },
        {
          "internalType": "uint256",
          "name": "valorTotal",
          "type": "uint256"
        },
        {
          "internalType": "address",
          "name": "administrador",
          "type": "address"
        },
        {
          "internalType": "address",
          "name": "ganhador",
          "type": "address"
        },
        {
          "internalType": "bool",
          "name": "rifaFinalizada",
          "type": "bool"
        }
      ],
      "stateMutability": "view",
      "type": "function"
    },
    {
      "inputs": [],
      "name": "sacarSaldoAdministrativo",
      "outputs": [],
      "stateMutability": "nonpayable",
      "type": "function"
    },
    {
      "inputs": [
        {
          "internalType": "uint256",
          "name": "_idRifa",
          "type": "uint256"
        }
      ],
      "name": "sacarValorArrecadado",
      "outputs": [],
      "stateMutability": "nonpayable",
      "type": "function"
    },
    {
      "inputs": [
        {
          "internalType": "address",
          "name": "",
          "type": "address"
        }
      ],
      "name": "saldoAdministrativo",
      "outputs": [
        {
          "internalType": "uint256",
          "name": "",
          "type": "uint256"
        }
      ],
      "stateMutability": "view",
      "type": "function"
    },
    {
      "inputs": [],
      "name": "taxaAdministrativa",
      "outputs": [
        {
          "internalType": "uint256",
          "name": "",
          "type": "uint256"
        }
      ],
      "stateMutability": "view",
      "type": "function"
    },
    {
      "inputs": [
        {
          "internalType": "uint256",
          "name": "",
          "type": "uint256"
        }
      ],
      "name": "transactions",
      "outputs": [
        {
          "internalType": "uint256",
          "name": "id",
          "type": "uint256"
        },
        {
          "internalType": "address",
          "name": "from",
          "type": "address"
        },
        {
          "internalType": "uint256",
          "name": "value",
          "type": "uint256"
        },
        {
          "internalType": "uint256",
          "name": "quantidadeBilhetes",
          "type": "uint256"
        },
        {
          "internalType": "uint256",
          "name": "timestamp",
          "type": "uint256"
        },
        {
          "internalType": "string",
          "name": "tx",
          "type": "string"
        }
      ],
      "stateMutability": "view",
      "type": "function"
    },
    {
      "inputs": [],
      "name": "ultimaRifaId",
      "outputs": [
        {
          "internalType": "uint256",
          "name": "",
          "type": "uint256"
        }
      ],
      "stateMutability": "view",
      "type": "function"
    },
    {
      "inputs": [],
      "name": "ultimaTransacaoId",
      "outputs": [
        {
          "internalType": "uint256",
          "name": "",
          "type": "uint256"
        }
      ],
      "stateMutability": "view",
      "type": "function"
    }
  ],
  "bytecode": "0x6080604052600a6001556000600360146101000a81548160ff02191690831515021790555034801561003057600080fd5b5033600360006101000a81548173ffffffffffffffffffffffffffffffffffffffff021916908373ffffffffffffffffffffffffffffffffffffffff160217905550613aad806100816000396000f3fe6080604052600436106101095760003560e01c806372d980df11610095578063c5197e7711610064578063c5197e771461034d578063cd56997a14610394578063d531efb5146103bd578063d89d672e146103fa578063f3bbad831461042557610109565b806372d980df1461028c57806374f5e540146102b75780639ace38c2146102e2578063ba20fc661461032457610109565b80633ef64663116100dc5780633ef64663146101b9578063431da33f146101e2578063560d6bbe1461021f5780635a754340146102365780637062b97d1461026157610109565b80630c4886df1461010e57806319630e1b1461012a57806320450607146101535780633a3d0d891461017c575b600080fd5b6101286004803603810190610123919061226a565b610463565b005b34801561013657600080fd5b50610151600480360381019061014c91906122aa565b610858565b005b34801561015f57600080fd5b5061017a6004803603810190610175919061241d565b610aec565b005b34801561018857600080fd5b506101a3600480360381019061019e91906124d7565b610b6e565b6040516101b09190612774565b60405180910390f35b3480156101c557600080fd5b506101e060048036038101906101db91906122aa565b610f71565b005b3480156101ee57600080fd5b5061020960048036038101906102049190612796565b61105c565b6040516102169190612858565b60405180910390f35b34801561022b57600080fd5b5061023461133b565b005b34801561024257600080fd5b5061024b611562565b6040516102589190612858565b60405180910390f35b34801561026d57600080fd5b50610276611568565b6040516102839190612882565b60405180910390f35b34801561029857600080fd5b506102a161158e565b6040516102ae9190612858565b60405180910390f35b3480156102c357600080fd5b506102cc611594565b6040516102d99190612858565b60405180910390f35b3480156102ee57600080fd5b50610309600480360381019061030491906122aa565b61159a565b60405161031b969594939291906128e7565b60405180910390f35b34801561033057600080fd5b5061034b600480360381019061034691906122aa565b61168e565b005b34801561035957600080fd5b50610374600480360381019061036f91906122aa565b61192a565b60405161038b9b9a9998979695949392919061295e565b60405180910390f35b3480156103a057600080fd5b506103bb60048036038101906103b691906122aa565b611ae1565b005b3480156103c957600080fd5b506103e460048036038101906103df91906124d7565b611ee9565b6040516103f19190612858565b60405180910390f35b34801561040657600080fd5b5061040f611f01565b60405161041c9190612b62565b60405180910390f35b34801561043157600080fd5b5061044c600480360381019061044791906122aa565b612070565b60405161045a929190612b84565b60405180910390f35b600060046000848152602001908152602001600020905060008160000154036104c1576040517f08c379a00000000000000000000000000000000000000000000000000000000081526004016104b890612bf9565b60405180910390fd5b8060090160149054906101000a900460ff1615610513576040517f08c379a000000000000000000000000000000000000000000000000000000000815260040161050a90612c65565b60405180910390fd5b818160060154101561055a576040517f08c379a000000000000000000000000000000000000000000000000000000000815260040161055190612cf7565b60405180910390fd5b81816004015461056a9190612d46565b3410156105ac576040517f08c379a00000000000000000000000000000000000000000000000000000000081526004016105a390612dfa565b60405180910390fd5b60005b828110156106c05760006001836006015484600501546105cf9190612e1a565b6105d99190612e4e565b9050336005600083815260200190815260200160002060000160006101000a81548173ffffffffffffffffffffffffffffffffffffffff021916908373ffffffffffffffffffffffffffffffffffffffff16021790555060016005600083815260200190815260200160002060000160146101000a81548160ff02191690831515021790555082600601600081548092919061067490612e82565b91905055507fc1b08244fd0980bab64af15ce86041df50137ac89779371abc2fad51ceb0914533826040516106aa929190612eab565b60405180910390a15080806001019150506105af565b5060008160060154036106d7576106d683611ae1565b5b6000808154809291906106e990612ed4565b919050555060076040518060c0016040528060005481526020013373ffffffffffffffffffffffffffffffffffffffff1681526020013481526020018481526020014281526020016040518060400160405280600181526020017f300000000000000000000000000000000000000000000000000000000000000081525081525090806001815401808255809150506001900390600052602060002090600602016000909190919091506000820151816000015560208201518160010160006101000a81548173ffffffffffffffffffffffffffffffffffffffff021916908373ffffffffffffffffffffffffffffffffffffffff16021790555060408201518160020155606082015181600301556080820151816004015560a08201518160050190816108179190613128565b5050507f31131dbb3af21cb8ed8649f6b5da34c43e1dbb01b6bd07998d4dd22b041f477c60005460405161084b9190612858565b60405180910390a1505050565b600060046000838152602001908152602001600020905060008160000154036108b6576040517f08c379a00000000000000000000000000000000000000000000000000000000081526004016108ad90612bf9565b60405180910390fd5b8060090160149054906101000a900460ff16610907576040517f08c379a00000000000000000000000000000000000000000000000000000000081526004016108fe90613246565b60405180910390fd5b8060080160009054906101000a900473ffffffffffffffffffffffffffffffffffffffff1673ffffffffffffffffffffffffffffffffffffffff163373ffffffffffffffffffffffffffffffffffffffff1614610999576040517f08c379a0000000000000000000000000000000000000000000000000000000008152600401610990906132d8565b60405180910390fd5b600360149054906101000a900460ff16156109e9576040517f08c379a00000000000000000000000000000000000000000000000000000000081526004016109e09061336a565b60405180910390fd5b6001600360146101000a81548160ff0219169083151502179055506000816007015490506000606460015483610a1f9190612d46565b610a2991906133b9565b9050600081846003015484610a3e9190612e1a565b610a489190612e1a565b90503373ffffffffffffffffffffffffffffffffffffffff166108fc829081150290604051600060405180830381858888f19350505050158015610a90573d6000803e3d6000fd5b507fff12809415c01c2cf89ed7c318b357cb402d1ce96537d1592e9966b4f425e4d43382604051610ac2929190612eab565b60405180910390a16000600360146101000a81548160ff0219169083151502179055505050505050565b60005b600780549050811015610b69578260078281548110610b1157610b106133ea565b5b90600052602060002090600602016000015403610b5c578160078281548110610b3d57610b3c6133ea565b5b90600052602060002090600602016005019081610b5a9190613128565b505b8080600101915050610aef565b505050565b6060600080600190505b6002548111610c0c578373ffffffffffffffffffffffffffffffffffffffff166004600083815260200190815260200160002060080160009054906101000a900473ffffffffffffffffffffffffffffffffffffffff1673ffffffffffffffffffffffffffffffffffffffff1603610bf9578180610bf590612ed4565b9250505b8080610c0490612ed4565b915050610b78565b5060008167ffffffffffffffff811115610c2957610c286122f2565b5b604051908082528060200260200182016040528015610c6257816020015b610c4f612198565b815260200190600190039081610c475790505b509050600080600190505b6002548111610f65578573ffffffffffffffffffffffffffffffffffffffff166004600083815260200190815260200160002060080160009054906101000a900473ffffffffffffffffffffffffffffffffffffffff1673ffffffffffffffffffffffffffffffffffffffff1603610f5257600460008281526020019081526020016000206040518061016001604052908160008201548152602001600182018054610d1890612f4b565b80601f0160208091040260200160405190810160405280929190818152602001828054610d4490612f4b565b8015610d915780601f10610d6657610100808354040283529160200191610d91565b820191906000526020600020905b815481529060010190602001808311610d7457829003601f168201915b50505050508152602001600282018054610daa90612f4b565b80601f0160208091040260200160405190810160405280929190818152602001828054610dd690612f4b565b8015610e235780601f10610df857610100808354040283529160200191610e23565b820191906000526020600020905b815481529060010190602001808311610e0657829003601f168201915b5050505050815260200160038201548152602001600482015481526020016005820154815260200160068201548152602001600782015481526020016008820160009054906101000a900473ffffffffffffffffffffffffffffffffffffffff1673ffffffffffffffffffffffffffffffffffffffff1673ffffffffffffffffffffffffffffffffffffffff1681526020016009820160009054906101000a900473ffffffffffffffffffffffffffffffffffffffff1673ffffffffffffffffffffffffffffffffffffffff1673ffffffffffffffffffffffffffffffffffffffff1681526020016009820160149054906101000a900460ff161515151581525050838381518110610f3857610f376133ea565b5b60200260200101819052508180610f4e90612ed4565b9250505b8080610f5d90612ed4565b915050610c6d565b50819350505050919050565b600360009054906101000a900473ffffffffffffffffffffffffffffffffffffffff1673ffffffffffffffffffffffffffffffffffffffff163373ffffffffffffffffffffffffffffffffffffffff1614611001576040517f08c379a0000000000000000000000000000000000000000000000000000000008152600401610ff89061348b565b60405180910390fd5b60008110158015611013575060648111155b611052576040517f08c379a00000000000000000000000000000000000000000000000000000000081526004016110499061351d565b60405180910390fd5b8060018190555050565b60008084116110a0576040517f08c379a0000000000000000000000000000000000000000000000000000000008152600401611097906135af565b60405180910390fd5b600083116110e3576040517f08c379a00000000000000000000000000000000000000000000000000000000081526004016110da90613641565b60405180910390fd5b60008211611126576040517f08c379a000000000000000000000000000000000000000000000000000000000815260040161111d906136d3565b60405180910390fd5b6002600081548092919061113990612ed4565b9190505550600254905060405180610160016040528082815260200187815260200186815260200185815260200184815260200183815260200183815260200184846111859190612d46565b81526020013373ffffffffffffffffffffffffffffffffffffffff168152602001600073ffffffffffffffffffffffffffffffffffffffff16815260200160001515815250600460008381526020019081526020016000206000820151816000015560208201518160010190816111fc9190613128565b5060408201518160020190816112129190613128565b50606082015181600301556080820151816004015560a0820151816005015560c0820151816006015560e082015181600701556101008201518160080160006101000a81548173ffffffffffffffffffffffffffffffffffffffff021916908373ffffffffffffffffffffffffffffffffffffffff1602179055506101208201518160090160006101000a81548173ffffffffffffffffffffffffffffffffffffffff021916908373ffffffffffffffffffffffffffffffffffffffff1602179055506101408201518160090160146101000a81548160ff0219169083151502179055509050507f9f788631323233e97aa120b252b89837fbc7d796f463281e8c4ff2d94b745f00818560405161132a9291906136f3565b60405180910390a195945050505050565b600360009054906101000a900473ffffffffffffffffffffffffffffffffffffffff1673ffffffffffffffffffffffffffffffffffffffff163373ffffffffffffffffffffffffffffffffffffffff16146113cb576040517f08c379a00000000000000000000000000000000000000000000000000000000081526004016113c29061348b565b60405180910390fd5b6000600660003373ffffffffffffffffffffffffffffffffffffffff1673ffffffffffffffffffffffffffffffffffffffff16815260200190815260200160002054905060008111611452576040517f08c379a00000000000000000000000000000000000000000000000000000000081526004016114499061378e565b60405180910390fd5b61145b336120c1565b61149a576040517f08c379a0000000000000000000000000000000000000000000000000000000008152600401611491906137fa565b60405180910390fd5b6000600660003373ffffffffffffffffffffffffffffffffffffffff1673ffffffffffffffffffffffffffffffffffffffff168152602001908152602001600020819055503373ffffffffffffffffffffffffffffffffffffffff166108fc829081150290604051600060405180830381858888f19350505050158015611525573d6000803e3d6000fd5b507fff12809415c01c2cf89ed7c318b357cb402d1ce96537d1592e9966b4f425e4d43382604051611557929190612eab565b60405180910390a150565b60005481565b600360009054906101000a900473ffffffffffffffffffffffffffffffffffffffff1681565b60015481565b60025481565b600781815481106115aa57600080fd5b90600052602060002090600602016000915090508060000154908060010160009054906101000a900473ffffffffffffffffffffffffffffffffffffffff169080600201549080600301549080600401549080600501805461160b90612f4b565b80601f016020809104026020016040519081016040528092919081815260200182805461163790612f4b565b80156116845780601f1061165957610100808354040283529160200191611684565b820191906000526020600020905b81548152906001019060200180831161166757829003601f168201915b5050505050905086565b600060046000838152602001908152602001600020905060008160000154036116ec576040517f08c379a00000000000000000000000000000000000000000000000000000000081526004016116e390612bf9565b60405180910390fd5b8060080160009054906101000a900473ffffffffffffffffffffffffffffffffffffffff1673ffffffffffffffffffffffffffffffffffffffff163373ffffffffffffffffffffffffffffffffffffffff1614806117975750600360009054906101000a900473ffffffffffffffffffffffffffffffffffffffff1673ffffffffffffffffffffffffffffffffffffffff163373ffffffffffffffffffffffffffffffffffffffff16145b6117d6576040517f08c379a00000000000000000000000000000000000000000000000000000000081526004016117cd9061388c565b60405180910390fd5b8060090160149054906101000a900460ff1615611828576040517f08c379a000000000000000000000000000000000000000000000000000000000815260040161181f9061391e565b60405180910390fd5b8060060154816005015414611909576000600190505b81600501548111611907576005600082815260200190815260200160002060000160149054906101000a900460ff16156118f4576005600082815260200190815260200160002060000160009054906101000a900473ffffffffffffffffffffffffffffffffffffffff1673ffffffffffffffffffffffffffffffffffffffff166108fc83600401549081150290604051600060405180830381858888f193505050501580156118f2573d6000803e3d6000fd5b505b80806118ff90612ed4565b91505061183e565b505b60018160090160146101000a81548160ff0219169083151502179055505050565b600460205280600052604060002060009150905080600001549080600101805461195390612f4b565b80601f016020809104026020016040519081016040528092919081815260200182805461197f90612f4b565b80156119cc5780601f106119a1576101008083540402835291602001916119cc565b820191906000526020600020905b8154815290600101906020018083116119af57829003601f168201915b5050505050908060020180546119e190612f4b565b80601f0160208091040260200160405190810160405280929190818152602001828054611a0d90612f4b565b8015611a5a5780601f10611a2f57610100808354040283529160200191611a5a565b820191906000526020600020905b815481529060010190602001808311611a3d57829003601f168201915b5050505050908060030154908060040154908060050154908060060154908060070154908060080160009054906101000a900473ffffffffffffffffffffffffffffffffffffffff16908060090160009054906101000a900473ffffffffffffffffffffffffffffffffffffffff16908060090160149054906101000a900460ff1690508b565b60006004600083815260200190815260200160002090506000816000015403611b3f576040517f08c379a0000000000000000000000000000000000000000000000000000000008152600401611b3690612bf9565b60405180910390fd5b8060090160149054906101000a900460ff1615611b91576040517f08c379a0000000000000000000000000000000000000000000000000000000008152600401611b8890612c65565b60405180910390fd5b6000816006015414611bd8576040517f08c379a0000000000000000000000000000000000000000000000000000000008152600401611bcf906139b0565b60405180910390fd5b6000600182600501544244604051602001611bf49291906139f1565b6040516020818303038152906040528051906020012060001c611c179190613a1d565b611c219190612e4e565b90506005600082815260200190815260200160002060000160009054906101000a900473ffffffffffffffffffffffffffffffffffffffff168260090160006101000a81548173ffffffffffffffffffffffffffffffffffffffff021916908373ffffffffffffffffffffffffffffffffffffffff16021790555060018260090160146101000a81548160ff0219169083151502179055508160090160009054906101000a900473ffffffffffffffffffffffffffffffffffffffff1673ffffffffffffffffffffffffffffffffffffffff166108fc83600301549081150290604051600060405180830381858888f19350505050158015611d27573d6000803e3d6000fd5b50600060646001548460070154611d3e9190612d46565b611d4891906133b9565b90508060066000600360009054906101000a900473ffffffffffffffffffffffffffffffffffffffff1673ffffffffffffffffffffffffffffffffffffffff1673ffffffffffffffffffffffffffffffffffffffff1681526020019081526020016000206000828254611dbb9190612e4e565b92505081905550600360009054906101000a900473ffffffffffffffffffffffffffffffffffffffff1673ffffffffffffffffffffffffffffffffffffffff166108fc829081150290604051600060405180830381858888f19350505050158015611e2a573d6000803e3d6000fd5b507f6823229c48e2515e0419d97541510a5c6d9e94ce2b8741c001b9acb1fc6e1bc4848460090160009054906101000a900473ffffffffffffffffffffffffffffffffffffffff16604051611e80929190613a4e565b60405180910390a17f25d5cd9948bbe5aa16f7c9ceb592835ff8c5f142cdf6f2aae3e86da6e4f34668600360009054906101000a900473ffffffffffffffffffffffffffffffffffffffff1682604051611edb929190612eab565b60405180910390a150505050565b60066020528060005260406000206000915090505481565b60606007805480602002602001604051908101604052809291908181526020016000905b8282101561206757838290600052602060002090600602016040518060c0016040529081600082015481526020016001820160009054906101000a900473ffffffffffffffffffffffffffffffffffffffff1673ffffffffffffffffffffffffffffffffffffffff1673ffffffffffffffffffffffffffffffffffffffff168152602001600282015481526020016003820154815260200160048201548152602001600582018054611fd690612f4b565b80601f016020809104026020016040519081016040528092919081815260200182805461200290612f4b565b801561204f5780601f106120245761010080835404028352916020019161204f565b820191906000526020600020905b81548152906001019060200180831161203257829003601f168201915b50505050508152505081526020019060010190611f25565b50505050905090565b60056020528060005260406000206000915090508060000160009054906101000a900473ffffffffffffffffffffffffffffffffffffffff16908060000160149054906101000a900460ff16905082565b600080600090506000600190505b600254811161214c5760006004600083815260200190815260200160002090508060090160149054906101000a900460ff16156121385760006064600154836007015461211c9190612d46565b61212691906133b9565b905080846121349190612e4e565b9350505b50808061214490612ed4565b9150506120cf565b5080600660008573ffffffffffffffffffffffffffffffffffffffff1673ffffffffffffffffffffffffffffffffffffffff168152602001908152602001600020541115915050919050565b6040518061016001604052806000815260200160608152602001606081526020016000815260200160008152602001600081526020016000815260200160008152602001600073ffffffffffffffffffffffffffffffffffffffff168152602001600073ffffffffffffffffffffffffffffffffffffffff1681526020016000151581525090565b6000604051905090565b600080fd5b600080fd5b6000819050919050565b61224781612234565b811461225257600080fd5b50565b6000813590506122648161223e565b92915050565b600080604083850312156122815761228061222a565b5b600061228f85828601612255565b92505060206122a085828601612255565b9150509250929050565b6000602082840312156122c0576122bf61222a565b5b60006122ce84828501612255565b91505092915050565b600080fd5b600080fd5b6000601f19601f8301169050919050565b7f4e487b7100000000000000000000000000000000000000000000000000000000600052604160045260246000fd5b61232a826122e1565b810181811067ffffffffffffffff82111715612349576123486122f2565b5b80604052505050565b600061235c612220565b90506123688282612321565b919050565b600067ffffffffffffffff821115612388576123876122f2565b5b612391826122e1565b9050602081019050919050565b82818337600083830152505050565b60006123c06123bb8461236d565b612352565b9050828152602081018484840111156123dc576123db6122dc565b5b6123e784828561239e565b509392505050565b600082601f830112612404576124036122d7565b5b81356124148482602086016123ad565b91505092915050565b600080604083850312156124345761243361222a565b5b600061244285828601612255565b925050602083013567ffffffffffffffff8111156124635761246261222f565b5b61246f858286016123ef565b9150509250929050565b600073ffffffffffffffffffffffffffffffffffffffff82169050919050565b60006124a482612479565b9050919050565b6124b481612499565b81146124bf57600080fd5b50565b6000813590506124d1816124ab565b92915050565b6000602082840312156124ed576124ec61222a565b5b60006124fb848285016124c2565b91505092915050565b600081519050919050565b600082825260208201905092915050565b6000819050602082019050919050565b61253981612234565b82525050565b600081519050919050565b600082825260208201905092915050565b60005b8381101561257957808201518184015260208101905061255e565b60008484015250505050565b60006125908261253f565b61259a818561254a565b93506125aa81856020860161255b565b6125b3816122e1565b840191505092915050565b6125c781612499565b82525050565b60008115159050919050565b6125e2816125cd565b82525050565b6000610160830160008301516126016000860182612530565b50602083015184820360208601526126198282612585565b915050604083015184820360408601526126338282612585565b91505060608301516126486060860182612530565b50608083015161265b6080860182612530565b5060a083015161266e60a0860182612530565b5060c083015161268160c0860182612530565b5060e083015161269460e0860182612530565b506101008301516126a96101008601826125be565b506101208301516126be6101208601826125be565b506101408301516126d36101408601826125d9565b508091505092915050565b60006126ea83836125e8565b905092915050565b6000602082019050919050565b600061270a82612504565b612714818561250f565b93508360208202850161272685612520565b8060005b85811015612762578484038952815161274385826126de565b945061274e836126f2565b925060208a0199505060018101905061272a565b50829750879550505050505092915050565b6000602082019050818103600083015261278e81846126ff565b905092915050565b600080600080600060a086880312156127b2576127b161222a565b5b600086013567ffffffffffffffff8111156127d0576127cf61222f565b5b6127dc888289016123ef565b955050602086013567ffffffffffffffff8111156127fd576127fc61222f565b5b612809888289016123ef565b945050604061281a88828901612255565b935050606061282b88828901612255565b925050608061283c88828901612255565b9150509295509295909350565b61285281612234565b82525050565b600060208201905061286d6000830184612849565b92915050565b61287c81612499565b82525050565b60006020820190506128976000830184612873565b92915050565b600082825260208201905092915050565b60006128b98261253f565b6128c3818561289d565b93506128d381856020860161255b565b6128dc816122e1565b840191505092915050565b600060c0820190506128fc6000830189612849565b6129096020830188612873565b6129166040830187612849565b6129236060830186612849565b6129306080830185612849565b81810360a083015261294281846128ae565b9050979650505050505050565b612958816125cd565b82525050565b600061016082019050612974600083018e612849565b8181036020830152612986818d6128ae565b9050818103604083015261299a818c6128ae565b90506129a9606083018b612849565b6129b6608083018a612849565b6129c360a0830189612849565b6129d060c0830188612849565b6129dd60e0830187612849565b6129eb610100830186612873565b6129f9610120830185612873565b612a0761014083018461294f565b9c9b505050505050505050505050565b600081519050919050565b600082825260208201905092915050565b6000819050602082019050919050565b600060c083016000830151612a5b6000860182612530565b506020830151612a6e60208601826125be565b506040830151612a816040860182612530565b506060830151612a946060860182612530565b506080830151612aa76080860182612530565b5060a083015184820360a0860152612abf8282612585565b9150508091505092915050565b6000612ad88383612a43565b905092915050565b6000602082019050919050565b6000612af882612a17565b612b028185612a22565b935083602082028501612b1485612a33565b8060005b85811015612b505784840389528151612b318582612acc565b9450612b3c83612ae0565b925060208a01995050600181019050612b18565b50829750879550505050505092915050565b60006020820190508181036000830152612b7c8184612aed565b905092915050565b6000604082019050612b996000830185612873565b612ba6602083018461294f565b9392505050565b7f52696661206ec3a36f20656e636f6e7472616461000000000000000000000000600082015250565b6000612be360148361289d565b9150612bee82612bad565b602082019050919050565b60006020820190508181036000830152612c1281612bd6565b9050919050565b7f412072696661206ac3a120666f692066696e616c697a61646100000000000000600082015250565b6000612c4f60198361289d565b9150612c5a82612c19565b602082019050919050565b60006020820190508181036000830152612c7e81612c42565b9050919050565b7f4ec3a36f2068c3a12062696c686574657320737566696369656e74657320646960008201527f73706f6ec3ad7665697300000000000000000000000000000000000000000000602082015250565b6000612ce1602a8361289d565b9150612cec82612c85565b604082019050919050565b60006020820190508181036000830152612d1081612cd4565b9050919050565b7f4e487b7100000000000000000000000000000000000000000000000000000000600052601160045260246000fd5b6000612d5182612234565b9150612d5c83612234565b9250828202612d6a81612234565b91508282048414831517612d8157612d80612d17565b5b5092915050565b7f56616c6f7220696e737566696369656e7465207061726120636f6d707261722060008201527f6f732062696c6865746573000000000000000000000000000000000000000000602082015250565b6000612de4602b8361289d565b9150612def82612d88565b604082019050919050565b60006020820190508181036000830152612e1381612dd7565b9050919050565b6000612e2582612234565b9150612e3083612234565b9250828203905081811115612e4857612e47612d17565b5b92915050565b6000612e5982612234565b9150612e6483612234565b9250828201905080821115612e7c57612e7b612d17565b5b92915050565b6000612e8d82612234565b915060008203612ea057612e9f612d17565b5b600182039050919050565b6000604082019050612ec06000830185612873565b612ecd6020830184612849565b9392505050565b6000612edf82612234565b91507fffffffffffffffffffffffffffffffffffffffffffffffffffffffffffffffff8203612f1157612f10612d17565b5b600182019050919050565b7f4e487b7100000000000000000000000000000000000000000000000000000000600052602260045260246000fd5b60006002820490506001821680612f6357607f821691505b602082108103612f7657612f75612f1c565b5b50919050565b60008190508160005260206000209050919050565b60006020601f8301049050919050565b600082821b905092915050565b600060088302612fde7fffffffffffffffffffffffffffffffffffffffffffffffffffffffffffffffff82612fa1565b612fe88683612fa1565b95508019841693508086168417925050509392505050565b6000819050919050565b600061302561302061301b84612234565b613000565b612234565b9050919050565b6000819050919050565b61303f8361300a565b61305361304b8261302c565b848454612fae565b825550505050565b600090565b61306861305b565b613073818484613036565b505050565b5b818110156130975761308c600082613060565b600181019050613079565b5050565b601f8211156130dc576130ad81612f7c565b6130b684612f91565b810160208510156130c5578190505b6130d96130d185612f91565b830182613078565b50505b505050565b600082821c905092915050565b60006130ff600019846008026130e1565b1980831691505092915050565b600061311883836130ee565b9150826002028217905092915050565b6131318261253f565b67ffffffffffffffff81111561314a576131496122f2565b5b6131548254612f4b565b61315f82828561309b565b600060209050601f8311600181146131925760008415613180578287015190505b61318a858261310c565b8655506131f2565b601f1984166131a086612f7c565b60005b828110156131c8578489015182556001820191506020850194506020810190506131a3565b868310156131e557848901516131e1601f8916826130ee565b8355505b6001600288020188555050505b505050505050565b7f4120726966612061696e6461206ec3a36f20666f692066696e616c697a616461600082015250565b600061323060208361289d565b915061323b826131fa565b602082019050919050565b6000602082019050818103600083015261325f81613223565b9050919050565b7f536f6d656e7465206f2061646d696e6973747261646f7220646120726966612060008201527f706f6465207361636172206f2076616c6f72206172726563616461646f000000602082015250565b60006132c2603d8361289d565b91506132cd82613266565b604082019050919050565b600060208201905081810360008301526132f1816132b5565b9050919050565b7f46756ec3a7c3a36f20736163617256616c6f724172726563616461646f20656d60008201527f206578656375c3a7c3a36f000000000000000000000000000000000000000000602082015250565b6000613354602b8361289d565b915061335f826132f8565b604082019050919050565b6000602082019050818103600083015261338381613347565b9050919050565b7f4e487b7100000000000000000000000000000000000000000000000000000000600052601260045260246000fd5b60006133c482612234565b91506133cf83612234565b9250826133df576133de61338a565b5b828204905092915050565b7f4e487b7100000000000000000000000000000000000000000000000000000000600052603260045260246000fd5b7f536f6d656e7465206f2061646d696e6973747261646f7220646f20636f6e747260008201527f61746f20706f646520657865637574617220657373612066756ec3a7c3a36f00602082015250565b6000613475603f8361289d565b915061348082613419565b604082019050919050565b600060208201905081810360008301526134a481613468565b9050919050565b7f4120746178612061646d696e697374726174697661206465766520736572207560008201527f6d2076616c6f7220656e74726520302065203130300000000000000000000000602082015250565b600061350760358361289d565b9150613512826134ab565b604082019050919050565b60006020820190508181036000830152613536816134fa565b9050919050565b7f4f2076616c6f7220746f74616c2064612072696661206465766520736572206d60008201527f61696f7220717565207a65726f00000000000000000000000000000000000000602082015250565b6000613599602d8361289d565b91506135a48261353d565b604082019050919050565b600060208201905081810360008301526135c88161358c565b9050919050565b7f4f20707265c3a76f20646f2062696c68657465206465766520736572206d616960008201527f6f7220717565207a65726f000000000000000000000000000000000000000000602082015250565b600061362b602b8361289d565b9150613636826135cf565b604082019050919050565b6000602082019050818103600083015261365a8161361e565b9050919050565b7f41207175616e7469646164652064652062696c6865746573206465766520736560008201527f72206d61696f7220717565207a65726f00000000000000000000000000000000602082015250565b60006136bd60308361289d565b91506136c882613661565b604082019050919050565b600060208201905081810360008301526136ec816136b0565b9050919050565b60006040820190506137086000830185612849565b6137156020830184612849565b9392505050565b7f53616c646f2061646d696e69737472617469766f20696e737566696369656e7460008201527f6500000000000000000000000000000000000000000000000000000000000000602082015250565b600061377860218361289d565b91506137838261371c565b604082019050919050565b600060208201905081810360008301526137a78161376b565b9050919050565b7f53616c646f2061646d696e69737472617469766f20696e76c3a16c69646f0000600082015250565b60006137e4601e8361289d565b91506137ef826137ae565b602082019050919050565b60006020820190508181036000830152613813816137d7565b9050919050565b7f536f6d656e7465206f2061646d696e6973747261646f7220646120726966612060008201527f706f64652063616e63656c617220612072696661000000000000000000000000602082015250565b600061387660348361289d565b91506138818261381a565b604082019050919050565b600060208201905081810360008301526138a581613869565b9050919050565b7f4ec3a36f20c3a920706f7373c3ad76656c2063616e63656c617220756d61207260008201527f6966612066696e616c697a616461000000000000000000000000000000000000602082015250565b6000613908602e8361289d565b9150613913826138ac565b604082019050919050565b60006020820190508181036000830152613937816138fb565b9050919050565b7f4120726966612061696e64612074656d2062696c686574657320646973706f6e60008201527fc3ad766569730000000000000000000000000000000000000000000000000000602082015250565b600061399a60268361289d565b91506139a58261393e565b604082019050919050565b600060208201905081810360008301526139c98161398d565b9050919050565b6000819050919050565b6139eb6139e682612234565b6139d0565b82525050565b60006139fd82856139da565b602082019150613a0d82846139da565b6020820191508190509392505050565b6000613a2882612234565b9150613a3383612234565b925082613a4357613a4261338a565b5b828206905092915050565b6000604082019050613a636000830185612849565b613a706020830184612873565b939250505056fea2646970667358221220ff795d85294b211fd5219706b1da6e0a0b722b2aa5dce8c1603702abb3a593a964736f6c63430008180033",
  "linkReferences": {},
  "deployedLinkReferences": {}
}