{
  "_format": "hh-sol-artifact-1",
  "contractName": "RaffleV2",
  "sourceName": "contracts/RifaChain2.sol",
  "abi": [
    {
      "inputs": [],
      "stateMutability": "nonpayable",
      "type": "constructor"
    },
    {
      "anonymous": false,
      "inputs": [
        {
          "indexed": false,
          "internalType": "uint256",
          "name": "id",
          "type": "uint256"
        },
        {
          "indexed": false,
          "internalType": "string",
          "name": "name",
          "type": "string"
        },
        {
          "indexed": false,
          "internalType": "uint256",
          "name": "ticketPrice",
          "type": "uint256"
        },
        {
          "indexed": false,
          "internalType": "uint256",
          "name": "ticketCount",
          "type": "uint256"
        }
      ],
      "name": "RaffleCreated",
      "type": "event"
    },
    {
      "anonymous": false,
      "inputs": [
        {
          "indexed": false,
          "internalType": "uint256",
          "name": "id",
          "type": "uint256"
        },
        {
          "indexed": false,
          "internalType": "address",
          "name": "winner",
          "type": "address"
        }
      ],
      "name": "RaffleWinner",
      "type": "event"
    },
    {
      "anonymous": false,
      "inputs": [
        {
          "indexed": false,
          "internalType": "uint256",
          "name": "id",
          "type": "uint256"
        },
        {
          "indexed": false,
          "internalType": "address",
          "name": "participant",
          "type": "address"
        },
        {
          "indexed": false,
          "internalType": "uint256",
          "name": "ticketCount",
          "type": "uint256"
        }
      ],
      "name": "TicketBought",
      "type": "event"
    },
    {
      "inputs": [
        {
          "internalType": "uint256",
          "name": "_raffleId",
          "type": "uint256"
        },
        {
          "internalType": "uint256",
          "name": "_ticketCount",
          "type": "uint256"
        }
      ],
      "name": "buyTicket",
      "outputs": [],
      "stateMutability": "payable",
      "type": "function"
    },
    {
      "inputs": [
        {
          "internalType": "string",
          "name": "_name",
          "type": "string"
        },
        {
          "internalType": "string",
          "name": "_image",
          "type": "string"
        },
        {
          "internalType": "uint256",
          "name": "_ticketPrice",
          "type": "uint256"
        },
        {
          "internalType": "uint256",
          "name": "_ticketCount",
          "type": "uint256"
        },
        {
          "internalType": "uint256",
          "name": "_totalAmountToWin",
          "type": "uint256"
        }
      ],
      "name": "createRaffle",
      "outputs": [],
      "stateMutability": "nonpayable",
      "type": "function"
    },
    {
      "inputs": [
        {
          "internalType": "address",
          "name": "_participant",
          "type": "address"
        }
      ],
      "name": "getParticipantTickets",
      "outputs": [
        {
          "components": [
            {
              "internalType": "uint256",
              "name": "ticketNumber",
              "type": "uint256"
            },
            {
              "internalType": "uint256",
              "name": "raffleId",
              "type": "uint256"
            },
            {
              "internalType": "address",
              "name": "participant",
              "type": "address"
            }
          ],
          "internalType": "struct RaffleV2.Ticket[]",
          "name": "",
          "type": "tuple[]"
        }
      ],
      "stateMutability": "view",
      "type": "function"
    },
    {
      "inputs": [
        {
          "internalType": "uint256",
          "name": "_raffleId",
          "type": "uint256"
        }
      ],
      "name": "getRaffleTickets",
      "outputs": [
        {
          "components": [
            {
              "internalType": "uint256",
              "name": "ticketNumber",
              "type": "uint256"
            },
            {
              "internalType": "uint256",
              "name": "raffleId",
              "type": "uint256"
            },
            {
              "internalType": "address",
              "name": "participant",
              "type": "address"
            }
          ],
          "internalType": "struct RaffleV2.Ticket[]",
          "name": "",
          "type": "tuple[]"
        }
      ],
      "stateMutability": "view",
      "type": "function"
    },
    {
      "inputs": [
        {
          "internalType": "address",
          "name": "_address",
          "type": "address"
        }
      ],
      "name": "getRaflle",
      "outputs": [
        {
          "components": [
            {
              "internalType": "address",
              "name": "owner",
              "type": "address"
            },
            {
              "internalType": "uint256",
              "name": "id",
              "type": "uint256"
            },
            {
              "internalType": "string",
              "name": "name",
              "type": "string"
            },
            {
              "internalType": "string",
              "name": "image",
              "type": "string"
            },
            {
              "internalType": "uint256",
              "name": "ticketPrice",
              "type": "uint256"
            },
            {
              "internalType": "uint256",
              "name": "ticketCount",
              "type": "uint256"
            },
            {
              "internalType": "uint256",
              "name": "ticketSold",
              "type": "uint256"
            },
            {
              "internalType": "uint256",
              "name": "totalAmountToWin",
              "type": "uint256"
            },
            {
              "internalType": "bool",
              "name": "isActive",
              "type": "bool"
            },
            {
              "internalType": "uint256",
              "name": "createadAt",
              "type": "uint256"
            },
            {
              "internalType": "address",
              "name": "winner",
              "type": "address"
            },
            {
              "internalType": "bool",
              "name": "isWhidrawn",
              "type": "bool"
            }
          ],
          "internalType": "struct RaffleV2.Raffle[]",
          "name": "",
          "type": "tuple[]"
        }
      ],
      "stateMutability": "view",
      "type": "function"
    },
    {
      "inputs": [],
      "name": "owner",
      "outputs": [
        {
          "internalType": "address",
          "name": "",
          "type": "address"
        }
      ],
      "stateMutability": "view",
      "type": "function"
    },
    {
      "inputs": [
        {
          "internalType": "uint256",
          "name": "",
          "type": "uint256"
        }
      ],
      "name": "raffles",
      "outputs": [
        {
          "internalType": "address",
          "name": "owner",
          "type": "address"
        },
        {
          "internalType": "uint256",
          "name": "id",
          "type": "uint256"
        },
        {
          "internalType": "string",
          "name": "name",
          "type": "string"
        },
        {
          "internalType": "string",
          "name": "image",
          "type": "string"
        },
        {
          "internalType": "uint256",
          "name": "ticketPrice",
          "type": "uint256"
        },
        {
          "internalType": "uint256",
          "name": "ticketCount",
          "type": "uint256"
        },
        {
          "internalType": "uint256",
          "name": "ticketSold",
          "type": "uint256"
        },
        {
          "internalType": "uint256",
          "name": "totalAmountToWin",
          "type": "uint256"
        },
        {
          "internalType": "bool",
          "name": "isActive",
          "type": "bool"
        },
        {
          "internalType": "uint256",
          "name": "createadAt",
          "type": "uint256"
        },
        {
          "internalType": "address",
          "name": "winner",
          "type": "address"
        },
        {
          "internalType": "bool",
          "name": "isWhidrawn",
          "type": "bool"
        }
      ],
      "stateMutability": "view",
      "type": "function"
    },
    {
      "inputs": [
        {
          "internalType": "uint256",
          "name": "_fee",
          "type": "uint256"
        }
      ],
      "name": "setFee",
      "outputs": [],
      "stateMutability": "nonpayable",
      "type": "function"
    },
    {
      "inputs": [],
      "name": "withdrawFeeAmount",
      "outputs": [],
      "stateMutability": "nonpayable",
      "type": "function"
    },
    {
      "inputs": [
        {
          "internalType": "uint256",
          "name": "_raffleId",
          "type": "uint256"
        }
      ],
      "name": "withdrawRaffleAmount",
      "outputs": [],
      "stateMutability": "nonpayable",
      "type": "function"
    }
  ],
  "bytecode": "0x60806040526000600155600a60025534801561001a57600080fd5b50336000806101000a81548173ffffffffffffffffffffffffffffffffffffffff021916908373ffffffffffffffffffffffffffffffffffffffff160217905550612e918061006a6000396000f3fe6080604052600436106100915760003560e01c80638da5cb5b116100595780638da5cb5b14610189578063a410a7f2146101b4578063e8566634146101f1578063f41bc95e1461021a578063fac9b99c1461025757610091565b8063298ec2081461009657806338ebda8b146100b257806353b6222f146100db5780635d4bc0ce1461011857806369fe0e2d14610160575b600080fd5b6100b060048036038101906100ab9190611b57565b61026e565b005b3480156100be57600080fd5b506100d960048036038101906100d49190611cdd565b610567565b005b3480156100e757600080fd5b5061010260048036038101906100fd9190611dee565b61079f565b60405161010f91906120a0565b60405180910390f35b34801561012457600080fd5b5061013f600480360381019061013a91906120c2565b610bbd565b6040516101579c9b9a99989796959493929190612166565b60405180910390f35b34801561016c57600080fd5b50610187600480360381019061018291906120c2565b610d87565b005b34801561019557600080fd5b5061019e610d99565b6040516101ab919061222e565b60405180910390f35b3480156101c057600080fd5b506101db60048036038101906101d69190611dee565b610dbd565b6040516101e8919061233a565b60405180910390f35b3480156101fd57600080fd5b50610218600480360381019061021391906120c2565b6110c0565b005b34801561022657600080fd5b50610241600480360381019061023c91906120c2565b6113b1565b60405161024e919061233a565b60405180910390f35b34801561026357600080fd5b5061026c61148d565b005b6003600083815260200190815260200160002060080160009054906101000a900460ff166102d1576040517f08c379a00000000000000000000000000000000000000000000000000000000081526004016102c8906123a8565b60405180910390fd5b8060036000848152602001908152602001600020600401546102f391906123f7565b3414610334576040517f08c379a000000000000000000000000000000000000000000000000000000000815260040161032b90612485565b60405180910390fd5b80600360008481526020019081526020016000206006015461035691906124a5565b600360008481526020019081526020016000206005015410156103ae576040517f08c379a00000000000000000000000000000000000000000000000000000000081526004016103a590612525565b60405180910390fd5b60005b818110156104bd5760046000848152602001908152602001600020604051806060016040528060018460036000898152602001908152602001600020600601546103fb91906124a5565b61040591906124a5565b81526020018581526020013373ffffffffffffffffffffffffffffffffffffffff168152509080600181540180825580915050600190039060005260206000209060030201600090919091909150600082015181600001556020820151816001015560408201518160020160006101000a81548173ffffffffffffffffffffffffffffffffffffffff021916908373ffffffffffffffffffffffffffffffffffffffff160217905550505080806001019150506103b1565b50806003600084815260200190815260200160002060060160008282546104e491906124a5565b925050819055507f913d09b391f64143215d9312fd7e8ecaa06001c646789c9d2109dc515bc34fad82338360405161051e93929190612545565b60405180910390a160036000838152602001908152602001600020600601546003600084815260200190815260200160002060050154036105635761056282611565565b5b5050565b6001600081548092919061057a9061257c565b91905055506040518061018001604052803373ffffffffffffffffffffffffffffffffffffffff168152602001600154815260200186815260200185815260200184815260200183815260200160008152602001828152602001600115158152602001428152602001600073ffffffffffffffffffffffffffffffffffffffff1681526020016000151581525060036000600154815260200190815260200160002060008201518160000160006101000a81548173ffffffffffffffffffffffffffffffffffffffff021916908373ffffffffffffffffffffffffffffffffffffffff16021790555060208201518160010155604082015181600201908161068291906127d0565b50606082015181600301908161069891906127d0565b506080820151816004015560a0820151816005015560c0820151816006015560e082015181600701556101008201518160080160006101000a81548160ff021916908315150217905550610120820151816009015561014082015181600a0160006101000a81548173ffffffffffffffffffffffffffffffffffffffff021916908373ffffffffffffffffffffffffffffffffffffffff16021790555061016082015181600a0160146101000a81548160ff0219169083151502179055509050507fa67a3ae202f19c155f33ec43781f888d5b6b6ddf7467ff4893647ece828a26b260015486858560405161079094939291906128a2565b60405180910390a15050505050565b6060600080600190505b600154811161083d578373ffffffffffffffffffffffffffffffffffffffff166003600083815260200190815260200160002060000160009054906101000a900473ffffffffffffffffffffffffffffffffffffffff1673ffffffffffffffffffffffffffffffffffffffff160361082a5781806108269061257c565b9250505b80806108359061257c565b9150506107a9565b5060008167ffffffffffffffff81111561085a57610859611bb2565b5b60405190808252806020026020018201604052801561089357816020015b610880611a45565b8152602001906001900390816108785790505b509050600080600190505b6001548111610bb1578573ffffffffffffffffffffffffffffffffffffffff166003600083815260200190815260200160002060000160009054906101000a900473ffffffffffffffffffffffffffffffffffffffff1673ffffffffffffffffffffffffffffffffffffffff1603610b9e5760036000828152602001908152602001600020604051806101800160405290816000820160009054906101000a900473ffffffffffffffffffffffffffffffffffffffff1673ffffffffffffffffffffffffffffffffffffffff1673ffffffffffffffffffffffffffffffffffffffff1681526020016001820154815260200160028201805461099f906125f3565b80601f01602080910402602001604051908101604052809291908181526020018280546109cb906125f3565b8015610a185780601f106109ed57610100808354040283529160200191610a18565b820191906000526020600020905b8154815290600101906020018083116109fb57829003601f168201915b50505050508152602001600382018054610a31906125f3565b80601f0160208091040260200160405190810160405280929190818152602001828054610a5d906125f3565b8015610aaa5780601f10610a7f57610100808354040283529160200191610aaa565b820191906000526020600020905b815481529060010190602001808311610a8d57829003601f168201915b50505050508152602001600482015481526020016005820154815260200160068201548152602001600782015481526020016008820160009054906101000a900460ff1615151515815260200160098201548152602001600a820160009054906101000a900473ffffffffffffffffffffffffffffffffffffffff1673ffffffffffffffffffffffffffffffffffffffff1673ffffffffffffffffffffffffffffffffffffffff168152602001600a820160149054906101000a900460ff161515151581525050838381518110610b8457610b836128ee565b5b60200260200101819052508180610b9a9061257c565b9250505b8080610ba99061257c565b91505061089e565b50819350505050919050565b60036020528060005260406000206000915090508060000160009054906101000a900473ffffffffffffffffffffffffffffffffffffffff1690806001015490806002018054610c0c906125f3565b80601f0160208091040260200160405190810160405280929190818152602001828054610c38906125f3565b8015610c855780601f10610c5a57610100808354040283529160200191610c85565b820191906000526020600020905b815481529060010190602001808311610c6857829003601f168201915b505050505090806003018054610c9a906125f3565b80601f0160208091040260200160405190810160405280929190818152602001828054610cc6906125f3565b8015610d135780601f10610ce857610100808354040283529160200191610d13565b820191906000526020600020905b815481529060010190602001808311610cf657829003601f168201915b5050505050908060040154908060050154908060060154908060070154908060080160009054906101000a900460ff169080600901549080600a0160009054906101000a900473ffffffffffffffffffffffffffffffffffffffff169080600a0160149054906101000a900460ff1690508c565b610d8f6119b5565b8060028190555050565b60008054906101000a900473ffffffffffffffffffffffffffffffffffffffff1681565b6060600080600190505b6001548111610eaa5760005b6004600083815260200190815260200160002080549050811015610e96578473ffffffffffffffffffffffffffffffffffffffff16600460008481526020019081526020016000208281548110610e2d57610e2c6128ee565b5b906000526020600020906003020160020160009054906101000a900473ffffffffffffffffffffffffffffffffffffffff1673ffffffffffffffffffffffffffffffffffffffff1603610e89578280610e859061257c565b9350505b8080600101915050610dd3565b508080610ea29061257c565b915050610dc7565b5060008167ffffffffffffffff811115610ec757610ec6611bb2565b5b604051908082528060200260200182016040528015610f0057816020015b610eed611ad6565b815260200190600190039081610ee55790505b509050600080600190505b60015481116110b45760005b60046000838152602001908152602001600020805490508110156110a0578673ffffffffffffffffffffffffffffffffffffffff16600460008481526020019081526020016000208281548110610f7157610f706128ee565b5b906000526020600020906003020160020160009054906101000a900473ffffffffffffffffffffffffffffffffffffffff1673ffffffffffffffffffffffffffffffffffffffff160361109357600460008381526020019081526020016000208181548110610fe357610fe26128ee565b5b906000526020600020906003020160405180606001604052908160008201548152602001600182015481526020016002820160009054906101000a900473ffffffffffffffffffffffffffffffffffffffff1673ffffffffffffffffffffffffffffffffffffffff1673ffffffffffffffffffffffffffffffffffffffff1681525050848481518110611079576110786128ee565b5b6020026020010181905250828061108f9061257c565b9350505b8080600101915050610f17565b5080806110ac9061257c565b915050610f0b565b50819350505050919050565b3373ffffffffffffffffffffffffffffffffffffffff166003600083815260200190815260200160002060000160009054906101000a900473ffffffffffffffffffffffffffffffffffffffff1673ffffffffffffffffffffffffffffffffffffffff1614611164576040517f08c379a000000000000000000000000000000000000000000000000000000000815260040161115b9061298f565b60405180910390fd5b600015156003600083815260200190815260200160002060080160009054906101000a900460ff161515146111ce576040517f08c379a00000000000000000000000000000000000000000000000000000000081526004016111c5906129fb565b60405180910390fd5b6000151560036000838152602001908152602001600020600a0160149054906101000a900460ff16151514611238576040517f08c379a000000000000000000000000000000000000000000000000000000000815260040161122f90612a67565b60405180910390fd5b600060036000838152602001908152602001600020600401549050600081600360008581526020019081526020016000206005015461127791906123f7565b9050600060646002548361128b91906123f7565b6112959190612ab6565b905060006003600086815260200190815260200160002060070154905060008183856112c19190612ae7565b6112cb9190612ae7565b905060003373ffffffffffffffffffffffffffffffffffffffff16826040516112f390612b4c565b60006040518083038185875af1925050503d8060008114611330576040519150601f19603f3d011682016040523d82523d6000602084013e611335565b606091505b5050905080611379576040517f08c379a000000000000000000000000000000000000000000000000000000000815260040161137090612bad565b60405180910390fd5b600160036000898152602001908152602001600020600a0160146101000a81548160ff02191690831515021790555050505050505050565b606060046000838152602001908152602001600020805480602002602001604051908101604052809291908181526020016000905b82821015611482578382906000526020600020906003020160405180606001604052908160008201548152602001600182015481526020016002820160009054906101000a900473ffffffffffffffffffffffffffffffffffffffff1673ffffffffffffffffffffffffffffffffffffffff1673ffffffffffffffffffffffffffffffffffffffff1681525050815260200190600101906113e6565b505050509050919050565b6114956119b5565b60008060009054906101000a900473ffffffffffffffffffffffffffffffffffffffff1673ffffffffffffffffffffffffffffffffffffffff16476040516114dc90612b4c565b60006040518083038185875af1925050503d8060008114611519576040519150601f19603f3d011682016040523d82523d6000602084013e61151e565b606091505b5050905080611562576040517f08c379a000000000000000000000000000000000000000000000000000000000815260040161155990612bad565b60405180910390fd5b50565b6003600082815260200190815260200160002060080160009054906101000a900460ff166115c8576040517f08c379a00000000000000000000000000000000000000000000000000000000081526004016115bf906123a8565b60405180910390fd5b6003600082815260200190815260200160002060060154600360008381526020019081526020016000206005015414611636576040517f08c379a000000000000000000000000000000000000000000000000000000000815260040161162d90612c19565b60405180910390fd5b600060036000838152602001908152602001600020600601544244600360008681526020019081526020016000206006015460405160200161167a93929190612c5a565b6040516020818303038152906040528051906020012060001c61169d9190612c97565b905060006004600084815260200190815260200160002082815481106116c6576116c56128ee565b5b906000526020600020906003020160020160009054906101000a900473ffffffffffffffffffffffffffffffffffffffff1690508060036000858152602001908152602001600020600a0160006101000a81548173ffffffffffffffffffffffffffffffffffffffff021916908373ffffffffffffffffffffffffffffffffffffffff16021790555060006003600085815260200190815260200160002060080160006101000a81548160ff02191690831515021790555060006003600085815260200190815260200160002060040154905060008160036000878152602001908152602001600020600501546117bd91906123f7565b905060006064600254836117d191906123f7565b6117db9190612ab6565b905060006003600088815260200190815260200160002060070154905060008060009054906101000a900473ffffffffffffffffffffffffffffffffffffffff1673ffffffffffffffffffffffffffffffffffffffff168360405161183f90612b4c565b60006040518083038185875af1925050503d806000811461187c576040519150601f19603f3d011682016040523d82523d6000602084013e611881565b606091505b50509050806118c5576040517f08c379a00000000000000000000000000000000000000000000000000000000081526004016118bc90612d14565b60405180910390fd5b60008673ffffffffffffffffffffffffffffffffffffffff16836040516118eb90612b4c565b60006040518083038185875af1925050503d8060008114611928576040519150601f19603f3d011682016040523d82523d6000602084013e61192d565b606091505b5050905080611971576040517f08c379a000000000000000000000000000000000000000000000000000000000815260040161196890612d80565b60405180910390fd5b7fb4d601e7092e672cbffcd1512cc6592c35b9947e1ebfeea7647231887a52244789886040516119a2929190612da0565b60405180910390a1505050505050505050565b60008054906101000a900473ffffffffffffffffffffffffffffffffffffffff1673ffffffffffffffffffffffffffffffffffffffff163373ffffffffffffffffffffffffffffffffffffffff1614611a43576040517f08c379a0000000000000000000000000000000000000000000000000000000008152600401611a3a90612e3b565b60405180910390fd5b565b604051806101800160405280600073ffffffffffffffffffffffffffffffffffffffff1681526020016000815260200160608152602001606081526020016000815260200160008152602001600081526020016000815260200160001515815260200160008152602001600073ffffffffffffffffffffffffffffffffffffffff1681526020016000151581525090565b60405180606001604052806000815260200160008152602001600073ffffffffffffffffffffffffffffffffffffffff1681525090565b6000604051905090565b600080fd5b600080fd5b6000819050919050565b611b3481611b21565b8114611b3f57600080fd5b50565b600081359050611b5181611b2b565b92915050565b60008060408385031215611b6e57611b6d611b17565b5b6000611b7c85828601611b42565b9250506020611b8d85828601611b42565b9150509250929050565b600080fd5b600080fd5b6000601f19601f8301169050919050565b7f4e487b7100000000000000000000000000000000000000000000000000000000600052604160045260246000fd5b611bea82611ba1565b810181811067ffffffffffffffff82111715611c0957611c08611bb2565b5b80604052505050565b6000611c1c611b0d565b9050611c288282611be1565b919050565b600067ffffffffffffffff821115611c4857611c47611bb2565b5b611c5182611ba1565b9050602081019050919050565b82818337600083830152505050565b6000611c80611c7b84611c2d565b611c12565b905082815260208101848484011115611c9c57611c9b611b9c565b5b611ca7848285611c5e565b509392505050565b600082601f830112611cc457611cc3611b97565b5b8135611cd4848260208601611c6d565b91505092915050565b600080600080600060a08688031215611cf957611cf8611b17565b5b600086013567ffffffffffffffff811115611d1757611d16611b1c565b5b611d2388828901611caf565b955050602086013567ffffffffffffffff811115611d4457611d43611b1c565b5b611d5088828901611caf565b9450506040611d6188828901611b42565b9350506060611d7288828901611b42565b9250506080611d8388828901611b42565b9150509295509295909350565b600073ffffffffffffffffffffffffffffffffffffffff82169050919050565b6000611dbb82611d90565b9050919050565b611dcb81611db0565b8114611dd657600080fd5b50565b600081359050611de881611dc2565b92915050565b600060208284031215611e0457611e03611b17565b5b6000611e1284828501611dd9565b91505092915050565b600081519050919050565b600082825260208201905092915050565b6000819050602082019050919050565b611e5081611db0565b82525050565b611e5f81611b21565b82525050565b600081519050919050565b600082825260208201905092915050565b60005b83811015611e9f578082015181840152602081019050611e84565b60008484015250505050565b6000611eb682611e65565b611ec08185611e70565b9350611ed0818560208601611e81565b611ed981611ba1565b840191505092915050565b60008115159050919050565b611ef981611ee4565b82525050565b600061018083016000830151611f186000860182611e47565b506020830151611f2b6020860182611e56565b5060408301518482036040860152611f438282611eab565b91505060608301518482036060860152611f5d8282611eab565b9150506080830151611f726080860182611e56565b5060a0830151611f8560a0860182611e56565b5060c0830151611f9860c0860182611e56565b5060e0830151611fab60e0860182611e56565b50610100830151611fc0610100860182611ef0565b50610120830151611fd5610120860182611e56565b50610140830151611fea610140860182611e47565b50610160830151611fff610160860182611ef0565b508091505092915050565b60006120168383611eff565b905092915050565b6000602082019050919050565b600061203682611e1b565b6120408185611e26565b93508360208202850161205285611e37565b8060005b8581101561208e578484038952815161206f858261200a565b945061207a8361201e565b925060208a01995050600181019050612056565b50829750879550505050505092915050565b600060208201905081810360008301526120ba818461202b565b905092915050565b6000602082840312156120d8576120d7611b17565b5b60006120e684828501611b42565b91505092915050565b6120f881611db0565b82525050565b61210781611b21565b82525050565b600082825260208201905092915050565b600061212982611e65565b612133818561210d565b9350612143818560208601611e81565b61214c81611ba1565b840191505092915050565b61216081611ee4565b82525050565b60006101808201905061217c600083018f6120ef565b612189602083018e6120fe565b818103604083015261219b818d61211e565b905081810360608301526121af818c61211e565b90506121be608083018b6120fe565b6121cb60a083018a6120fe565b6121d860c08301896120fe565b6121e560e08301886120fe565b6121f3610100830187612157565b6122016101208301866120fe565b61220f6101408301856120ef565b61221d610160830184612157565b9d9c50505050505050505050505050565b600060208201905061224360008301846120ef565b92915050565b600081519050919050565b600082825260208201905092915050565b6000819050602082019050919050565b60608201600082015161228b6000850182611e56565b50602082015161229e6020850182611e56565b5060408201516122b16040850182611e47565b50505050565b60006122c38383612275565b60608301905092915050565b6000602082019050919050565b60006122e782612249565b6122f18185612254565b93506122fc83612265565b8060005b8381101561232d57815161231488826122b7565b975061231f836122cf565b925050600181019050612300565b5085935050505092915050565b6000602082019050818103600083015261235481846122dc565b905092915050565b7f526166666c65206973206e6f7420616374697665000000000000000000000000600082015250565b600061239260148361210d565b915061239d8261235c565b602082019050919050565b600060208201905081810360008301526123c181612385565b9050919050565b7f4e487b7100000000000000000000000000000000000000000000000000000000600052601160045260246000fd5b600061240282611b21565b915061240d83611b21565b925082820261241b81611b21565b91508282048414831517612432576124316123c8565b5b5092915050565b7f496e76616c696420616d6f756e74000000000000000000000000000000000000600082015250565b600061246f600e8361210d565b915061247a82612439565b602082019050919050565b6000602082019050818103600083015261249e81612462565b9050919050565b60006124b082611b21565b91506124bb83611b21565b92508282019050808211156124d3576124d26123c8565b5b92915050565b7f4e6f7420656e6f756768207469636b6574730000000000000000000000000000600082015250565b600061250f60128361210d565b915061251a826124d9565b602082019050919050565b6000602082019050818103600083015261253e81612502565b9050919050565b600060608201905061255a60008301866120fe565b61256760208301856120ef565b61257460408301846120fe565b949350505050565b600061258782611b21565b91507fffffffffffffffffffffffffffffffffffffffffffffffffffffffffffffffff82036125b9576125b86123c8565b5b600182019050919050565b7f4e487b7100000000000000000000000000000000000000000000000000000000600052602260045260246000fd5b6000600282049050600182168061260b57607f821691505b60208210810361261e5761261d6125c4565b5b50919050565b60008190508160005260206000209050919050565b60006020601f8301049050919050565b600082821b905092915050565b6000600883026126867fffffffffffffffffffffffffffffffffffffffffffffffffffffffffffffffff82612649565b6126908683612649565b95508019841693508086168417925050509392505050565b6000819050919050565b60006126cd6126c86126c384611b21565b6126a8565b611b21565b9050919050565b6000819050919050565b6126e7836126b2565b6126fb6126f3826126d4565b848454612656565b825550505050565b600090565b612710612703565b61271b8184846126de565b505050565b5b8181101561273f57612734600082612708565b600181019050612721565b5050565b601f8211156127845761275581612624565b61275e84612639565b8101602085101561276d578190505b61278161277985612639565b830182612720565b50505b505050565b600082821c905092915050565b60006127a760001984600802612789565b1980831691505092915050565b60006127c08383612796565b9150826002028217905092915050565b6127d982611e65565b67ffffffffffffffff8111156127f2576127f1611bb2565b5b6127fc82546125f3565b612807828285612743565b600060209050601f83116001811461283a5760008415612828578287015190505b61283285826127b4565b86555061289a565b601f19841661284886612624565b60005b828110156128705784890151825560018201915060208501945060208101905061284b565b8683101561288d5784890151612889601f891682612796565b8355505b6001600288020188555050505b505050505050565b60006080820190506128b760008301876120fe565b81810360208301526128c9818661211e565b90506128d860408301856120fe565b6128e560608301846120fe565b95945050505050565b7f4e487b7100000000000000000000000000000000000000000000000000000000600052603260045260246000fd5b7f4f6e6c79206f776e65722063616e2077697468647261772074686520616d6f7560008201527f6e74000000000000000000000000000000000000000000000000000000000000602082015250565b600061297960228361210d565b91506129848261291d565b604082019050919050565b600060208201905081810360008301526129a88161296c565b9050919050565b7f526166666c65206973207374696c6c2061637469766500000000000000000000600082015250565b60006129e560168361210d565b91506129f0826129af565b602082019050919050565b60006020820190508181036000830152612a14816129d8565b9050919050565b7f416d6f756e7420616c72656164792077697468647261776e0000000000000000600082015250565b6000612a5160188361210d565b9150612a5c82612a1b565b602082019050919050565b60006020820190508181036000830152612a8081612a44565b9050919050565b7f4e487b7100000000000000000000000000000000000000000000000000000000600052601260045260246000fd5b6000612ac182611b21565b9150612acc83611b21565b925082612adc57612adb612a87565b5b828204905092915050565b6000612af282611b21565b9150612afd83611b21565b9250828203905081811115612b1557612b146123c8565b5b92915050565b600081905092915050565b50565b6000612b36600083612b1b565b9150612b4182612b26565b600082019050919050565b6000612b5782612b29565b9150819050919050565b7f5769746864726177206661696c65640000000000000000000000000000000000600082015250565b6000612b97600f8361210d565b9150612ba282612b61565b602082019050919050565b60006020820190508181036000830152612bc681612b8a565b9050919050565b7f526166666c65206973206e6f7420636f6d706c65746500000000000000000000600082015250565b6000612c0360168361210d565b9150612c0e82612bcd565b602082019050919050565b60006020820190508181036000830152612c3281612bf6565b9050919050565b6000819050919050565b612c54612c4f82611b21565b612c39565b82525050565b6000612c668286612c43565b602082019150612c768285612c43565b602082019150612c868284612c43565b602082019150819050949350505050565b6000612ca282611b21565b9150612cad83611b21565b925082612cbd57612cbc612a87565b5b828206905092915050565b7f466565207472616e7366657220746f206f776e6572206661696c656400000000600082015250565b6000612cfe601c8361210d565b9150612d0982612cc8565b602082019050919050565b60006020820190508181036000830152612d2d81612cf1565b9050919050565b7f57696e6e6572207472616e73666572206661696c656400000000000000000000600082015250565b6000612d6a60168361210d565b9150612d7582612d34565b602082019050919050565b60006020820190508181036000830152612d9981612d5d565b9050919050565b6000604082019050612db560008301856120fe565b612dc260208301846120ef565b9392505050565b7f4f6e6c79206f776e65722063616e2063616c6c20746869732066756e6374696f60008201527f6e00000000000000000000000000000000000000000000000000000000000000602082015250565b6000612e2560218361210d565b9150612e3082612dc9565b604082019050919050565b60006020820190508181036000830152612e5481612e18565b905091905056fea2646970667358221220a8776d0749412ef3fbc8763cd5007b8b1f8f75860f064b54491330cf8a9ea7d464736f6c63430008180033",
  "linkReferences": {},
  "deployedLinkReferences": {}
}