{
  "_format": "hh-sol-artifact-1",
  "contractName": "RaffleV2",
  "sourceName": "contracts/Raffle.sol",
  "abi": [
    {
      "inputs": [],
      "stateMutability": "nonpayable",
      "type": "constructor"
    },
    {
      "anonymous": false,
      "inputs": [
        {
          "indexed": false,
          "internalType": "uint256",
          "name": "id",
          "type": "uint256"
        },
        {
          "indexed": false,
          "internalType": "string",
          "name": "name",
          "type": "string"
        },
        {
          "indexed": false,
          "internalType": "uint256",
          "name": "ticketPrice",
          "type": "uint256"
        },
        {
          "indexed": false,
          "internalType": "uint256",
          "name": "ticketCount",
          "type": "uint256"
        }
      ],
      "name": "RaffleCreated",
      "type": "event"
    },
    {
      "anonymous": false,
      "inputs": [
        {
          "indexed": false,
          "internalType": "uint256",
          "name": "id",
          "type": "uint256"
        },
        {
          "indexed": false,
          "internalType": "address",
          "name": "winner",
          "type": "address"
        },
        {
          "indexed": false,
          "internalType": "uint256",
          "name": "numberSelected",
          "type": "uint256"
        }
      ],
      "name": "RaffleWinner",
      "type": "event"
    },
    {
      "anonymous": false,
      "inputs": [
        {
          "indexed": false,
          "internalType": "uint256",
          "name": "id",
          "type": "uint256"
        },
        {
          "indexed": false,
          "internalType": "address",
          "name": "participant",
          "type": "address"
        },
        {
          "indexed": false,
          "internalType": "uint256",
          "name": "ticketCount",
          "type": "uint256"
        }
      ],
      "name": "TicketBought",
      "type": "event"
    },
    {
      "inputs": [
        {
          "internalType": "uint256",
          "name": "_raffleId",
          "type": "uint256"
        },
        {
          "internalType": "uint256",
          "name": "_ticketCount",
          "type": "uint256"
        }
      ],
      "name": "buyTicket",
      "outputs": [],
      "stateMutability": "payable",
      "type": "function"
    },
    {
      "inputs": [
        {
          "internalType": "string",
          "name": "_name",
          "type": "string"
        },
        {
          "internalType": "string",
          "name": "_image",
          "type": "string"
        },
        {
          "internalType": "uint256",
          "name": "_ticketPrice",
          "type": "uint256"
        },
        {
          "internalType": "uint256",
          "name": "_ticketCount",
          "type": "uint256"
        },
        {
          "internalType": "uint256",
          "name": "_totalAmountToWin",
          "type": "uint256"
        }
      ],
      "name": "createRaffle",
      "outputs": [],
      "stateMutability": "nonpayable",
      "type": "function"
    },
    {
      "inputs": [
        {
          "internalType": "address",
          "name": "_participant",
          "type": "address"
        }
      ],
      "name": "getParticipantTickets",
      "outputs": [
        {
          "components": [
            {
              "internalType": "uint256",
              "name": "ticketNumber",
              "type": "uint256"
            },
            {
              "internalType": "uint256",
              "name": "raffleId",
              "type": "uint256"
            },
            {
              "internalType": "address",
              "name": "participant",
              "type": "address"
            },
            {
              "internalType": "uint256",
              "name": "createdAt",
              "type": "uint256"
            },
            {
              "components": [
                {
                  "internalType": "address",
                  "name": "owner",
                  "type": "address"
                },
                {
                  "internalType": "uint256",
                  "name": "id",
                  "type": "uint256"
                },
                {
                  "internalType": "string",
                  "name": "name",
                  "type": "string"
                },
                {
                  "internalType": "string",
                  "name": "image",
                  "type": "string"
                },
                {
                  "internalType": "uint256",
                  "name": "ticketPrice",
                  "type": "uint256"
                },
                {
                  "internalType": "uint256",
                  "name": "ticketCount",
                  "type": "uint256"
                },
                {
                  "internalType": "uint256",
                  "name": "ticketSold",
                  "type": "uint256"
                },
                {
                  "internalType": "uint256",
                  "name": "totalAmountToWin",
                  "type": "uint256"
                },
                {
                  "internalType": "bool",
                  "name": "isActive",
                  "type": "bool"
                },
                {
                  "internalType": "uint256",
                  "name": "createadAt",
                  "type": "uint256"
                },
                {
                  "internalType": "address",
                  "name": "winner",
                  "type": "address"
                },
                {
                  "internalType": "bool",
                  "name": "isWhidrawn",
                  "type": "bool"
                }
              ],
              "internalType": "struct RaffleV2.Raffle",
              "name": "raffleinfo",
              "type": "tuple"
            }
          ],
          "internalType": "struct RaffleV2.Ticket[]",
          "name": "",
          "type": "tuple[]"
        }
      ],
      "stateMutability": "view",
      "type": "function"
    },
    {
      "inputs": [
        {
          "internalType": "uint256",
          "name": "_raffleId",
          "type": "uint256"
        }
      ],
      "name": "getRaffleTickets",
      "outputs": [
        {
          "components": [
            {
              "internalType": "uint256",
              "name": "ticketNumber",
              "type": "uint256"
            },
            {
              "internalType": "uint256",
              "name": "raffleId",
              "type": "uint256"
            },
            {
              "internalType": "address",
              "name": "participant",
              "type": "address"
            },
            {
              "internalType": "uint256",
              "name": "createdAt",
              "type": "uint256"
            },
            {
              "components": [
                {
                  "internalType": "address",
                  "name": "owner",
                  "type": "address"
                },
                {
                  "internalType": "uint256",
                  "name": "id",
                  "type": "uint256"
                },
                {
                  "internalType": "string",
                  "name": "name",
                  "type": "string"
                },
                {
                  "internalType": "string",
                  "name": "image",
                  "type": "string"
                },
                {
                  "internalType": "uint256",
                  "name": "ticketPrice",
                  "type": "uint256"
                },
                {
                  "internalType": "uint256",
                  "name": "ticketCount",
                  "type": "uint256"
                },
                {
                  "internalType": "uint256",
                  "name": "ticketSold",
                  "type": "uint256"
                },
                {
                  "internalType": "uint256",
                  "name": "totalAmountToWin",
                  "type": "uint256"
                },
                {
                  "internalType": "bool",
                  "name": "isActive",
                  "type": "bool"
                },
                {
                  "internalType": "uint256",
                  "name": "createadAt",
                  "type": "uint256"
                },
                {
                  "internalType": "address",
                  "name": "winner",
                  "type": "address"
                },
                {
                  "internalType": "bool",
                  "name": "isWhidrawn",
                  "type": "bool"
                }
              ],
              "internalType": "struct RaffleV2.Raffle",
              "name": "raffleinfo",
              "type": "tuple"
            }
          ],
          "internalType": "struct RaffleV2.Ticket[]",
          "name": "",
          "type": "tuple[]"
        }
      ],
      "stateMutability": "view",
      "type": "function"
    },
    {
      "inputs": [
        {
          "internalType": "address",
          "name": "_address",
          "type": "address"
        }
      ],
      "name": "getRaflle",
      "outputs": [
        {
          "components": [
            {
              "internalType": "address",
              "name": "owner",
              "type": "address"
            },
            {
              "internalType": "uint256",
              "name": "id",
              "type": "uint256"
            },
            {
              "internalType": "string",
              "name": "name",
              "type": "string"
            },
            {
              "internalType": "string",
              "name": "image",
              "type": "string"
            },
            {
              "internalType": "uint256",
              "name": "ticketPrice",
              "type": "uint256"
            },
            {
              "internalType": "uint256",
              "name": "ticketCount",
              "type": "uint256"
            },
            {
              "internalType": "uint256",
              "name": "ticketSold",
              "type": "uint256"
            },
            {
              "internalType": "uint256",
              "name": "totalAmountToWin",
              "type": "uint256"
            },
            {
              "internalType": "bool",
              "name": "isActive",
              "type": "bool"
            },
            {
              "internalType": "uint256",
              "name": "createadAt",
              "type": "uint256"
            },
            {
              "internalType": "address",
              "name": "winner",
              "type": "address"
            },
            {
              "internalType": "bool",
              "name": "isWhidrawn",
              "type": "bool"
            }
          ],
          "internalType": "struct RaffleV2.Raffle[]",
          "name": "",
          "type": "tuple[]"
        }
      ],
      "stateMutability": "view",
      "type": "function"
    },
    {
      "inputs": [],
      "name": "owner",
      "outputs": [
        {
          "internalType": "address",
          "name": "",
          "type": "address"
        }
      ],
      "stateMutability": "view",
      "type": "function"
    },
    {
      "inputs": [
        {
          "internalType": "uint256",
          "name": "",
          "type": "uint256"
        }
      ],
      "name": "raffles",
      "outputs": [
        {
          "internalType": "address",
          "name": "owner",
          "type": "address"
        },
        {
          "internalType": "uint256",
          "name": "id",
          "type": "uint256"
        },
        {
          "internalType": "string",
          "name": "name",
          "type": "string"
        },
        {
          "internalType": "string",
          "name": "image",
          "type": "string"
        },
        {
          "internalType": "uint256",
          "name": "ticketPrice",
          "type": "uint256"
        },
        {
          "internalType": "uint256",
          "name": "ticketCount",
          "type": "uint256"
        },
        {
          "internalType": "uint256",
          "name": "ticketSold",
          "type": "uint256"
        },
        {
          "internalType": "uint256",
          "name": "totalAmountToWin",
          "type": "uint256"
        },
        {
          "internalType": "bool",
          "name": "isActive",
          "type": "bool"
        },
        {
          "internalType": "uint256",
          "name": "createadAt",
          "type": "uint256"
        },
        {
          "internalType": "address",
          "name": "winner",
          "type": "address"
        },
        {
          "internalType": "bool",
          "name": "isWhidrawn",
          "type": "bool"
        }
      ],
      "stateMutability": "view",
      "type": "function"
    },
    {
      "inputs": [
        {
          "internalType": "address",
          "name": "tokenAddress",
          "type": "address"
        },
        {
          "internalType": "uint256",
          "name": "totalCost",
          "type": "uint256"
        }
      ],
      "name": "sendToken",
      "outputs": [],
      "stateMutability": "nonpayable",
      "type": "function"
    },
    {
      "inputs": [
        {
          "internalType": "uint256",
          "name": "_fee",
          "type": "uint256"
        }
      ],
      "name": "setFee",
      "outputs": [],
      "stateMutability": "nonpayable",
      "type": "function"
    },
    {
      "inputs": [],
      "name": "withdrawFeeAmount",
      "outputs": [],
      "stateMutability": "nonpayable",
      "type": "function"
    },
    {
      "inputs": [
        {
          "internalType": "uint256",
          "name": "_raffleId",
          "type": "uint256"
        }
      ],
      "name": "withdrawRaffleAmount",
      "outputs": [],
      "stateMutability": "nonpayable",
      "type": "function"
    }
  ],
  "bytecode": "0x60806040526000600155600a60025534801561001a57600080fd5b50336000806101000a81548173ffffffffffffffffffffffffffffffffffffffff021916908373ffffffffffffffffffffffffffffffffffffffff160217905550613d508061006a6000396000f3fe60806040526004361061009c5760003560e01c806369fe0e2d1161006457806369fe0e2d146101945780638da5cb5b146101bd578063a410a7f2146101e8578063e856663414610225578063f41bc95e1461024e578063fac9b99c1461028b5761009c565b8063298ec208146100a157806338ebda8b146100bd578063412664ae146100e657806353b6222f1461010f5780635d4bc0ce1461014c575b600080fd5b6100bb60048036038101906100b69190612827565b6102a2565b005b3480156100c957600080fd5b506100e460048036038101906100df91906129ad565b610956565b005b3480156100f257600080fd5b5061010d60048036038101906101089190612abe565b610b8e565b005b34801561011b57600080fd5b5061013660048036038101906101319190612afe565b610d14565b6040516101439190612db0565b60405180910390f35b34801561015857600080fd5b50610173600480360381019061016e9190612dd2565b611132565b60405161018b9c9b9a99989796959493929190612e76565b60405180910390f35b3480156101a057600080fd5b506101bb60048036038101906101b69190612dd2565b6112fc565b005b3480156101c957600080fd5b506101d261130e565b6040516101df9190612f3e565b60405180910390f35b3480156101f457600080fd5b5061020f600480360381019061020a9190612afe565b611332565b60405161021c9190613091565b60405180910390f35b34801561023157600080fd5b5061024c60048036038101906102479190612dd2565b611b19565b005b34801561025a57600080fd5b5061027560048036038101906102709190612dd2565b611e0a565b6040516102829190613091565b60405180910390f35b34801561029757600080fd5b506102a0612147565b005b6003600083815260200190815260200160002060080160009054906101000a900460ff16610305576040517f08c379a00000000000000000000000000000000000000000000000000000000081526004016102fc906130ff565b60405180910390fd5b806003600084815260200190815260200160002060040154610327919061314e565b3414610368576040517f08c379a000000000000000000000000000000000000000000000000000000000815260040161035f906131dc565b60405180910390fd5b80600360008481526020019081526020016000206006015461038a91906131fc565b600360008481526020019081526020016000206005015410156103e2576040517f08c379a00000000000000000000000000000000000000000000000000000000081526004016103d99061327c565b60405180910390fd5b60005b818110156108ac57600460008481526020019081526020016000206040518060a00160405280600184600360008981526020019081526020016000206006015461042f91906131fc565b61043991906131fc565b81526020018581526020013373ffffffffffffffffffffffffffffffffffffffff16815260200142815260200160036000878152602001908152602001600020604051806101800160405290816000820160009054906101000a900473ffffffffffffffffffffffffffffffffffffffff1673ffffffffffffffffffffffffffffffffffffffff1673ffffffffffffffffffffffffffffffffffffffff168152602001600182015481526020016002820180546104f5906132cb565b80601f0160208091040260200160405190810160405280929190818152602001828054610521906132cb565b801561056e5780601f106105435761010080835404028352916020019161056e565b820191906000526020600020905b81548152906001019060200180831161055157829003601f168201915b50505050508152602001600382018054610587906132cb565b80601f01602080910402602001604051908101604052809291908181526020018280546105b3906132cb565b80156106005780601f106105d557610100808354040283529160200191610600565b820191906000526020600020905b8154815290600101906020018083116105e357829003601f168201915b50505050508152602001600482015481526020016005820154815260200160068201548152602001600782015481526020016008820160009054906101000a900460ff1615151515815260200160098201548152602001600a820160009054906101000a900473ffffffffffffffffffffffffffffffffffffffff1673ffffffffffffffffffffffffffffffffffffffff1673ffffffffffffffffffffffffffffffffffffffff168152602001600a820160149054906101000a900460ff16151515158152505081525090806001815401808255809150506001900390600052602060002090600f0201600090919091909150600082015181600001556020820151816001015560408201518160020160006101000a81548173ffffffffffffffffffffffffffffffffffffffff021916908373ffffffffffffffffffffffffffffffffffffffff1602179055506060820151816003015560808201518160040160008201518160000160006101000a81548173ffffffffffffffffffffffffffffffffffffffff021916908373ffffffffffffffffffffffffffffffffffffffff1602179055506020820151816001015560408201518160020190816107c791906134a8565b5060608201518160030190816107dd91906134a8565b506080820151816004015560a0820151816005015560c0820151816006015560e082015181600701556101008201518160080160006101000a81548160ff021916908315150217905550610120820151816009015561014082015181600a0160006101000a81548173ffffffffffffffffffffffffffffffffffffffff021916908373ffffffffffffffffffffffffffffffffffffffff16021790555061016082015181600a0160146101000a81548160ff0219169083151502179055505050505080806001019150506103e5565b50806003600084815260200190815260200160002060060160008282546108d391906131fc565b925050819055507f913d09b391f64143215d9312fd7e8ecaa06001c646789c9d2109dc515bc34fad82338360405161090d9392919061357a565b60405180910390a16003600083815260200190815260200160002060060154600360008481526020019081526020016000206005015403610952576109518261221f565b5b5050565b60016000815480929190610969906135b1565b91905055506040518061018001604052803373ffffffffffffffffffffffffffffffffffffffff168152602001600154815260200186815260200185815260200184815260200183815260200160008152602001828152602001600115158152602001428152602001600073ffffffffffffffffffffffffffffffffffffffff1681526020016000151581525060036000600154815260200190815260200160002060008201518160000160006101000a81548173ffffffffffffffffffffffffffffffffffffffff021916908373ffffffffffffffffffffffffffffffffffffffff160217905550602082015181600101556040820151816002019081610a7191906134a8565b506060820151816003019081610a8791906134a8565b506080820151816004015560a0820151816005015560c0820151816006015560e082015181600701556101008201518160080160006101000a81548160ff021916908315150217905550610120820151816009015561014082015181600a0160006101000a81548173ffffffffffffffffffffffffffffffffffffffff021916908373ffffffffffffffffffffffffffffffffffffffff16021790555061016082015181600a0160146101000a81548160ff0219169083151502179055509050507fa67a3ae202f19c155f33ec43781f888d5b6b6ddf7467ff4893647ece828a26b2600154868585604051610b7f94939291906135f9565b60405180910390a15050505050565b60008290508073ffffffffffffffffffffffffffffffffffffffff1663095ea7b330846040518363ffffffff1660e01b8152600401610bce929190613645565b6020604051808303816000875af1158015610bed573d6000803e3d6000fd5b505050506040513d601f19601f82011682018060405250810190610c11919061369a565b610c50576040517f08c379a0000000000000000000000000000000000000000000000000000000008152600401610c4790613713565b60405180910390fd5b8073ffffffffffffffffffffffffffffffffffffffff166323b872dd3330856040518463ffffffff1660e01b8152600401610c8d93929190613733565b6020604051808303816000875af1158015610cac573d6000803e3d6000fd5b505050506040513d601f19601f82011682018060405250810190610cd0919061369a565b610d0f576040517f08c379a0000000000000000000000000000000000000000000000000000000008152600401610d06906137b6565b60405180910390fd5b505050565b6060600080600190505b6001548111610db2578373ffffffffffffffffffffffffffffffffffffffff166003600083815260200190815260200160002060000160009054906101000a900473ffffffffffffffffffffffffffffffffffffffff1673ffffffffffffffffffffffffffffffffffffffff1603610d9f578180610d9b906135b1565b9250505b8080610daa906135b1565b915050610d1e565b5060008167ffffffffffffffff811115610dcf57610dce612882565b5b604051908082528060200260200182016040528015610e0857816020015b610df5612701565b815260200190600190039081610ded5790505b509050600080600190505b6001548111611126578573ffffffffffffffffffffffffffffffffffffffff166003600083815260200190815260200160002060000160009054906101000a900473ffffffffffffffffffffffffffffffffffffffff1673ffffffffffffffffffffffffffffffffffffffff16036111135760036000828152602001908152602001600020604051806101800160405290816000820160009054906101000a900473ffffffffffffffffffffffffffffffffffffffff1673ffffffffffffffffffffffffffffffffffffffff1673ffffffffffffffffffffffffffffffffffffffff16815260200160018201548152602001600282018054610f14906132cb565b80601f0160208091040260200160405190810160405280929190818152602001828054610f40906132cb565b8015610f8d5780601f10610f6257610100808354040283529160200191610f8d565b820191906000526020600020905b815481529060010190602001808311610f7057829003601f168201915b50505050508152602001600382018054610fa6906132cb565b80601f0160208091040260200160405190810160405280929190818152602001828054610fd2906132cb565b801561101f5780601f10610ff45761010080835404028352916020019161101f565b820191906000526020600020905b81548152906001019060200180831161100257829003601f168201915b50505050508152602001600482015481526020016005820154815260200160068201548152602001600782015481526020016008820160009054906101000a900460ff1615151515815260200160098201548152602001600a820160009054906101000a900473ffffffffffffffffffffffffffffffffffffffff1673ffffffffffffffffffffffffffffffffffffffff1673ffffffffffffffffffffffffffffffffffffffff168152602001600a820160149054906101000a900460ff1615151515815250508383815181106110f9576110f86137d6565b5b6020026020010181905250818061110f906135b1565b9250505b808061111e906135b1565b915050610e13565b50819350505050919050565b60036020528060005260406000206000915090508060000160009054906101000a900473ffffffffffffffffffffffffffffffffffffffff1690806001015490806002018054611181906132cb565b80601f01602080910402602001604051908101604052809291908181526020018280546111ad906132cb565b80156111fa5780601f106111cf576101008083540402835291602001916111fa565b820191906000526020600020905b8154815290600101906020018083116111dd57829003601f168201915b50505050509080600301805461120f906132cb565b80601f016020809104026020016040519081016040528092919081815260200182805461123b906132cb565b80156112885780601f1061125d57610100808354040283529160200191611288565b820191906000526020600020905b81548152906001019060200180831161126b57829003601f168201915b5050505050908060040154908060050154908060060154908060070154908060080160009054906101000a900460ff169080600901549080600a0160009054906101000a900473ffffffffffffffffffffffffffffffffffffffff169080600a0160149054906101000a900460ff1690508c565b611304612671565b8060028190555050565b60008054906101000a900473ffffffffffffffffffffffffffffffffffffffff1681565b6060600080600190505b600154811161141f5760005b600460008381526020019081526020016000208054905081101561140b578473ffffffffffffffffffffffffffffffffffffffff166004600084815260200190815260200160002082815481106113a2576113a16137d6565b5b90600052602060002090600f020160020160009054906101000a900473ffffffffffffffffffffffffffffffffffffffff1673ffffffffffffffffffffffffffffffffffffffff16036113fe5782806113fa906135b1565b9350505b8080600101915050611348565b508080611417906135b1565b91505061133c565b5060008167ffffffffffffffff81111561143c5761143b612882565b5b60405190808252806020026020018201604052801561147557816020015b611462612792565b81526020019060019003908161145a5790505b509050600080600190505b6001548111611b0d5760005b6004600083815260200190815260200160002080549050811015611af9578673ffffffffffffffffffffffffffffffffffffffff166004600084815260200190815260200160002082815481106114e6576114e56137d6565b5b90600052602060002090600f020160020160009054906101000a900473ffffffffffffffffffffffffffffffffffffffff1673ffffffffffffffffffffffffffffffffffffffff1603611aec57600460008381526020019081526020016000208181548110611558576115576137d6565b5b90600052602060002090600f02016040518060a001604052908160008201548152602001600182015481526020016002820160009054906101000a900473ffffffffffffffffffffffffffffffffffffffff1673ffffffffffffffffffffffffffffffffffffffff1673ffffffffffffffffffffffffffffffffffffffff1681526020016003820154815260200160048201604051806101800160405290816000820160009054906101000a900473ffffffffffffffffffffffffffffffffffffffff1673ffffffffffffffffffffffffffffffffffffffff1673ffffffffffffffffffffffffffffffffffffffff16815260200160018201548152602001600282018054611666906132cb565b80601f0160208091040260200160405190810160405280929190818152602001828054611692906132cb565b80156116df5780601f106116b4576101008083540402835291602001916116df565b820191906000526020600020905b8154815290600101906020018083116116c257829003601f168201915b505050505081526020016003820180546116f8906132cb565b80601f0160208091040260200160405190810160405280929190818152602001828054611724906132cb565b80156117715780601f1061174657610100808354040283529160200191611771565b820191906000526020600020905b81548152906001019060200180831161175457829003601f168201915b50505050508152602001600482015481526020016005820154815260200160068201548152602001600782015481526020016008820160009054906101000a900460ff1615151515815260200160098201548152602001600a820160009054906101000a900473ffffffffffffffffffffffffffffffffffffffff1673ffffffffffffffffffffffffffffffffffffffff1673ffffffffffffffffffffffffffffffffffffffff168152602001600a820160149054906101000a900460ff1615151515815250508152505084848151811061184f5761184e6137d6565b5b602002602001018190525060036000838152602001908152602001600020604051806101800160405290816000820160009054906101000a900473ffffffffffffffffffffffffffffffffffffffff1673ffffffffffffffffffffffffffffffffffffffff1673ffffffffffffffffffffffffffffffffffffffff168152602001600182015481526020016002820180546118e9906132cb565b80601f0160208091040260200160405190810160405280929190818152602001828054611915906132cb565b80156119625780601f1061193757610100808354040283529160200191611962565b820191906000526020600020905b81548152906001019060200180831161194557829003601f168201915b5050505050815260200160038201805461197b906132cb565b80601f01602080910402602001604051908101604052809291908181526020018280546119a7906132cb565b80156119f45780601f106119c9576101008083540402835291602001916119f4565b820191906000526020600020905b8154815290600101906020018083116119d757829003601f168201915b50505050508152602001600482015481526020016005820154815260200160068201548152602001600782015481526020016008820160009054906101000a900460ff1615151515815260200160098201548152602001600a820160009054906101000a900473ffffffffffffffffffffffffffffffffffffffff1673ffffffffffffffffffffffffffffffffffffffff1673ffffffffffffffffffffffffffffffffffffffff168152602001600a820160149054906101000a900460ff161515151581525050848481518110611ace57611acd6137d6565b5b6020026020010151608001819052508280611ae8906135b1565b9350505b808060010191505061148c565b508080611b05906135b1565b915050611480565b50819350505050919050565b3373ffffffffffffffffffffffffffffffffffffffff166003600083815260200190815260200160002060000160009054906101000a900473ffffffffffffffffffffffffffffffffffffffff1673ffffffffffffffffffffffffffffffffffffffff1614611bbd576040517f08c379a0000000000000000000000000000000000000000000000000000000008152600401611bb490613877565b60405180910390fd5b600015156003600083815260200190815260200160002060080160009054906101000a900460ff16151514611c27576040517f08c379a0000000000000000000000000000000000000000000000000000000008152600401611c1e906138e3565b60405180910390fd5b6000151560036000838152602001908152602001600020600a0160149054906101000a900460ff16151514611c91576040517f08c379a0000000000000000000000000000000000000000000000000000000008152600401611c889061394f565b60405180910390fd5b6000600360008381526020019081526020016000206004015490506000816003600085815260200190815260200160002060050154611cd0919061314e565b90506000606460025483611ce4919061314e565b611cee919061399e565b90506000600360008681526020019081526020016000206007015490506000818385611d1a91906139cf565b611d2491906139cf565b905060003373ffffffffffffffffffffffffffffffffffffffff1682604051611d4c90613a34565b60006040518083038185875af1925050503d8060008114611d89576040519150601f19603f3d011682016040523d82523d6000602084013e611d8e565b606091505b5050905080611dd2576040517f08c379a0000000000000000000000000000000000000000000000000000000008152600401611dc990613a95565b60405180910390fd5b600160036000898152602001908152602001600020600a0160146101000a81548160ff02191690831515021790555050505050505050565b606060046000838152602001908152602001600020805480602002602001604051908101604052809291908181526020016000905b8282101561213c57838290600052602060002090600f02016040518060a001604052908160008201548152602001600182015481526020016002820160009054906101000a900473ffffffffffffffffffffffffffffffffffffffff1673ffffffffffffffffffffffffffffffffffffffff1673ffffffffffffffffffffffffffffffffffffffff1681526020016003820154815260200160048201604051806101800160405290816000820160009054906101000a900473ffffffffffffffffffffffffffffffffffffffff1673ffffffffffffffffffffffffffffffffffffffff1673ffffffffffffffffffffffffffffffffffffffff16815260200160018201548152602001600282018054611f57906132cb565b80601f0160208091040260200160405190810160405280929190818152602001828054611f83906132cb565b8015611fd05780601f10611fa557610100808354040283529160200191611fd0565b820191906000526020600020905b815481529060010190602001808311611fb357829003601f168201915b50505050508152602001600382018054611fe9906132cb565b80601f0160208091040260200160405190810160405280929190818152602001828054612015906132cb565b80156120625780601f1061203757610100808354040283529160200191612062565b820191906000526020600020905b81548152906001019060200180831161204557829003601f168201915b50505050508152602001600482015481526020016005820154815260200160068201548152602001600782015481526020016008820160009054906101000a900460ff1615151515815260200160098201548152602001600a820160009054906101000a900473ffffffffffffffffffffffffffffffffffffffff1673ffffffffffffffffffffffffffffffffffffffff1673ffffffffffffffffffffffffffffffffffffffff168152602001600a820160149054906101000a900460ff1615151515815250508152505081526020019060010190611e3f565b505050509050919050565b61214f612671565b60008060009054906101000a900473ffffffffffffffffffffffffffffffffffffffff1673ffffffffffffffffffffffffffffffffffffffff164760405161219690613a34565b60006040518083038185875af1925050503d80600081146121d3576040519150601f19603f3d011682016040523d82523d6000602084013e6121d8565b606091505b505090508061221c576040517f08c379a000000000000000000000000000000000000000000000000000000000815260040161221390613a95565b60405180910390fd5b50565b6003600082815260200190815260200160002060080160009054906101000a900460ff16612282576040517f08c379a0000000000000000000000000000000000000000000000000000000008152600401612279906130ff565b60405180910390fd5b60036000828152602001908152602001600020600601546003600083815260200190815260200160002060050154146122f0576040517f08c379a00000000000000000000000000000000000000000000000000000000081526004016122e790613b01565b60405180910390fd5b600060036000838152602001908152602001600020600601544244600360008681526020019081526020016000206006015460405160200161233493929190613b42565b6040516020818303038152906040528051906020012060001c6123579190613b7f565b905060006004600084815260200190815260200160002082815481106123805761237f6137d6565b5b90600052602060002090600f020160020160009054906101000a900473ffffffffffffffffffffffffffffffffffffffff1690508060036000858152602001908152602001600020600a0160006101000a81548173ffffffffffffffffffffffffffffffffffffffff021916908373ffffffffffffffffffffffffffffffffffffffff16021790555060006003600085815260200190815260200160002060080160006101000a81548160ff0219169083151502179055506000600360008581526020019081526020016000206004015490506000816003600087815260200190815260200160002060050154612477919061314e565b9050600060646002548361248b919061314e565b612495919061399e565b905060006003600088815260200190815260200160002060070154905060008060009054906101000a900473ffffffffffffffffffffffffffffffffffffffff1673ffffffffffffffffffffffffffffffffffffffff16836040516124f990613a34565b60006040518083038185875af1925050503d8060008114612536576040519150601f19603f3d011682016040523d82523d6000602084013e61253b565b606091505b505090508061257f576040517f08c379a000000000000000000000000000000000000000000000000000000000815260040161257690613bfc565b60405180910390fd5b60008673ffffffffffffffffffffffffffffffffffffffff16836040516125a590613a34565b60006040518083038185875af1925050503d80600081146125e2576040519150601f19603f3d011682016040523d82523d6000602084013e6125e7565b606091505b505090508061262b576040517f08c379a000000000000000000000000000000000000000000000000000000000815260040161262290613c68565b60405180910390fd5b7fb7f339c4a7aad4a1b47704005283a1a2cdec75bbd915bf5522652e90e98055f489888a60405161265e9392919061357a565b60405180910390a1505050505050505050565b60008054906101000a900473ffffffffffffffffffffffffffffffffffffffff1673ffffffffffffffffffffffffffffffffffffffff163373ffffffffffffffffffffffffffffffffffffffff16146126ff576040517f08c379a00000000000000000000000000000000000000000000000000000000081526004016126f690613cfa565b60405180910390fd5b565b604051806101800160405280600073ffffffffffffffffffffffffffffffffffffffff1681526020016000815260200160608152602001606081526020016000815260200160008152602001600081526020016000815260200160001515815260200160008152602001600073ffffffffffffffffffffffffffffffffffffffff1681526020016000151581525090565b6040518060a001604052806000815260200160008152602001600073ffffffffffffffffffffffffffffffffffffffff168152602001600081526020016127d7612701565b81525090565b6000604051905090565b600080fd5b600080fd5b6000819050919050565b612804816127f1565b811461280f57600080fd5b50565b600081359050612821816127fb565b92915050565b6000806040838503121561283e5761283d6127e7565b5b600061284c85828601612812565b925050602061285d85828601612812565b9150509250929050565b600080fd5b600080fd5b6000601f19601f8301169050919050565b7f4e487b7100000000000000000000000000000000000000000000000000000000600052604160045260246000fd5b6128ba82612871565b810181811067ffffffffffffffff821117156128d9576128d8612882565b5b80604052505050565b60006128ec6127dd565b90506128f882826128b1565b919050565b600067ffffffffffffffff82111561291857612917612882565b5b61292182612871565b9050602081019050919050565b82818337600083830152505050565b600061295061294b846128fd565b6128e2565b90508281526020810184848401111561296c5761296b61286c565b5b61297784828561292e565b509392505050565b600082601f83011261299457612993612867565b5b81356129a484826020860161293d565b91505092915050565b600080600080600060a086880312156129c9576129c86127e7565b5b600086013567ffffffffffffffff8111156129e7576129e66127ec565b5b6129f38882890161297f565b955050602086013567ffffffffffffffff811115612a1457612a136127ec565b5b612a208882890161297f565b9450506040612a3188828901612812565b9350506060612a4288828901612812565b9250506080612a5388828901612812565b9150509295509295909350565b600073ffffffffffffffffffffffffffffffffffffffff82169050919050565b6000612a8b82612a60565b9050919050565b612a9b81612a80565b8114612aa657600080fd5b50565b600081359050612ab881612a92565b92915050565b60008060408385031215612ad557612ad46127e7565b5b6000612ae385828601612aa9565b9250506020612af485828601612812565b9150509250929050565b600060208284031215612b1457612b136127e7565b5b6000612b2284828501612aa9565b91505092915050565b600081519050919050565b600082825260208201905092915050565b6000819050602082019050919050565b612b6081612a80565b82525050565b612b6f816127f1565b82525050565b600081519050919050565b600082825260208201905092915050565b60005b83811015612baf578082015181840152602081019050612b94565b60008484015250505050565b6000612bc682612b75565b612bd08185612b80565b9350612be0818560208601612b91565b612be981612871565b840191505092915050565b60008115159050919050565b612c0981612bf4565b82525050565b600061018083016000830151612c286000860182612b57565b506020830151612c3b6020860182612b66565b5060408301518482036040860152612c538282612bbb565b91505060608301518482036060860152612c6d8282612bbb565b9150506080830151612c826080860182612b66565b5060a0830151612c9560a0860182612b66565b5060c0830151612ca860c0860182612b66565b5060e0830151612cbb60e0860182612b66565b50610100830151612cd0610100860182612c00565b50610120830151612ce5610120860182612b66565b50610140830151612cfa610140860182612b57565b50610160830151612d0f610160860182612c00565b508091505092915050565b6000612d268383612c0f565b905092915050565b6000602082019050919050565b6000612d4682612b2b565b612d508185612b36565b935083602082028501612d6285612b47565b8060005b85811015612d9e5784840389528151612d7f8582612d1a565b9450612d8a83612d2e565b925060208a01995050600181019050612d66565b50829750879550505050505092915050565b60006020820190508181036000830152612dca8184612d3b565b905092915050565b600060208284031215612de857612de76127e7565b5b6000612df684828501612812565b91505092915050565b612e0881612a80565b82525050565b612e17816127f1565b82525050565b600082825260208201905092915050565b6000612e3982612b75565b612e438185612e1d565b9350612e53818560208601612b91565b612e5c81612871565b840191505092915050565b612e7081612bf4565b82525050565b600061018082019050612e8c600083018f612dff565b612e99602083018e612e0e565b8181036040830152612eab818d612e2e565b90508181036060830152612ebf818c612e2e565b9050612ece608083018b612e0e565b612edb60a083018a612e0e565b612ee860c0830189612e0e565b612ef560e0830188612e0e565b612f03610100830187612e67565b612f11610120830186612e0e565b612f1f610140830185612dff565b612f2d610160830184612e67565b9d9c50505050505050505050505050565b6000602082019050612f536000830184612dff565b92915050565b600081519050919050565b600082825260208201905092915050565b6000819050602082019050919050565b600060a083016000830151612f9d6000860182612b66565b506020830151612fb06020860182612b66565b506040830151612fc36040860182612b57565b506060830151612fd66060860182612b66565b5060808301518482036080860152612fee8282612c0f565b9150508091505092915050565b60006130078383612f85565b905092915050565b6000602082019050919050565b600061302782612f59565b6130318185612f64565b93508360208202850161304385612f75565b8060005b8581101561307f57848403895281516130608582612ffb565b945061306b8361300f565b925060208a01995050600181019050613047565b50829750879550505050505092915050565b600060208201905081810360008301526130ab818461301c565b905092915050565b7f526166666c65206973206e6f7420616374697665000000000000000000000000600082015250565b60006130e9601483612e1d565b91506130f4826130b3565b602082019050919050565b60006020820190508181036000830152613118816130dc565b9050919050565b7f4e487b7100000000000000000000000000000000000000000000000000000000600052601160045260246000fd5b6000613159826127f1565b9150613164836127f1565b9250828202613172816127f1565b915082820484148315176131895761318861311f565b5b5092915050565b7f496e76616c696420616d6f756e74000000000000000000000000000000000000600082015250565b60006131c6600e83612e1d565b91506131d182613190565b602082019050919050565b600060208201905081810360008301526131f5816131b9565b9050919050565b6000613207826127f1565b9150613212836127f1565b925082820190508082111561322a5761322961311f565b5b92915050565b7f4e6f7420656e6f756768207469636b6574730000000000000000000000000000600082015250565b6000613266601283612e1d565b915061327182613230565b602082019050919050565b6000602082019050818103600083015261329581613259565b9050919050565b7f4e487b7100000000000000000000000000000000000000000000000000000000600052602260045260246000fd5b600060028204905060018216806132e357607f821691505b6020821081036132f6576132f561329c565b5b50919050565b60008190508160005260206000209050919050565b60006020601f8301049050919050565b600082821b905092915050565b60006008830261335e7fffffffffffffffffffffffffffffffffffffffffffffffffffffffffffffffff82613321565b6133688683613321565b95508019841693508086168417925050509392505050565b6000819050919050565b60006133a56133a061339b846127f1565b613380565b6127f1565b9050919050565b6000819050919050565b6133bf8361338a565b6133d36133cb826133ac565b84845461332e565b825550505050565b600090565b6133e86133db565b6133f38184846133b6565b505050565b5b818110156134175761340c6000826133e0565b6001810190506133f9565b5050565b601f82111561345c5761342d816132fc565b61343684613311565b81016020851015613445578190505b61345961345185613311565b8301826133f8565b50505b505050565b600082821c905092915050565b600061347f60001984600802613461565b1980831691505092915050565b6000613498838361346e565b9150826002028217905092915050565b6134b182612b75565b67ffffffffffffffff8111156134ca576134c9612882565b5b6134d482546132cb565b6134df82828561341b565b600060209050601f8311600181146135125760008415613500578287015190505b61350a858261348c565b865550613572565b601f198416613520866132fc565b60005b8281101561354857848901518255600182019150602085019450602081019050613523565b868310156135655784890151613561601f89168261346e565b8355505b6001600288020188555050505b505050505050565b600060608201905061358f6000830186612e0e565b61359c6020830185612dff565b6135a96040830184612e0e565b949350505050565b60006135bc826127f1565b91507fffffffffffffffffffffffffffffffffffffffffffffffffffffffffffffffff82036135ee576135ed61311f565b5b600182019050919050565b600060808201905061360e6000830187612e0e565b81810360208301526136208186612e2e565b905061362f6040830185612e0e565b61363c6060830184612e0e565b95945050505050565b600060408201905061365a6000830185612dff565b6136676020830184612e0e565b9392505050565b61367781612bf4565b811461368257600080fd5b50565b6000815190506136948161366e565b92915050565b6000602082840312156136b0576136af6127e7565b5b60006136be84828501613685565b91505092915050565b7f4661696c656420746f20617070726f766520746f6b656e207472616e73666572600082015250565b60006136fd602083612e1d565b9150613708826136c7565b602082019050919050565b6000602082019050818103600083015261372c816136f0565b9050919050565b60006060820190506137486000830186612dff565b6137556020830185612dff565b6137626040830184612e0e565b949350505050565b7f4661696c656420746f207472616e7366657220746f6b656e7300000000000000600082015250565b60006137a0601983612e1d565b91506137ab8261376a565b602082019050919050565b600060208201905081810360008301526137cf81613793565b9050919050565b7f4e487b7100000000000000000000000000000000000000000000000000000000600052603260045260246000fd5b7f4f6e6c79206f776e65722063616e2077697468647261772074686520616d6f7560008201527f6e74000000000000000000000000000000000000000000000000000000000000602082015250565b6000613861602283612e1d565b915061386c82613805565b604082019050919050565b6000602082019050818103600083015261389081613854565b9050919050565b7f526166666c65206973207374696c6c2061637469766500000000000000000000600082015250565b60006138cd601683612e1d565b91506138d882613897565b602082019050919050565b600060208201905081810360008301526138fc816138c0565b9050919050565b7f416d6f756e7420616c72656164792077697468647261776e0000000000000000600082015250565b6000613939601883612e1d565b915061394482613903565b602082019050919050565b600060208201905081810360008301526139688161392c565b9050919050565b7f4e487b7100000000000000000000000000000000000000000000000000000000600052601260045260246000fd5b60006139a9826127f1565b91506139b4836127f1565b9250826139c4576139c361396f565b5b828204905092915050565b60006139da826127f1565b91506139e5836127f1565b92508282039050818111156139fd576139fc61311f565b5b92915050565b600081905092915050565b50565b6000613a1e600083613a03565b9150613a2982613a0e565b600082019050919050565b6000613a3f82613a11565b9150819050919050565b7f5769746864726177206661696c65640000000000000000000000000000000000600082015250565b6000613a7f600f83612e1d565b9150613a8a82613a49565b602082019050919050565b60006020820190508181036000830152613aae81613a72565b9050919050565b7f526166666c65206973206e6f7420636f6d706c65746500000000000000000000600082015250565b6000613aeb601683612e1d565b9150613af682613ab5565b602082019050919050565b60006020820190508181036000830152613b1a81613ade565b9050919050565b6000819050919050565b613b3c613b37826127f1565b613b21565b82525050565b6000613b4e8286613b2b565b602082019150613b5e8285613b2b565b602082019150613b6e8284613b2b565b602082019150819050949350505050565b6000613b8a826127f1565b9150613b95836127f1565b925082613ba557613ba461396f565b5b828206905092915050565b7f466565207472616e7366657220746f206f776e6572206661696c656400000000600082015250565b6000613be6601c83612e1d565b9150613bf182613bb0565b602082019050919050565b60006020820190508181036000830152613c1581613bd9565b9050919050565b7f57696e6e6572207472616e73666572206661696c656400000000000000000000600082015250565b6000613c52601683612e1d565b9150613c5d82613c1c565b602082019050919050565b60006020820190508181036000830152613c8181613c45565b9050919050565b7f4f6e6c79206f776e65722063616e2063616c6c20746869732066756e6374696f60008201527f6e00000000000000000000000000000000000000000000000000000000000000602082015250565b6000613ce4602183612e1d565b9150613cef82613c88565b604082019050919050565b60006020820190508181036000830152613d1381613cd7565b905091905056fea26469706673582212205bc57ec5a2c63b8810c4b62339b652422019ccc5108fabac8f9e6dac8f4bb66664736f6c63430008180033",
  "linkReferences": {},
  "deployedLinkReferences": {}
}