{
  "_format": "hh-sol-artifact-1",
  "contractName": "RaffleV2",
  "sourceName": "contracts/Raffle.sol",
  "abi": [
    {
      "inputs": [],
      "stateMutability": "nonpayable",
      "type": "constructor"
    },
    {
      "anonymous": false,
      "inputs": [
        {
          "indexed": false,
          "internalType": "uint256",
          "name": "id",
          "type": "uint256"
        },
        {
          "indexed": false,
          "internalType": "string",
          "name": "name",
          "type": "string"
        },
        {
          "indexed": false,
          "internalType": "uint256",
          "name": "ticketPrice",
          "type": "uint256"
        },
        {
          "indexed": false,
          "internalType": "uint256",
          "name": "ticketCount",
          "type": "uint256"
        }
      ],
      "name": "RaffleCreated",
      "type": "event"
    },
    {
      "anonymous": false,
      "inputs": [
        {
          "indexed": false,
          "internalType": "uint256",
          "name": "id",
          "type": "uint256"
        },
        {
          "indexed": false,
          "internalType": "address",
          "name": "winner",
          "type": "address"
        }
      ],
      "name": "RaffleWinner",
      "type": "event"
    },
    {
      "anonymous": false,
      "inputs": [
        {
          "indexed": false,
          "internalType": "uint256",
          "name": "id",
          "type": "uint256"
        },
        {
          "indexed": false,
          "internalType": "address",
          "name": "participant",
          "type": "address"
        },
        {
          "indexed": false,
          "internalType": "uint256",
          "name": "ticketCount",
          "type": "uint256"
        }
      ],
      "name": "TicketBought",
      "type": "event"
    },
    {
      "inputs": [
        {
          "internalType": "uint256",
          "name": "_raffleId",
          "type": "uint256"
        },
        {
          "internalType": "uint256",
          "name": "_ticketCount",
          "type": "uint256"
        }
      ],
      "name": "buyTicket",
      "outputs": [],
      "stateMutability": "payable",
      "type": "function"
    },
    {
      "inputs": [
        {
          "internalType": "string",
          "name": "_name",
          "type": "string"
        },
        {
          "internalType": "string",
          "name": "_image",
          "type": "string"
        },
        {
          "internalType": "uint256",
          "name": "_ticketPrice",
          "type": "uint256"
        },
        {
          "internalType": "uint256",
          "name": "_ticketCount",
          "type": "uint256"
        },
        {
          "internalType": "uint256",
          "name": "_totalAmountToWin",
          "type": "uint256"
        }
      ],
      "name": "createRaffle",
      "outputs": [],
      "stateMutability": "nonpayable",
      "type": "function"
    },
    {
      "inputs": [
        {
          "internalType": "address",
          "name": "_participant",
          "type": "address"
        }
      ],
      "name": "getParticipantTickets",
      "outputs": [
        {
          "components": [
            {
              "internalType": "uint256",
              "name": "ticketNumber",
              "type": "uint256"
            },
            {
              "internalType": "uint256",
              "name": "raffleId",
              "type": "uint256"
            },
            {
              "internalType": "address",
              "name": "participant",
              "type": "address"
            },
            {
              "internalType": "uint256",
              "name": "createdAt",
              "type": "uint256"
            },
            {
              "components": [
                {
                  "internalType": "address",
                  "name": "owner",
                  "type": "address"
                },
                {
                  "internalType": "uint256",
                  "name": "id",
                  "type": "uint256"
                },
                {
                  "internalType": "string",
                  "name": "name",
                  "type": "string"
                },
                {
                  "internalType": "string",
                  "name": "image",
                  "type": "string"
                },
                {
                  "internalType": "uint256",
                  "name": "ticketPrice",
                  "type": "uint256"
                },
                {
                  "internalType": "uint256",
                  "name": "ticketCount",
                  "type": "uint256"
                },
                {
                  "internalType": "uint256",
                  "name": "ticketSold",
                  "type": "uint256"
                },
                {
                  "internalType": "uint256",
                  "name": "totalAmountToWin",
                  "type": "uint256"
                },
                {
                  "internalType": "bool",
                  "name": "isActive",
                  "type": "bool"
                },
                {
                  "internalType": "uint256",
                  "name": "createadAt",
                  "type": "uint256"
                },
                {
                  "internalType": "address",
                  "name": "winner",
                  "type": "address"
                },
                {
                  "internalType": "bool",
                  "name": "isWhidrawn",
                  "type": "bool"
                }
              ],
              "internalType": "struct RaffleV2.Raffle",
              "name": "raffleinfo",
              "type": "tuple"
            }
          ],
          "internalType": "struct RaffleV2.Ticket[]",
          "name": "",
          "type": "tuple[]"
        }
      ],
      "stateMutability": "view",
      "type": "function"
    },
    {
      "inputs": [
        {
          "internalType": "uint256",
          "name": "_raffleId",
          "type": "uint256"
        }
      ],
      "name": "getRaffleTickets",
      "outputs": [
        {
          "components": [
            {
              "internalType": "uint256",
              "name": "ticketNumber",
              "type": "uint256"
            },
            {
              "internalType": "uint256",
              "name": "raffleId",
              "type": "uint256"
            },
            {
              "internalType": "address",
              "name": "participant",
              "type": "address"
            },
            {
              "internalType": "uint256",
              "name": "createdAt",
              "type": "uint256"
            },
            {
              "components": [
                {
                  "internalType": "address",
                  "name": "owner",
                  "type": "address"
                },
                {
                  "internalType": "uint256",
                  "name": "id",
                  "type": "uint256"
                },
                {
                  "internalType": "string",
                  "name": "name",
                  "type": "string"
                },
                {
                  "internalType": "string",
                  "name": "image",
                  "type": "string"
                },
                {
                  "internalType": "uint256",
                  "name": "ticketPrice",
                  "type": "uint256"
                },
                {
                  "internalType": "uint256",
                  "name": "ticketCount",
                  "type": "uint256"
                },
                {
                  "internalType": "uint256",
                  "name": "ticketSold",
                  "type": "uint256"
                },
                {
                  "internalType": "uint256",
                  "name": "totalAmountToWin",
                  "type": "uint256"
                },
                {
                  "internalType": "bool",
                  "name": "isActive",
                  "type": "bool"
                },
                {
                  "internalType": "uint256",
                  "name": "createadAt",
                  "type": "uint256"
                },
                {
                  "internalType": "address",
                  "name": "winner",
                  "type": "address"
                },
                {
                  "internalType": "bool",
                  "name": "isWhidrawn",
                  "type": "bool"
                }
              ],
              "internalType": "struct RaffleV2.Raffle",
              "name": "raffleinfo",
              "type": "tuple"
            }
          ],
          "internalType": "struct RaffleV2.Ticket[]",
          "name": "",
          "type": "tuple[]"
        }
      ],
      "stateMutability": "view",
      "type": "function"
    },
    {
      "inputs": [
        {
          "internalType": "address",
          "name": "_address",
          "type": "address"
        }
      ],
      "name": "getRaflle",
      "outputs": [
        {
          "components": [
            {
              "internalType": "address",
              "name": "owner",
              "type": "address"
            },
            {
              "internalType": "uint256",
              "name": "id",
              "type": "uint256"
            },
            {
              "internalType": "string",
              "name": "name",
              "type": "string"
            },
            {
              "internalType": "string",
              "name": "image",
              "type": "string"
            },
            {
              "internalType": "uint256",
              "name": "ticketPrice",
              "type": "uint256"
            },
            {
              "internalType": "uint256",
              "name": "ticketCount",
              "type": "uint256"
            },
            {
              "internalType": "uint256",
              "name": "ticketSold",
              "type": "uint256"
            },
            {
              "internalType": "uint256",
              "name": "totalAmountToWin",
              "type": "uint256"
            },
            {
              "internalType": "bool",
              "name": "isActive",
              "type": "bool"
            },
            {
              "internalType": "uint256",
              "name": "createadAt",
              "type": "uint256"
            },
            {
              "internalType": "address",
              "name": "winner",
              "type": "address"
            },
            {
              "internalType": "bool",
              "name": "isWhidrawn",
              "type": "bool"
            }
          ],
          "internalType": "struct RaffleV2.Raffle[]",
          "name": "",
          "type": "tuple[]"
        }
      ],
      "stateMutability": "view",
      "type": "function"
    },
    {
      "inputs": [],
      "name": "owner",
      "outputs": [
        {
          "internalType": "address",
          "name": "",
          "type": "address"
        }
      ],
      "stateMutability": "view",
      "type": "function"
    },
    {
      "inputs": [
        {
          "internalType": "uint256",
          "name": "",
          "type": "uint256"
        }
      ],
      "name": "raffles",
      "outputs": [
        {
          "internalType": "address",
          "name": "owner",
          "type": "address"
        },
        {
          "internalType": "uint256",
          "name": "id",
          "type": "uint256"
        },
        {
          "internalType": "string",
          "name": "name",
          "type": "string"
        },
        {
          "internalType": "string",
          "name": "image",
          "type": "string"
        },
        {
          "internalType": "uint256",
          "name": "ticketPrice",
          "type": "uint256"
        },
        {
          "internalType": "uint256",
          "name": "ticketCount",
          "type": "uint256"
        },
        {
          "internalType": "uint256",
          "name": "ticketSold",
          "type": "uint256"
        },
        {
          "internalType": "uint256",
          "name": "totalAmountToWin",
          "type": "uint256"
        },
        {
          "internalType": "bool",
          "name": "isActive",
          "type": "bool"
        },
        {
          "internalType": "uint256",
          "name": "createadAt",
          "type": "uint256"
        },
        {
          "internalType": "address",
          "name": "winner",
          "type": "address"
        },
        {
          "internalType": "bool",
          "name": "isWhidrawn",
          "type": "bool"
        }
      ],
      "stateMutability": "view",
      "type": "function"
    },
    {
      "inputs": [
        {
          "internalType": "uint256",
          "name": "_fee",
          "type": "uint256"
        }
      ],
      "name": "setFee",
      "outputs": [],
      "stateMutability": "nonpayable",
      "type": "function"
    },
    {
      "inputs": [],
      "name": "withdrawFeeAmount",
      "outputs": [],
      "stateMutability": "nonpayable",
      "type": "function"
    },
    {
      "inputs": [
        {
          "internalType": "uint256",
          "name": "_raffleId",
          "type": "uint256"
        }
      ],
      "name": "withdrawRaffleAmount",
      "outputs": [],
      "stateMutability": "nonpayable",
      "type": "function"
    }
  ],
  "bytecode": "0x60806040526000600155600a60025534801561001a57600080fd5b50336000806101000a81548173ffffffffffffffffffffffffffffffffffffffff021916908373ffffffffffffffffffffffffffffffffffffffff1602179055506139ec8061006a6000396000f3fe6080604052600436106100915760003560e01c80638da5cb5b116100595780638da5cb5b14610189578063a410a7f2146101b4578063e8566634146101f1578063f41bc95e1461021a578063fac9b99c1461025757610091565b8063298ec2081461009657806338ebda8b146100b257806353b6222f146100db5780635d4bc0ce1461011857806369fe0e2d14610160575b600080fd5b6100b060048036038101906100ab919061266b565b61026e565b005b3480156100be57600080fd5b506100d960048036038101906100d491906127f1565b610922565b005b3480156100e757600080fd5b5061010260048036038101906100fd9190612902565b610b5a565b60405161010f9190612bb4565b60405180910390f35b34801561012457600080fd5b5061013f600480360381019061013a9190612bd6565b610f78565b6040516101579c9b9a99989796959493929190612c7a565b60405180910390f35b34801561016c57600080fd5b5061018760048036038101906101829190612bd6565b611142565b005b34801561019557600080fd5b5061019e611154565b6040516101ab9190612d42565b60405180910390f35b3480156101c057600080fd5b506101db60048036038101906101d69190612902565b611178565b6040516101e89190612e95565b60405180910390f35b3480156101fd57600080fd5b5061021860048036038101906102139190612bd6565b61195f565b005b34801561022657600080fd5b50610241600480360381019061023c9190612bd6565b611c50565b60405161024e9190612e95565b60405180910390f35b34801561026357600080fd5b5061026c611f8d565b005b6003600083815260200190815260200160002060080160009054906101000a900460ff166102d1576040517f08c379a00000000000000000000000000000000000000000000000000000000081526004016102c890612f03565b60405180910390fd5b8060036000848152602001908152602001600020600401546102f39190612f52565b3414610334576040517f08c379a000000000000000000000000000000000000000000000000000000000815260040161032b90612fe0565b60405180910390fd5b8060036000848152602001908152602001600020600601546103569190613000565b600360008481526020019081526020016000206005015410156103ae576040517f08c379a00000000000000000000000000000000000000000000000000000000081526004016103a590613080565b60405180910390fd5b60005b8181101561087857600460008481526020019081526020016000206040518060a0016040528060018460036000898152602001908152602001600020600601546103fb9190613000565b6104059190613000565b81526020018581526020013373ffffffffffffffffffffffffffffffffffffffff16815260200142815260200160036000878152602001908152602001600020604051806101800160405290816000820160009054906101000a900473ffffffffffffffffffffffffffffffffffffffff1673ffffffffffffffffffffffffffffffffffffffff1673ffffffffffffffffffffffffffffffffffffffff168152602001600182015481526020016002820180546104c1906130cf565b80601f01602080910402602001604051908101604052809291908181526020018280546104ed906130cf565b801561053a5780601f1061050f5761010080835404028352916020019161053a565b820191906000526020600020905b81548152906001019060200180831161051d57829003601f168201915b50505050508152602001600382018054610553906130cf565b80601f016020809104026020016040519081016040528092919081815260200182805461057f906130cf565b80156105cc5780601f106105a1576101008083540402835291602001916105cc565b820191906000526020600020905b8154815290600101906020018083116105af57829003601f168201915b50505050508152602001600482015481526020016005820154815260200160068201548152602001600782015481526020016008820160009054906101000a900460ff1615151515815260200160098201548152602001600a820160009054906101000a900473ffffffffffffffffffffffffffffffffffffffff1673ffffffffffffffffffffffffffffffffffffffff1673ffffffffffffffffffffffffffffffffffffffff168152602001600a820160149054906101000a900460ff16151515158152505081525090806001815401808255809150506001900390600052602060002090600f0201600090919091909150600082015181600001556020820151816001015560408201518160020160006101000a81548173ffffffffffffffffffffffffffffffffffffffff021916908373ffffffffffffffffffffffffffffffffffffffff1602179055506060820151816003015560808201518160040160008201518160000160006101000a81548173ffffffffffffffffffffffffffffffffffffffff021916908373ffffffffffffffffffffffffffffffffffffffff16021790555060208201518160010155604082015181600201908161079391906132ac565b5060608201518160030190816107a991906132ac565b506080820151816004015560a0820151816005015560c0820151816006015560e082015181600701556101008201518160080160006101000a81548160ff021916908315150217905550610120820151816009015561014082015181600a0160006101000a81548173ffffffffffffffffffffffffffffffffffffffff021916908373ffffffffffffffffffffffffffffffffffffffff16021790555061016082015181600a0160146101000a81548160ff0219169083151502179055505050505080806001019150506103b1565b508060036000848152602001908152602001600020600601600082825461089f9190613000565b925050819055507f913d09b391f64143215d9312fd7e8ecaa06001c646789c9d2109dc515bc34fad8233836040516108d99392919061337e565b60405180910390a1600360008381526020019081526020016000206006015460036000848152602001908152602001600020600501540361091e5761091d82612065565b5b5050565b60016000815480929190610935906133b5565b91905055506040518061018001604052803373ffffffffffffffffffffffffffffffffffffffff168152602001600154815260200186815260200185815260200184815260200183815260200160008152602001828152602001600115158152602001428152602001600073ffffffffffffffffffffffffffffffffffffffff1681526020016000151581525060036000600154815260200190815260200160002060008201518160000160006101000a81548173ffffffffffffffffffffffffffffffffffffffff021916908373ffffffffffffffffffffffffffffffffffffffff160217905550602082015181600101556040820151816002019081610a3d91906132ac565b506060820151816003019081610a5391906132ac565b506080820151816004015560a0820151816005015560c0820151816006015560e082015181600701556101008201518160080160006101000a81548160ff021916908315150217905550610120820151816009015561014082015181600a0160006101000a81548173ffffffffffffffffffffffffffffffffffffffff021916908373ffffffffffffffffffffffffffffffffffffffff16021790555061016082015181600a0160146101000a81548160ff0219169083151502179055509050507fa67a3ae202f19c155f33ec43781f888d5b6b6ddf7467ff4893647ece828a26b2600154868585604051610b4b94939291906133fd565b60405180910390a15050505050565b6060600080600190505b6001548111610bf8578373ffffffffffffffffffffffffffffffffffffffff166003600083815260200190815260200160002060000160009054906101000a900473ffffffffffffffffffffffffffffffffffffffff1673ffffffffffffffffffffffffffffffffffffffff1603610be5578180610be1906133b5565b9250505b8080610bf0906133b5565b915050610b64565b5060008167ffffffffffffffff811115610c1557610c146126c6565b5b604051908082528060200260200182016040528015610c4e57816020015b610c3b612545565b815260200190600190039081610c335790505b509050600080600190505b6001548111610f6c578573ffffffffffffffffffffffffffffffffffffffff166003600083815260200190815260200160002060000160009054906101000a900473ffffffffffffffffffffffffffffffffffffffff1673ffffffffffffffffffffffffffffffffffffffff1603610f595760036000828152602001908152602001600020604051806101800160405290816000820160009054906101000a900473ffffffffffffffffffffffffffffffffffffffff1673ffffffffffffffffffffffffffffffffffffffff1673ffffffffffffffffffffffffffffffffffffffff16815260200160018201548152602001600282018054610d5a906130cf565b80601f0160208091040260200160405190810160405280929190818152602001828054610d86906130cf565b8015610dd35780601f10610da857610100808354040283529160200191610dd3565b820191906000526020600020905b815481529060010190602001808311610db657829003601f168201915b50505050508152602001600382018054610dec906130cf565b80601f0160208091040260200160405190810160405280929190818152602001828054610e18906130cf565b8015610e655780601f10610e3a57610100808354040283529160200191610e65565b820191906000526020600020905b815481529060010190602001808311610e4857829003601f168201915b50505050508152602001600482015481526020016005820154815260200160068201548152602001600782015481526020016008820160009054906101000a900460ff1615151515815260200160098201548152602001600a820160009054906101000a900473ffffffffffffffffffffffffffffffffffffffff1673ffffffffffffffffffffffffffffffffffffffff1673ffffffffffffffffffffffffffffffffffffffff168152602001600a820160149054906101000a900460ff161515151581525050838381518110610f3f57610f3e613449565b5b60200260200101819052508180610f55906133b5565b9250505b8080610f64906133b5565b915050610c59565b50819350505050919050565b60036020528060005260406000206000915090508060000160009054906101000a900473ffffffffffffffffffffffffffffffffffffffff1690806001015490806002018054610fc7906130cf565b80601f0160208091040260200160405190810160405280929190818152602001828054610ff3906130cf565b80156110405780601f1061101557610100808354040283529160200191611040565b820191906000526020600020905b81548152906001019060200180831161102357829003601f168201915b505050505090806003018054611055906130cf565b80601f0160208091040260200160405190810160405280929190818152602001828054611081906130cf565b80156110ce5780601f106110a3576101008083540402835291602001916110ce565b820191906000526020600020905b8154815290600101906020018083116110b157829003601f168201915b5050505050908060040154908060050154908060060154908060070154908060080160009054906101000a900460ff169080600901549080600a0160009054906101000a900473ffffffffffffffffffffffffffffffffffffffff169080600a0160149054906101000a900460ff1690508c565b61114a6124b5565b8060028190555050565b60008054906101000a900473ffffffffffffffffffffffffffffffffffffffff1681565b6060600080600190505b60015481116112655760005b6004600083815260200190815260200160002080549050811015611251578473ffffffffffffffffffffffffffffffffffffffff166004600084815260200190815260200160002082815481106111e8576111e7613449565b5b90600052602060002090600f020160020160009054906101000a900473ffffffffffffffffffffffffffffffffffffffff1673ffffffffffffffffffffffffffffffffffffffff1603611244578280611240906133b5565b9350505b808060010191505061118e565b50808061125d906133b5565b915050611182565b5060008167ffffffffffffffff811115611282576112816126c6565b5b6040519080825280602002602001820160405280156112bb57816020015b6112a86125d6565b8152602001906001900390816112a05790505b509050600080600190505b60015481116119535760005b600460008381526020019081526020016000208054905081101561193f578673ffffffffffffffffffffffffffffffffffffffff1660046000848152602001908152602001600020828154811061132c5761132b613449565b5b90600052602060002090600f020160020160009054906101000a900473ffffffffffffffffffffffffffffffffffffffff1673ffffffffffffffffffffffffffffffffffffffff16036119325760046000838152602001908152602001600020818154811061139e5761139d613449565b5b90600052602060002090600f02016040518060a001604052908160008201548152602001600182015481526020016002820160009054906101000a900473ffffffffffffffffffffffffffffffffffffffff1673ffffffffffffffffffffffffffffffffffffffff1673ffffffffffffffffffffffffffffffffffffffff1681526020016003820154815260200160048201604051806101800160405290816000820160009054906101000a900473ffffffffffffffffffffffffffffffffffffffff1673ffffffffffffffffffffffffffffffffffffffff1673ffffffffffffffffffffffffffffffffffffffff168152602001600182015481526020016002820180546114ac906130cf565b80601f01602080910402602001604051908101604052809291908181526020018280546114d8906130cf565b80156115255780601f106114fa57610100808354040283529160200191611525565b820191906000526020600020905b81548152906001019060200180831161150857829003601f168201915b5050505050815260200160038201805461153e906130cf565b80601f016020809104026020016040519081016040528092919081815260200182805461156a906130cf565b80156115b75780601f1061158c576101008083540402835291602001916115b7565b820191906000526020600020905b81548152906001019060200180831161159a57829003601f168201915b50505050508152602001600482015481526020016005820154815260200160068201548152602001600782015481526020016008820160009054906101000a900460ff1615151515815260200160098201548152602001600a820160009054906101000a900473ffffffffffffffffffffffffffffffffffffffff1673ffffffffffffffffffffffffffffffffffffffff1673ffffffffffffffffffffffffffffffffffffffff168152602001600a820160149054906101000a900460ff1615151515815250508152505084848151811061169557611694613449565b5b602002602001018190525060036000838152602001908152602001600020604051806101800160405290816000820160009054906101000a900473ffffffffffffffffffffffffffffffffffffffff1673ffffffffffffffffffffffffffffffffffffffff1673ffffffffffffffffffffffffffffffffffffffff1681526020016001820154815260200160028201805461172f906130cf565b80601f016020809104026020016040519081016040528092919081815260200182805461175b906130cf565b80156117a85780601f1061177d576101008083540402835291602001916117a8565b820191906000526020600020905b81548152906001019060200180831161178b57829003601f168201915b505050505081526020016003820180546117c1906130cf565b80601f01602080910402602001604051908101604052809291908181526020018280546117ed906130cf565b801561183a5780601f1061180f5761010080835404028352916020019161183a565b820191906000526020600020905b81548152906001019060200180831161181d57829003601f168201915b50505050508152602001600482015481526020016005820154815260200160068201548152602001600782015481526020016008820160009054906101000a900460ff1615151515815260200160098201548152602001600a820160009054906101000a900473ffffffffffffffffffffffffffffffffffffffff1673ffffffffffffffffffffffffffffffffffffffff1673ffffffffffffffffffffffffffffffffffffffff168152602001600a820160149054906101000a900460ff16151515158152505084848151811061191457611913613449565b5b602002602001015160800181905250828061192e906133b5565b9350505b80806001019150506112d2565b50808061194b906133b5565b9150506112c6565b50819350505050919050565b3373ffffffffffffffffffffffffffffffffffffffff166003600083815260200190815260200160002060000160009054906101000a900473ffffffffffffffffffffffffffffffffffffffff1673ffffffffffffffffffffffffffffffffffffffff1614611a03576040517f08c379a00000000000000000000000000000000000000000000000000000000081526004016119fa906134ea565b60405180910390fd5b600015156003600083815260200190815260200160002060080160009054906101000a900460ff16151514611a6d576040517f08c379a0000000000000000000000000000000000000000000000000000000008152600401611a6490613556565b60405180910390fd5b6000151560036000838152602001908152602001600020600a0160149054906101000a900460ff16151514611ad7576040517f08c379a0000000000000000000000000000000000000000000000000000000008152600401611ace906135c2565b60405180910390fd5b6000600360008381526020019081526020016000206004015490506000816003600085815260200190815260200160002060050154611b169190612f52565b90506000606460025483611b2a9190612f52565b611b349190613611565b90506000600360008681526020019081526020016000206007015490506000818385611b609190613642565b611b6a9190613642565b905060003373ffffffffffffffffffffffffffffffffffffffff1682604051611b92906136a7565b60006040518083038185875af1925050503d8060008114611bcf576040519150601f19603f3d011682016040523d82523d6000602084013e611bd4565b606091505b5050905080611c18576040517f08c379a0000000000000000000000000000000000000000000000000000000008152600401611c0f90613708565b60405180910390fd5b600160036000898152602001908152602001600020600a0160146101000a81548160ff02191690831515021790555050505050505050565b606060046000838152602001908152602001600020805480602002602001604051908101604052809291908181526020016000905b82821015611f8257838290600052602060002090600f02016040518060a001604052908160008201548152602001600182015481526020016002820160009054906101000a900473ffffffffffffffffffffffffffffffffffffffff1673ffffffffffffffffffffffffffffffffffffffff1673ffffffffffffffffffffffffffffffffffffffff1681526020016003820154815260200160048201604051806101800160405290816000820160009054906101000a900473ffffffffffffffffffffffffffffffffffffffff1673ffffffffffffffffffffffffffffffffffffffff1673ffffffffffffffffffffffffffffffffffffffff16815260200160018201548152602001600282018054611d9d906130cf565b80601f0160208091040260200160405190810160405280929190818152602001828054611dc9906130cf565b8015611e165780601f10611deb57610100808354040283529160200191611e16565b820191906000526020600020905b815481529060010190602001808311611df957829003601f168201915b50505050508152602001600382018054611e2f906130cf565b80601f0160208091040260200160405190810160405280929190818152602001828054611e5b906130cf565b8015611ea85780601f10611e7d57610100808354040283529160200191611ea8565b820191906000526020600020905b815481529060010190602001808311611e8b57829003601f168201915b50505050508152602001600482015481526020016005820154815260200160068201548152602001600782015481526020016008820160009054906101000a900460ff1615151515815260200160098201548152602001600a820160009054906101000a900473ffffffffffffffffffffffffffffffffffffffff1673ffffffffffffffffffffffffffffffffffffffff1673ffffffffffffffffffffffffffffffffffffffff168152602001600a820160149054906101000a900460ff1615151515815250508152505081526020019060010190611c85565b505050509050919050565b611f956124b5565b60008060009054906101000a900473ffffffffffffffffffffffffffffffffffffffff1673ffffffffffffffffffffffffffffffffffffffff1647604051611fdc906136a7565b60006040518083038185875af1925050503d8060008114612019576040519150601f19603f3d011682016040523d82523d6000602084013e61201e565b606091505b5050905080612062576040517f08c379a000000000000000000000000000000000000000000000000000000000815260040161205990613708565b60405180910390fd5b50565b6003600082815260200190815260200160002060080160009054906101000a900460ff166120c8576040517f08c379a00000000000000000000000000000000000000000000000000000000081526004016120bf90612f03565b60405180910390fd5b6003600082815260200190815260200160002060060154600360008381526020019081526020016000206005015414612136576040517f08c379a000000000000000000000000000000000000000000000000000000000815260040161212d90613774565b60405180910390fd5b600060036000838152602001908152602001600020600601544244600360008681526020019081526020016000206006015460405160200161217a939291906137b5565b6040516020818303038152906040528051906020012060001c61219d91906137f2565b905060006004600084815260200190815260200160002082815481106121c6576121c5613449565b5b90600052602060002090600f020160020160009054906101000a900473ffffffffffffffffffffffffffffffffffffffff1690508060036000858152602001908152602001600020600a0160006101000a81548173ffffffffffffffffffffffffffffffffffffffff021916908373ffffffffffffffffffffffffffffffffffffffff16021790555060006003600085815260200190815260200160002060080160006101000a81548160ff02191690831515021790555060006003600085815260200190815260200160002060040154905060008160036000878152602001908152602001600020600501546122bd9190612f52565b905060006064600254836122d19190612f52565b6122db9190613611565b905060006003600088815260200190815260200160002060070154905060008060009054906101000a900473ffffffffffffffffffffffffffffffffffffffff1673ffffffffffffffffffffffffffffffffffffffff168360405161233f906136a7565b60006040518083038185875af1925050503d806000811461237c576040519150601f19603f3d011682016040523d82523d6000602084013e612381565b606091505b50509050806123c5576040517f08c379a00000000000000000000000000000000000000000000000000000000081526004016123bc9061386f565b60405180910390fd5b60008673ffffffffffffffffffffffffffffffffffffffff16836040516123eb906136a7565b60006040518083038185875af1925050503d8060008114612428576040519150601f19603f3d011682016040523d82523d6000602084013e61242d565b606091505b5050905080612471576040517f08c379a0000000000000000000000000000000000000000000000000000000008152600401612468906138db565b60405180910390fd5b7fb4d601e7092e672cbffcd1512cc6592c35b9947e1ebfeea7647231887a52244789886040516124a29291906138fb565b60405180910390a1505050505050505050565b60008054906101000a900473ffffffffffffffffffffffffffffffffffffffff1673ffffffffffffffffffffffffffffffffffffffff163373ffffffffffffffffffffffffffffffffffffffff1614612543576040517f08c379a000000000000000000000000000000000000000000000000000000000815260040161253a90613996565b60405180910390fd5b565b604051806101800160405280600073ffffffffffffffffffffffffffffffffffffffff1681526020016000815260200160608152602001606081526020016000815260200160008152602001600081526020016000815260200160001515815260200160008152602001600073ffffffffffffffffffffffffffffffffffffffff1681526020016000151581525090565b6040518060a001604052806000815260200160008152602001600073ffffffffffffffffffffffffffffffffffffffff1681526020016000815260200161261b612545565b81525090565b6000604051905090565b600080fd5b600080fd5b6000819050919050565b61264881612635565b811461265357600080fd5b50565b6000813590506126658161263f565b92915050565b600080604083850312156126825761268161262b565b5b600061269085828601612656565b92505060206126a185828601612656565b9150509250929050565b600080fd5b600080fd5b6000601f19601f8301169050919050565b7f4e487b7100000000000000000000000000000000000000000000000000000000600052604160045260246000fd5b6126fe826126b5565b810181811067ffffffffffffffff8211171561271d5761271c6126c6565b5b80604052505050565b6000612730612621565b905061273c82826126f5565b919050565b600067ffffffffffffffff82111561275c5761275b6126c6565b5b612765826126b5565b9050602081019050919050565b82818337600083830152505050565b600061279461278f84612741565b612726565b9050828152602081018484840111156127b0576127af6126b0565b5b6127bb848285612772565b509392505050565b600082601f8301126127d8576127d76126ab565b5b81356127e8848260208601612781565b91505092915050565b600080600080600060a0868803121561280d5761280c61262b565b5b600086013567ffffffffffffffff81111561282b5761282a612630565b5b612837888289016127c3565b955050602086013567ffffffffffffffff81111561285857612857612630565b5b612864888289016127c3565b945050604061287588828901612656565b935050606061288688828901612656565b925050608061289788828901612656565b9150509295509295909350565b600073ffffffffffffffffffffffffffffffffffffffff82169050919050565b60006128cf826128a4565b9050919050565b6128df816128c4565b81146128ea57600080fd5b50565b6000813590506128fc816128d6565b92915050565b6000602082840312156129185761291761262b565b5b6000612926848285016128ed565b91505092915050565b600081519050919050565b600082825260208201905092915050565b6000819050602082019050919050565b612964816128c4565b82525050565b61297381612635565b82525050565b600081519050919050565b600082825260208201905092915050565b60005b838110156129b3578082015181840152602081019050612998565b60008484015250505050565b60006129ca82612979565b6129d48185612984565b93506129e4818560208601612995565b6129ed816126b5565b840191505092915050565b60008115159050919050565b612a0d816129f8565b82525050565b600061018083016000830151612a2c600086018261295b565b506020830151612a3f602086018261296a565b5060408301518482036040860152612a5782826129bf565b91505060608301518482036060860152612a7182826129bf565b9150506080830151612a86608086018261296a565b5060a0830151612a9960a086018261296a565b5060c0830151612aac60c086018261296a565b5060e0830151612abf60e086018261296a565b50610100830151612ad4610100860182612a04565b50610120830151612ae961012086018261296a565b50610140830151612afe61014086018261295b565b50610160830151612b13610160860182612a04565b508091505092915050565b6000612b2a8383612a13565b905092915050565b6000602082019050919050565b6000612b4a8261292f565b612b54818561293a565b935083602082028501612b668561294b565b8060005b85811015612ba25784840389528151612b838582612b1e565b9450612b8e83612b32565b925060208a01995050600181019050612b6a565b50829750879550505050505092915050565b60006020820190508181036000830152612bce8184612b3f565b905092915050565b600060208284031215612bec57612beb61262b565b5b6000612bfa84828501612656565b91505092915050565b612c0c816128c4565b82525050565b612c1b81612635565b82525050565b600082825260208201905092915050565b6000612c3d82612979565b612c478185612c21565b9350612c57818560208601612995565b612c60816126b5565b840191505092915050565b612c74816129f8565b82525050565b600061018082019050612c90600083018f612c03565b612c9d602083018e612c12565b8181036040830152612caf818d612c32565b90508181036060830152612cc3818c612c32565b9050612cd2608083018b612c12565b612cdf60a083018a612c12565b612cec60c0830189612c12565b612cf960e0830188612c12565b612d07610100830187612c6b565b612d15610120830186612c12565b612d23610140830185612c03565b612d31610160830184612c6b565b9d9c50505050505050505050505050565b6000602082019050612d576000830184612c03565b92915050565b600081519050919050565b600082825260208201905092915050565b6000819050602082019050919050565b600060a083016000830151612da1600086018261296a565b506020830151612db4602086018261296a565b506040830151612dc7604086018261295b565b506060830151612dda606086018261296a565b5060808301518482036080860152612df28282612a13565b9150508091505092915050565b6000612e0b8383612d89565b905092915050565b6000602082019050919050565b6000612e2b82612d5d565b612e358185612d68565b935083602082028501612e4785612d79565b8060005b85811015612e835784840389528151612e648582612dff565b9450612e6f83612e13565b925060208a01995050600181019050612e4b565b50829750879550505050505092915050565b60006020820190508181036000830152612eaf8184612e20565b905092915050565b7f526166666c65206973206e6f7420616374697665000000000000000000000000600082015250565b6000612eed601483612c21565b9150612ef882612eb7565b602082019050919050565b60006020820190508181036000830152612f1c81612ee0565b9050919050565b7f4e487b7100000000000000000000000000000000000000000000000000000000600052601160045260246000fd5b6000612f5d82612635565b9150612f6883612635565b9250828202612f7681612635565b91508282048414831517612f8d57612f8c612f23565b5b5092915050565b7f496e76616c696420616d6f756e74000000000000000000000000000000000000600082015250565b6000612fca600e83612c21565b9150612fd582612f94565b602082019050919050565b60006020820190508181036000830152612ff981612fbd565b9050919050565b600061300b82612635565b915061301683612635565b925082820190508082111561302e5761302d612f23565b5b92915050565b7f4e6f7420656e6f756768207469636b6574730000000000000000000000000000600082015250565b600061306a601283612c21565b915061307582613034565b602082019050919050565b600060208201905081810360008301526130998161305d565b9050919050565b7f4e487b7100000000000000000000000000000000000000000000000000000000600052602260045260246000fd5b600060028204905060018216806130e757607f821691505b6020821081036130fa576130f96130a0565b5b50919050565b60008190508160005260206000209050919050565b60006020601f8301049050919050565b600082821b905092915050565b6000600883026131627fffffffffffffffffffffffffffffffffffffffffffffffffffffffffffffffff82613125565b61316c8683613125565b95508019841693508086168417925050509392505050565b6000819050919050565b60006131a96131a461319f84612635565b613184565b612635565b9050919050565b6000819050919050565b6131c38361318e565b6131d76131cf826131b0565b848454613132565b825550505050565b600090565b6131ec6131df565b6131f78184846131ba565b505050565b5b8181101561321b576132106000826131e4565b6001810190506131fd565b5050565b601f8211156132605761323181613100565b61323a84613115565b81016020851015613249578190505b61325d61325585613115565b8301826131fc565b50505b505050565b600082821c905092915050565b600061328360001984600802613265565b1980831691505092915050565b600061329c8383613272565b9150826002028217905092915050565b6132b582612979565b67ffffffffffffffff8111156132ce576132cd6126c6565b5b6132d882546130cf565b6132e382828561321f565b600060209050601f8311600181146133165760008415613304578287015190505b61330e8582613290565b865550613376565b601f19841661332486613100565b60005b8281101561334c57848901518255600182019150602085019450602081019050613327565b868310156133695784890151613365601f891682613272565b8355505b6001600288020188555050505b505050505050565b60006060820190506133936000830186612c12565b6133a06020830185612c03565b6133ad6040830184612c12565b949350505050565b60006133c082612635565b91507fffffffffffffffffffffffffffffffffffffffffffffffffffffffffffffffff82036133f2576133f1612f23565b5b600182019050919050565b60006080820190506134126000830187612c12565b81810360208301526134248186612c32565b90506134336040830185612c12565b6134406060830184612c12565b95945050505050565b7f4e487b7100000000000000000000000000000000000000000000000000000000600052603260045260246000fd5b7f4f6e6c79206f776e65722063616e2077697468647261772074686520616d6f7560008201527f6e74000000000000000000000000000000000000000000000000000000000000602082015250565b60006134d4602283612c21565b91506134df82613478565b604082019050919050565b60006020820190508181036000830152613503816134c7565b9050919050565b7f526166666c65206973207374696c6c2061637469766500000000000000000000600082015250565b6000613540601683612c21565b915061354b8261350a565b602082019050919050565b6000602082019050818103600083015261356f81613533565b9050919050565b7f416d6f756e7420616c72656164792077697468647261776e0000000000000000600082015250565b60006135ac601883612c21565b91506135b782613576565b602082019050919050565b600060208201905081810360008301526135db8161359f565b9050919050565b7f4e487b7100000000000000000000000000000000000000000000000000000000600052601260045260246000fd5b600061361c82612635565b915061362783612635565b925082613637576136366135e2565b5b828204905092915050565b600061364d82612635565b915061365883612635565b92508282039050818111156136705761366f612f23565b5b92915050565b600081905092915050565b50565b6000613691600083613676565b915061369c82613681565b600082019050919050565b60006136b282613684565b9150819050919050565b7f5769746864726177206661696c65640000000000000000000000000000000000600082015250565b60006136f2600f83612c21565b91506136fd826136bc565b602082019050919050565b60006020820190508181036000830152613721816136e5565b9050919050565b7f526166666c65206973206e6f7420636f6d706c65746500000000000000000000600082015250565b600061375e601683612c21565b915061376982613728565b602082019050919050565b6000602082019050818103600083015261378d81613751565b9050919050565b6000819050919050565b6137af6137aa82612635565b613794565b82525050565b60006137c1828661379e565b6020820191506137d1828561379e565b6020820191506137e1828461379e565b602082019150819050949350505050565b60006137fd82612635565b915061380883612635565b925082613818576138176135e2565b5b828206905092915050565b7f466565207472616e7366657220746f206f776e6572206661696c656400000000600082015250565b6000613859601c83612c21565b915061386482613823565b602082019050919050565b600060208201905081810360008301526138888161384c565b9050919050565b7f57696e6e6572207472616e73666572206661696c656400000000000000000000600082015250565b60006138c5601683612c21565b91506138d08261388f565b602082019050919050565b600060208201905081810360008301526138f4816138b8565b9050919050565b60006040820190506139106000830185612c12565b61391d6020830184612c03565b9392505050565b7f4f6e6c79206f776e65722063616e2063616c6c20746869732066756e6374696f60008201527f6e00000000000000000000000000000000000000000000000000000000000000602082015250565b6000613980602183612c21565b915061398b82613924565b604082019050919050565b600060208201905081810360008301526139af81613973565b905091905056fea2646970667358221220c36d75226c1951efa670382acdaef6229f607a9c369e8f4bbb3d985992dc8e7664736f6c63430008180033",
  "linkReferences": {},
  "deployedLinkReferences": {}
}