{
  "_format": "hh-sol-artifact-1",
  "contractName": "RaffleV2",
  "sourceName": "contracts/Raffle.sol",
  "abi": [
    {
      "inputs": [],
      "stateMutability": "nonpayable",
      "type": "constructor"
    },
    {
      "anonymous": false,
      "inputs": [
        {
          "indexed": false,
          "internalType": "uint256",
          "name": "id",
          "type": "uint256"
        },
        {
          "indexed": false,
          "internalType": "string",
          "name": "name",
          "type": "string"
        },
        {
          "indexed": false,
          "internalType": "uint256",
          "name": "ticketPrice",
          "type": "uint256"
        },
        {
          "indexed": false,
          "internalType": "uint256",
          "name": "ticketCount",
          "type": "uint256"
        }
      ],
      "name": "RaffleCreated",
      "type": "event"
    },
    {
      "anonymous": false,
      "inputs": [
        {
          "indexed": false,
          "internalType": "uint256",
          "name": "id",
          "type": "uint256"
        },
        {
          "indexed": false,
          "internalType": "address",
          "name": "winner",
          "type": "address"
        }
      ],
      "name": "RaffleWinner",
      "type": "event"
    },
    {
      "anonymous": false,
      "inputs": [
        {
          "indexed": false,
          "internalType": "uint256",
          "name": "id",
          "type": "uint256"
        },
        {
          "indexed": false,
          "internalType": "address",
          "name": "participant",
          "type": "address"
        },
        {
          "indexed": false,
          "internalType": "uint256",
          "name": "ticketCount",
          "type": "uint256"
        }
      ],
      "name": "TicketBought",
      "type": "event"
    },
    {
      "inputs": [
        {
          "internalType": "uint256",
          "name": "_raffleId",
          "type": "uint256"
        },
        {
          "internalType": "uint256",
          "name": "_ticketCount",
          "type": "uint256"
        }
      ],
      "name": "buyTicket",
      "outputs": [],
      "stateMutability": "payable",
      "type": "function"
    },
    {
      "inputs": [
        {
          "internalType": "string",
          "name": "_name",
          "type": "string"
        },
        {
          "internalType": "string",
          "name": "_image",
          "type": "string"
        },
        {
          "internalType": "uint256",
          "name": "_ticketPrice",
          "type": "uint256"
        },
        {
          "internalType": "uint256",
          "name": "_ticketCount",
          "type": "uint256"
        },
        {
          "internalType": "uint256",
          "name": "_totalAmountToWin",
          "type": "uint256"
        }
      ],
      "name": "createRaffle",
      "outputs": [],
      "stateMutability": "nonpayable",
      "type": "function"
    },
    {
      "inputs": [
        {
          "internalType": "address",
          "name": "_participant",
          "type": "address"
        }
      ],
      "name": "getParticipantTickets",
      "outputs": [
        {
          "components": [
            {
              "internalType": "uint256",
              "name": "ticketNumber",
              "type": "uint256"
            },
            {
              "internalType": "uint256",
              "name": "raffleId",
              "type": "uint256"
            },
            {
              "internalType": "address",
              "name": "participant",
              "type": "address"
            },
            {
              "internalType": "uint256",
              "name": "createdAt",
              "type": "uint256"
            },
            {
              "components": [
                {
                  "internalType": "address",
                  "name": "owner",
                  "type": "address"
                },
                {
                  "internalType": "uint256",
                  "name": "id",
                  "type": "uint256"
                },
                {
                  "internalType": "string",
                  "name": "name",
                  "type": "string"
                },
                {
                  "internalType": "string",
                  "name": "image",
                  "type": "string"
                },
                {
                  "internalType": "uint256",
                  "name": "ticketPrice",
                  "type": "uint256"
                },
                {
                  "internalType": "uint256",
                  "name": "ticketCount",
                  "type": "uint256"
                },
                {
                  "internalType": "uint256",
                  "name": "ticketSold",
                  "type": "uint256"
                },
                {
                  "internalType": "uint256",
                  "name": "totalAmountToWin",
                  "type": "uint256"
                },
                {
                  "internalType": "bool",
                  "name": "isActive",
                  "type": "bool"
                },
                {
                  "internalType": "uint256",
                  "name": "createadAt",
                  "type": "uint256"
                },
                {
                  "internalType": "address",
                  "name": "winner",
                  "type": "address"
                },
                {
                  "internalType": "bool",
                  "name": "isWhidrawn",
                  "type": "bool"
                }
              ],
              "internalType": "struct RaffleV2.Raffle",
              "name": "raffleinfo",
              "type": "tuple"
            }
          ],
          "internalType": "struct RaffleV2.Ticket[]",
          "name": "",
          "type": "tuple[]"
        }
      ],
      "stateMutability": "view",
      "type": "function"
    },
    {
      "inputs": [
        {
          "internalType": "uint256",
          "name": "_raffleId",
          "type": "uint256"
        }
      ],
      "name": "getRaffleTickets",
      "outputs": [
        {
          "components": [
            {
              "internalType": "uint256",
              "name": "ticketNumber",
              "type": "uint256"
            },
            {
              "internalType": "uint256",
              "name": "raffleId",
              "type": "uint256"
            },
            {
              "internalType": "address",
              "name": "participant",
              "type": "address"
            },
            {
              "internalType": "uint256",
              "name": "createdAt",
              "type": "uint256"
            },
            {
              "components": [
                {
                  "internalType": "address",
                  "name": "owner",
                  "type": "address"
                },
                {
                  "internalType": "uint256",
                  "name": "id",
                  "type": "uint256"
                },
                {
                  "internalType": "string",
                  "name": "name",
                  "type": "string"
                },
                {
                  "internalType": "string",
                  "name": "image",
                  "type": "string"
                },
                {
                  "internalType": "uint256",
                  "name": "ticketPrice",
                  "type": "uint256"
                },
                {
                  "internalType": "uint256",
                  "name": "ticketCount",
                  "type": "uint256"
                },
                {
                  "internalType": "uint256",
                  "name": "ticketSold",
                  "type": "uint256"
                },
                {
                  "internalType": "uint256",
                  "name": "totalAmountToWin",
                  "type": "uint256"
                },
                {
                  "internalType": "bool",
                  "name": "isActive",
                  "type": "bool"
                },
                {
                  "internalType": "uint256",
                  "name": "createadAt",
                  "type": "uint256"
                },
                {
                  "internalType": "address",
                  "name": "winner",
                  "type": "address"
                },
                {
                  "internalType": "bool",
                  "name": "isWhidrawn",
                  "type": "bool"
                }
              ],
              "internalType": "struct RaffleV2.Raffle",
              "name": "raffleinfo",
              "type": "tuple"
            }
          ],
          "internalType": "struct RaffleV2.Ticket[]",
          "name": "",
          "type": "tuple[]"
        }
      ],
      "stateMutability": "view",
      "type": "function"
    },
    {
      "inputs": [
        {
          "internalType": "address",
          "name": "_address",
          "type": "address"
        }
      ],
      "name": "getRaflle",
      "outputs": [
        {
          "components": [
            {
              "internalType": "address",
              "name": "owner",
              "type": "address"
            },
            {
              "internalType": "uint256",
              "name": "id",
              "type": "uint256"
            },
            {
              "internalType": "string",
              "name": "name",
              "type": "string"
            },
            {
              "internalType": "string",
              "name": "image",
              "type": "string"
            },
            {
              "internalType": "uint256",
              "name": "ticketPrice",
              "type": "uint256"
            },
            {
              "internalType": "uint256",
              "name": "ticketCount",
              "type": "uint256"
            },
            {
              "internalType": "uint256",
              "name": "ticketSold",
              "type": "uint256"
            },
            {
              "internalType": "uint256",
              "name": "totalAmountToWin",
              "type": "uint256"
            },
            {
              "internalType": "bool",
              "name": "isActive",
              "type": "bool"
            },
            {
              "internalType": "uint256",
              "name": "createadAt",
              "type": "uint256"
            },
            {
              "internalType": "address",
              "name": "winner",
              "type": "address"
            },
            {
              "internalType": "bool",
              "name": "isWhidrawn",
              "type": "bool"
            }
          ],
          "internalType": "struct RaffleV2.Raffle[]",
          "name": "",
          "type": "tuple[]"
        }
      ],
      "stateMutability": "view",
      "type": "function"
    },
    {
      "inputs": [],
      "name": "owner",
      "outputs": [
        {
          "internalType": "address",
          "name": "",
          "type": "address"
        }
      ],
      "stateMutability": "view",
      "type": "function"
    },
    {
      "inputs": [
        {
          "internalType": "uint256",
          "name": "",
          "type": "uint256"
        }
      ],
      "name": "raffles",
      "outputs": [
        {
          "internalType": "address",
          "name": "owner",
          "type": "address"
        },
        {
          "internalType": "uint256",
          "name": "id",
          "type": "uint256"
        },
        {
          "internalType": "string",
          "name": "name",
          "type": "string"
        },
        {
          "internalType": "string",
          "name": "image",
          "type": "string"
        },
        {
          "internalType": "uint256",
          "name": "ticketPrice",
          "type": "uint256"
        },
        {
          "internalType": "uint256",
          "name": "ticketCount",
          "type": "uint256"
        },
        {
          "internalType": "uint256",
          "name": "ticketSold",
          "type": "uint256"
        },
        {
          "internalType": "uint256",
          "name": "totalAmountToWin",
          "type": "uint256"
        },
        {
          "internalType": "bool",
          "name": "isActive",
          "type": "bool"
        },
        {
          "internalType": "uint256",
          "name": "createadAt",
          "type": "uint256"
        },
        {
          "internalType": "address",
          "name": "winner",
          "type": "address"
        },
        {
          "internalType": "bool",
          "name": "isWhidrawn",
          "type": "bool"
        }
      ],
      "stateMutability": "view",
      "type": "function"
    },
    {
      "inputs": [
        {
          "internalType": "address",
          "name": "_tokenAddres",
          "type": "address"
        },
        {
          "internalType": "uint256",
          "name": "_amount",
          "type": "uint256"
        }
      ],
      "name": "sendUSDT",
      "outputs": [],
      "stateMutability": "nonpayable",
      "type": "function"
    },
    {
      "inputs": [
        {
          "internalType": "uint256",
          "name": "_fee",
          "type": "uint256"
        }
      ],
      "name": "setFee",
      "outputs": [],
      "stateMutability": "nonpayable",
      "type": "function"
    },
    {
      "inputs": [],
      "name": "withdrawFeeAmount",
      "outputs": [],
      "stateMutability": "nonpayable",
      "type": "function"
    },
    {
      "inputs": [
        {
          "internalType": "uint256",
          "name": "_raffleId",
          "type": "uint256"
        }
      ],
      "name": "withdrawRaffleAmount",
      "outputs": [],
      "stateMutability": "nonpayable",
      "type": "function"
    }
  ],
  "bytecode": "0x60806040526000600155600a60025534801561001a57600080fd5b50336000806101000a81548173ffffffffffffffffffffffffffffffffffffffff021916908373ffffffffffffffffffffffffffffffffffffffff160217905550613b738061006a6000396000f3fe60806040526004361061009c5760003560e01c806369fe0e2d1161006457806369fe0e2d146101945780638da5cb5b146101bd578063a410a7f2146101e8578063e856663414610225578063f41bc95e1461024e578063fac9b99c1461028b5761009c565b8063298ec208146100a157806338ebda8b146100bd57806353b6222f146100e65780635d4bc0ce1461012357806367afe31b1461016b575b600080fd5b6100bb60048036038101906100b69190612730565b6102a2565b005b3480156100c957600080fd5b506100e460048036038101906100df91906128b6565b610956565b005b3480156100f257600080fd5b5061010d600480360381019061010891906129c7565b610b8e565b60405161011a9190612c79565b60405180910390f35b34801561012f57600080fd5b5061014a60048036038101906101459190612c9b565b610fac565b6040516101629c9b9a99989796959493929190612d3f565b60405180910390f35b34801561017757600080fd5b50610192600480360381019061018d9190612e07565b611176565b005b3480156101a057600080fd5b506101bb60048036038101906101b69190612c9b565b611207565b005b3480156101c957600080fd5b506101d2611219565b6040516101df9190612e47565b60405180910390f35b3480156101f457600080fd5b5061020f600480360381019061020a91906129c7565b61123d565b60405161021c9190612f9a565b60405180910390f35b34801561023157600080fd5b5061024c60048036038101906102479190612c9b565b611a24565b005b34801561025a57600080fd5b5061027560048036038101906102709190612c9b565b611d15565b6040516102829190612f9a565b60405180910390f35b34801561029757600080fd5b506102a0612052565b005b6003600083815260200190815260200160002060080160009054906101000a900460ff16610305576040517f08c379a00000000000000000000000000000000000000000000000000000000081526004016102fc90613008565b60405180910390fd5b8060036000848152602001908152602001600020600401546103279190613057565b3414610368576040517f08c379a000000000000000000000000000000000000000000000000000000000815260040161035f906130e5565b60405180910390fd5b80600360008481526020019081526020016000206006015461038a9190613105565b600360008481526020019081526020016000206005015410156103e2576040517f08c379a00000000000000000000000000000000000000000000000000000000081526004016103d990613185565b60405180910390fd5b60005b818110156108ac57600460008481526020019081526020016000206040518060a00160405280600184600360008981526020019081526020016000206006015461042f9190613105565b6104399190613105565b81526020018581526020013373ffffffffffffffffffffffffffffffffffffffff16815260200142815260200160036000878152602001908152602001600020604051806101800160405290816000820160009054906101000a900473ffffffffffffffffffffffffffffffffffffffff1673ffffffffffffffffffffffffffffffffffffffff1673ffffffffffffffffffffffffffffffffffffffff168152602001600182015481526020016002820180546104f5906131d4565b80601f0160208091040260200160405190810160405280929190818152602001828054610521906131d4565b801561056e5780601f106105435761010080835404028352916020019161056e565b820191906000526020600020905b81548152906001019060200180831161055157829003601f168201915b50505050508152602001600382018054610587906131d4565b80601f01602080910402602001604051908101604052809291908181526020018280546105b3906131d4565b80156106005780601f106105d557610100808354040283529160200191610600565b820191906000526020600020905b8154815290600101906020018083116105e357829003601f168201915b50505050508152602001600482015481526020016005820154815260200160068201548152602001600782015481526020016008820160009054906101000a900460ff1615151515815260200160098201548152602001600a820160009054906101000a900473ffffffffffffffffffffffffffffffffffffffff1673ffffffffffffffffffffffffffffffffffffffff1673ffffffffffffffffffffffffffffffffffffffff168152602001600a820160149054906101000a900460ff16151515158152505081525090806001815401808255809150506001900390600052602060002090600f0201600090919091909150600082015181600001556020820151816001015560408201518160020160006101000a81548173ffffffffffffffffffffffffffffffffffffffff021916908373ffffffffffffffffffffffffffffffffffffffff1602179055506060820151816003015560808201518160040160008201518160000160006101000a81548173ffffffffffffffffffffffffffffffffffffffff021916908373ffffffffffffffffffffffffffffffffffffffff1602179055506020820151816001015560408201518160020190816107c791906133b1565b5060608201518160030190816107dd91906133b1565b506080820151816004015560a0820151816005015560c0820151816006015560e082015181600701556101008201518160080160006101000a81548160ff021916908315150217905550610120820151816009015561014082015181600a0160006101000a81548173ffffffffffffffffffffffffffffffffffffffff021916908373ffffffffffffffffffffffffffffffffffffffff16021790555061016082015181600a0160146101000a81548160ff0219169083151502179055505050505080806001019150506103e5565b50806003600084815260200190815260200160002060060160008282546108d39190613105565b925050819055507f913d09b391f64143215d9312fd7e8ecaa06001c646789c9d2109dc515bc34fad82338360405161090d93929190613483565b60405180910390a16003600083815260200190815260200160002060060154600360008481526020019081526020016000206005015403610952576109518261212a565b5b5050565b60016000815480929190610969906134ba565b91905055506040518061018001604052803373ffffffffffffffffffffffffffffffffffffffff168152602001600154815260200186815260200185815260200184815260200183815260200160008152602001828152602001600115158152602001428152602001600073ffffffffffffffffffffffffffffffffffffffff1681526020016000151581525060036000600154815260200190815260200160002060008201518160000160006101000a81548173ffffffffffffffffffffffffffffffffffffffff021916908373ffffffffffffffffffffffffffffffffffffffff160217905550602082015181600101556040820151816002019081610a7191906133b1565b506060820151816003019081610a8791906133b1565b506080820151816004015560a0820151816005015560c0820151816006015560e082015181600701556101008201518160080160006101000a81548160ff021916908315150217905550610120820151816009015561014082015181600a0160006101000a81548173ffffffffffffffffffffffffffffffffffffffff021916908373ffffffffffffffffffffffffffffffffffffffff16021790555061016082015181600a0160146101000a81548160ff0219169083151502179055509050507fa67a3ae202f19c155f33ec43781f888d5b6b6ddf7467ff4893647ece828a26b2600154868585604051610b7f9493929190613502565b60405180910390a15050505050565b6060600080600190505b6001548111610c2c578373ffffffffffffffffffffffffffffffffffffffff166003600083815260200190815260200160002060000160009054906101000a900473ffffffffffffffffffffffffffffffffffffffff1673ffffffffffffffffffffffffffffffffffffffff1603610c19578180610c15906134ba565b9250505b8080610c24906134ba565b915050610b98565b5060008167ffffffffffffffff811115610c4957610c4861278b565b5b604051908082528060200260200182016040528015610c8257816020015b610c6f61260a565b815260200190600190039081610c675790505b509050600080600190505b6001548111610fa0578573ffffffffffffffffffffffffffffffffffffffff166003600083815260200190815260200160002060000160009054906101000a900473ffffffffffffffffffffffffffffffffffffffff1673ffffffffffffffffffffffffffffffffffffffff1603610f8d5760036000828152602001908152602001600020604051806101800160405290816000820160009054906101000a900473ffffffffffffffffffffffffffffffffffffffff1673ffffffffffffffffffffffffffffffffffffffff1673ffffffffffffffffffffffffffffffffffffffff16815260200160018201548152602001600282018054610d8e906131d4565b80601f0160208091040260200160405190810160405280929190818152602001828054610dba906131d4565b8015610e075780601f10610ddc57610100808354040283529160200191610e07565b820191906000526020600020905b815481529060010190602001808311610dea57829003601f168201915b50505050508152602001600382018054610e20906131d4565b80601f0160208091040260200160405190810160405280929190818152602001828054610e4c906131d4565b8015610e995780601f10610e6e57610100808354040283529160200191610e99565b820191906000526020600020905b815481529060010190602001808311610e7c57829003601f168201915b50505050508152602001600482015481526020016005820154815260200160068201548152602001600782015481526020016008820160009054906101000a900460ff1615151515815260200160098201548152602001600a820160009054906101000a900473ffffffffffffffffffffffffffffffffffffffff1673ffffffffffffffffffffffffffffffffffffffff1673ffffffffffffffffffffffffffffffffffffffff168152602001600a820160149054906101000a900460ff161515151581525050838381518110610f7357610f7261354e565b5b60200260200101819052508180610f89906134ba565b9250505b8080610f98906134ba565b915050610c8d565b50819350505050919050565b60036020528060005260406000206000915090508060000160009054906101000a900473ffffffffffffffffffffffffffffffffffffffff1690806001015490806002018054610ffb906131d4565b80601f0160208091040260200160405190810160405280929190818152602001828054611027906131d4565b80156110745780601f1061104957610100808354040283529160200191611074565b820191906000526020600020905b81548152906001019060200180831161105757829003601f168201915b505050505090806003018054611089906131d4565b80601f01602080910402602001604051908101604052809291908181526020018280546110b5906131d4565b80156111025780601f106110d757610100808354040283529160200191611102565b820191906000526020600020905b8154815290600101906020018083116110e557829003601f168201915b5050505050908060040154908060050154908060060154908060070154908060080160009054906101000a900460ff169080600901549080600a0160009054906101000a900473ffffffffffffffffffffffffffffffffffffffff169080600a0160149054906101000a900460ff1690508c565b61117e61257a565b60008290508073ffffffffffffffffffffffffffffffffffffffff1663a9059cbb30846040518363ffffffff1660e01b81526004016111be92919061357d565b6020604051808303816000875af11580156111dd573d6000803e3d6000fd5b505050506040513d601f19601f8201168201806040525081019061120191906135d2565b50505050565b61120f61257a565b8060028190555050565b60008054906101000a900473ffffffffffffffffffffffffffffffffffffffff1681565b6060600080600190505b600154811161132a5760005b6004600083815260200190815260200160002080549050811015611316578473ffffffffffffffffffffffffffffffffffffffff166004600084815260200190815260200160002082815481106112ad576112ac61354e565b5b90600052602060002090600f020160020160009054906101000a900473ffffffffffffffffffffffffffffffffffffffff1673ffffffffffffffffffffffffffffffffffffffff1603611309578280611305906134ba565b9350505b8080600101915050611253565b508080611322906134ba565b915050611247565b5060008167ffffffffffffffff8111156113475761134661278b565b5b60405190808252806020026020018201604052801561138057816020015b61136d61269b565b8152602001906001900390816113655790505b509050600080600190505b6001548111611a185760005b6004600083815260200190815260200160002080549050811015611a04578673ffffffffffffffffffffffffffffffffffffffff166004600084815260200190815260200160002082815481106113f1576113f061354e565b5b90600052602060002090600f020160020160009054906101000a900473ffffffffffffffffffffffffffffffffffffffff1673ffffffffffffffffffffffffffffffffffffffff16036119f7576004600083815260200190815260200160002081815481106114635761146261354e565b5b90600052602060002090600f02016040518060a001604052908160008201548152602001600182015481526020016002820160009054906101000a900473ffffffffffffffffffffffffffffffffffffffff1673ffffffffffffffffffffffffffffffffffffffff1673ffffffffffffffffffffffffffffffffffffffff1681526020016003820154815260200160048201604051806101800160405290816000820160009054906101000a900473ffffffffffffffffffffffffffffffffffffffff1673ffffffffffffffffffffffffffffffffffffffff1673ffffffffffffffffffffffffffffffffffffffff16815260200160018201548152602001600282018054611571906131d4565b80601f016020809104026020016040519081016040528092919081815260200182805461159d906131d4565b80156115ea5780601f106115bf576101008083540402835291602001916115ea565b820191906000526020600020905b8154815290600101906020018083116115cd57829003601f168201915b50505050508152602001600382018054611603906131d4565b80601f016020809104026020016040519081016040528092919081815260200182805461162f906131d4565b801561167c5780601f106116515761010080835404028352916020019161167c565b820191906000526020600020905b81548152906001019060200180831161165f57829003601f168201915b50505050508152602001600482015481526020016005820154815260200160068201548152602001600782015481526020016008820160009054906101000a900460ff1615151515815260200160098201548152602001600a820160009054906101000a900473ffffffffffffffffffffffffffffffffffffffff1673ffffffffffffffffffffffffffffffffffffffff1673ffffffffffffffffffffffffffffffffffffffff168152602001600a820160149054906101000a900460ff1615151515815250508152505084848151811061175a5761175961354e565b5b602002602001018190525060036000838152602001908152602001600020604051806101800160405290816000820160009054906101000a900473ffffffffffffffffffffffffffffffffffffffff1673ffffffffffffffffffffffffffffffffffffffff1673ffffffffffffffffffffffffffffffffffffffff168152602001600182015481526020016002820180546117f4906131d4565b80601f0160208091040260200160405190810160405280929190818152602001828054611820906131d4565b801561186d5780601f106118425761010080835404028352916020019161186d565b820191906000526020600020905b81548152906001019060200180831161185057829003601f168201915b50505050508152602001600382018054611886906131d4565b80601f01602080910402602001604051908101604052809291908181526020018280546118b2906131d4565b80156118ff5780601f106118d4576101008083540402835291602001916118ff565b820191906000526020600020905b8154815290600101906020018083116118e257829003601f168201915b50505050508152602001600482015481526020016005820154815260200160068201548152602001600782015481526020016008820160009054906101000a900460ff1615151515815260200160098201548152602001600a820160009054906101000a900473ffffffffffffffffffffffffffffffffffffffff1673ffffffffffffffffffffffffffffffffffffffff1673ffffffffffffffffffffffffffffffffffffffff168152602001600a820160149054906101000a900460ff1615151515815250508484815181106119d9576119d861354e565b5b60200260200101516080018190525082806119f3906134ba565b9350505b8080600101915050611397565b508080611a10906134ba565b91505061138b565b50819350505050919050565b3373ffffffffffffffffffffffffffffffffffffffff166003600083815260200190815260200160002060000160009054906101000a900473ffffffffffffffffffffffffffffffffffffffff1673ffffffffffffffffffffffffffffffffffffffff1614611ac8576040517f08c379a0000000000000000000000000000000000000000000000000000000008152600401611abf90613671565b60405180910390fd5b600015156003600083815260200190815260200160002060080160009054906101000a900460ff16151514611b32576040517f08c379a0000000000000000000000000000000000000000000000000000000008152600401611b29906136dd565b60405180910390fd5b6000151560036000838152602001908152602001600020600a0160149054906101000a900460ff16151514611b9c576040517f08c379a0000000000000000000000000000000000000000000000000000000008152600401611b9390613749565b60405180910390fd5b6000600360008381526020019081526020016000206004015490506000816003600085815260200190815260200160002060050154611bdb9190613057565b90506000606460025483611bef9190613057565b611bf99190613798565b90506000600360008681526020019081526020016000206007015490506000818385611c2591906137c9565b611c2f91906137c9565b905060003373ffffffffffffffffffffffffffffffffffffffff1682604051611c579061382e565b60006040518083038185875af1925050503d8060008114611c94576040519150601f19603f3d011682016040523d82523d6000602084013e611c99565b606091505b5050905080611cdd576040517f08c379a0000000000000000000000000000000000000000000000000000000008152600401611cd49061388f565b60405180910390fd5b600160036000898152602001908152602001600020600a0160146101000a81548160ff02191690831515021790555050505050505050565b606060046000838152602001908152602001600020805480602002602001604051908101604052809291908181526020016000905b8282101561204757838290600052602060002090600f02016040518060a001604052908160008201548152602001600182015481526020016002820160009054906101000a900473ffffffffffffffffffffffffffffffffffffffff1673ffffffffffffffffffffffffffffffffffffffff1673ffffffffffffffffffffffffffffffffffffffff1681526020016003820154815260200160048201604051806101800160405290816000820160009054906101000a900473ffffffffffffffffffffffffffffffffffffffff1673ffffffffffffffffffffffffffffffffffffffff1673ffffffffffffffffffffffffffffffffffffffff16815260200160018201548152602001600282018054611e62906131d4565b80601f0160208091040260200160405190810160405280929190818152602001828054611e8e906131d4565b8015611edb5780601f10611eb057610100808354040283529160200191611edb565b820191906000526020600020905b815481529060010190602001808311611ebe57829003601f168201915b50505050508152602001600382018054611ef4906131d4565b80601f0160208091040260200160405190810160405280929190818152602001828054611f20906131d4565b8015611f6d5780601f10611f4257610100808354040283529160200191611f6d565b820191906000526020600020905b815481529060010190602001808311611f5057829003601f168201915b50505050508152602001600482015481526020016005820154815260200160068201548152602001600782015481526020016008820160009054906101000a900460ff1615151515815260200160098201548152602001600a820160009054906101000a900473ffffffffffffffffffffffffffffffffffffffff1673ffffffffffffffffffffffffffffffffffffffff1673ffffffffffffffffffffffffffffffffffffffff168152602001600a820160149054906101000a900460ff1615151515815250508152505081526020019060010190611d4a565b505050509050919050565b61205a61257a565b60008060009054906101000a900473ffffffffffffffffffffffffffffffffffffffff1673ffffffffffffffffffffffffffffffffffffffff16476040516120a19061382e565b60006040518083038185875af1925050503d80600081146120de576040519150601f19603f3d011682016040523d82523d6000602084013e6120e3565b606091505b5050905080612127576040517f08c379a000000000000000000000000000000000000000000000000000000000815260040161211e9061388f565b60405180910390fd5b50565b6003600082815260200190815260200160002060080160009054906101000a900460ff1661218d576040517f08c379a000000000000000000000000000000000000000000000000000000000815260040161218490613008565b60405180910390fd5b60036000828152602001908152602001600020600601546003600083815260200190815260200160002060050154146121fb576040517f08c379a00000000000000000000000000000000000000000000000000000000081526004016121f2906138fb565b60405180910390fd5b600060036000838152602001908152602001600020600601544244600360008681526020019081526020016000206006015460405160200161223f9392919061393c565b6040516020818303038152906040528051906020012060001c6122629190613979565b9050600060046000848152602001908152602001600020828154811061228b5761228a61354e565b5b90600052602060002090600f020160020160009054906101000a900473ffffffffffffffffffffffffffffffffffffffff1690508060036000858152602001908152602001600020600a0160006101000a81548173ffffffffffffffffffffffffffffffffffffffff021916908373ffffffffffffffffffffffffffffffffffffffff16021790555060006003600085815260200190815260200160002060080160006101000a81548160ff02191690831515021790555060006003600085815260200190815260200160002060040154905060008160036000878152602001908152602001600020600501546123829190613057565b905060006064600254836123969190613057565b6123a09190613798565b905060006003600088815260200190815260200160002060070154905060008060009054906101000a900473ffffffffffffffffffffffffffffffffffffffff1673ffffffffffffffffffffffffffffffffffffffff16836040516124049061382e565b60006040518083038185875af1925050503d8060008114612441576040519150601f19603f3d011682016040523d82523d6000602084013e612446565b606091505b505090508061248a576040517f08c379a0000000000000000000000000000000000000000000000000000000008152600401612481906139f6565b60405180910390fd5b60008673ffffffffffffffffffffffffffffffffffffffff16836040516124b09061382e565b60006040518083038185875af1925050503d80600081146124ed576040519150601f19603f3d011682016040523d82523d6000602084013e6124f2565b606091505b5050905080612536576040517f08c379a000000000000000000000000000000000000000000000000000000000815260040161252d90613a62565b60405180910390fd5b7fb4d601e7092e672cbffcd1512cc6592c35b9947e1ebfeea7647231887a5224478988604051612567929190613a82565b60405180910390a1505050505050505050565b60008054906101000a900473ffffffffffffffffffffffffffffffffffffffff1673ffffffffffffffffffffffffffffffffffffffff163373ffffffffffffffffffffffffffffffffffffffff1614612608576040517f08c379a00000000000000000000000000000000000000000000000000000000081526004016125ff90613b1d565b60405180910390fd5b565b604051806101800160405280600073ffffffffffffffffffffffffffffffffffffffff1681526020016000815260200160608152602001606081526020016000815260200160008152602001600081526020016000815260200160001515815260200160008152602001600073ffffffffffffffffffffffffffffffffffffffff1681526020016000151581525090565b6040518060a001604052806000815260200160008152602001600073ffffffffffffffffffffffffffffffffffffffff168152602001600081526020016126e061260a565b81525090565b6000604051905090565b600080fd5b600080fd5b6000819050919050565b61270d816126fa565b811461271857600080fd5b50565b60008135905061272a81612704565b92915050565b60008060408385031215612747576127466126f0565b5b60006127558582860161271b565b92505060206127668582860161271b565b9150509250929050565b600080fd5b600080fd5b6000601f19601f8301169050919050565b7f4e487b7100000000000000000000000000000000000000000000000000000000600052604160045260246000fd5b6127c38261277a565b810181811067ffffffffffffffff821117156127e2576127e161278b565b5b80604052505050565b60006127f56126e6565b905061280182826127ba565b919050565b600067ffffffffffffffff8211156128215761282061278b565b5b61282a8261277a565b9050602081019050919050565b82818337600083830152505050565b600061285961285484612806565b6127eb565b90508281526020810184848401111561287557612874612775565b5b612880848285612837565b509392505050565b600082601f83011261289d5761289c612770565b5b81356128ad848260208601612846565b91505092915050565b600080600080600060a086880312156128d2576128d16126f0565b5b600086013567ffffffffffffffff8111156128f0576128ef6126f5565b5b6128fc88828901612888565b955050602086013567ffffffffffffffff81111561291d5761291c6126f5565b5b61292988828901612888565b945050604061293a8882890161271b565b935050606061294b8882890161271b565b925050608061295c8882890161271b565b9150509295509295909350565b600073ffffffffffffffffffffffffffffffffffffffff82169050919050565b600061299482612969565b9050919050565b6129a481612989565b81146129af57600080fd5b50565b6000813590506129c18161299b565b92915050565b6000602082840312156129dd576129dc6126f0565b5b60006129eb848285016129b2565b91505092915050565b600081519050919050565b600082825260208201905092915050565b6000819050602082019050919050565b612a2981612989565b82525050565b612a38816126fa565b82525050565b600081519050919050565b600082825260208201905092915050565b60005b83811015612a78578082015181840152602081019050612a5d565b60008484015250505050565b6000612a8f82612a3e565b612a998185612a49565b9350612aa9818560208601612a5a565b612ab28161277a565b840191505092915050565b60008115159050919050565b612ad281612abd565b82525050565b600061018083016000830151612af16000860182612a20565b506020830151612b046020860182612a2f565b5060408301518482036040860152612b1c8282612a84565b91505060608301518482036060860152612b368282612a84565b9150506080830151612b4b6080860182612a2f565b5060a0830151612b5e60a0860182612a2f565b5060c0830151612b7160c0860182612a2f565b5060e0830151612b8460e0860182612a2f565b50610100830151612b99610100860182612ac9565b50610120830151612bae610120860182612a2f565b50610140830151612bc3610140860182612a20565b50610160830151612bd8610160860182612ac9565b508091505092915050565b6000612bef8383612ad8565b905092915050565b6000602082019050919050565b6000612c0f826129f4565b612c1981856129ff565b935083602082028501612c2b85612a10565b8060005b85811015612c675784840389528151612c488582612be3565b9450612c5383612bf7565b925060208a01995050600181019050612c2f565b50829750879550505050505092915050565b60006020820190508181036000830152612c938184612c04565b905092915050565b600060208284031215612cb157612cb06126f0565b5b6000612cbf8482850161271b565b91505092915050565b612cd181612989565b82525050565b612ce0816126fa565b82525050565b600082825260208201905092915050565b6000612d0282612a3e565b612d0c8185612ce6565b9350612d1c818560208601612a5a565b612d258161277a565b840191505092915050565b612d3981612abd565b82525050565b600061018082019050612d55600083018f612cc8565b612d62602083018e612cd7565b8181036040830152612d74818d612cf7565b90508181036060830152612d88818c612cf7565b9050612d97608083018b612cd7565b612da460a083018a612cd7565b612db160c0830189612cd7565b612dbe60e0830188612cd7565b612dcc610100830187612d30565b612dda610120830186612cd7565b612de8610140830185612cc8565b612df6610160830184612d30565b9d9c50505050505050505050505050565b60008060408385031215612e1e57612e1d6126f0565b5b6000612e2c858286016129b2565b9250506020612e3d8582860161271b565b9150509250929050565b6000602082019050612e5c6000830184612cc8565b92915050565b600081519050919050565b600082825260208201905092915050565b6000819050602082019050919050565b600060a083016000830151612ea66000860182612a2f565b506020830151612eb96020860182612a2f565b506040830151612ecc6040860182612a20565b506060830151612edf6060860182612a2f565b5060808301518482036080860152612ef78282612ad8565b9150508091505092915050565b6000612f108383612e8e565b905092915050565b6000602082019050919050565b6000612f3082612e62565b612f3a8185612e6d565b935083602082028501612f4c85612e7e565b8060005b85811015612f885784840389528151612f698582612f04565b9450612f7483612f18565b925060208a01995050600181019050612f50565b50829750879550505050505092915050565b60006020820190508181036000830152612fb48184612f25565b905092915050565b7f526166666c65206973206e6f7420616374697665000000000000000000000000600082015250565b6000612ff2601483612ce6565b9150612ffd82612fbc565b602082019050919050565b6000602082019050818103600083015261302181612fe5565b9050919050565b7f4e487b7100000000000000000000000000000000000000000000000000000000600052601160045260246000fd5b6000613062826126fa565b915061306d836126fa565b925082820261307b816126fa565b9150828204841483151761309257613091613028565b5b5092915050565b7f496e76616c696420616d6f756e74000000000000000000000000000000000000600082015250565b60006130cf600e83612ce6565b91506130da82613099565b602082019050919050565b600060208201905081810360008301526130fe816130c2565b9050919050565b6000613110826126fa565b915061311b836126fa565b925082820190508082111561313357613132613028565b5b92915050565b7f4e6f7420656e6f756768207469636b6574730000000000000000000000000000600082015250565b600061316f601283612ce6565b915061317a82613139565b602082019050919050565b6000602082019050818103600083015261319e81613162565b9050919050565b7f4e487b7100000000000000000000000000000000000000000000000000000000600052602260045260246000fd5b600060028204905060018216806131ec57607f821691505b6020821081036131ff576131fe6131a5565b5b50919050565b60008190508160005260206000209050919050565b60006020601f8301049050919050565b600082821b905092915050565b6000600883026132677fffffffffffffffffffffffffffffffffffffffffffffffffffffffffffffffff8261322a565b613271868361322a565b95508019841693508086168417925050509392505050565b6000819050919050565b60006132ae6132a96132a4846126fa565b613289565b6126fa565b9050919050565b6000819050919050565b6132c883613293565b6132dc6132d4826132b5565b848454613237565b825550505050565b600090565b6132f16132e4565b6132fc8184846132bf565b505050565b5b81811015613320576133156000826132e9565b600181019050613302565b5050565b601f8211156133655761333681613205565b61333f8461321a565b8101602085101561334e578190505b61336261335a8561321a565b830182613301565b50505b505050565b600082821c905092915050565b60006133886000198460080261336a565b1980831691505092915050565b60006133a18383613377565b9150826002028217905092915050565b6133ba82612a3e565b67ffffffffffffffff8111156133d3576133d261278b565b5b6133dd82546131d4565b6133e8828285613324565b600060209050601f83116001811461341b5760008415613409578287015190505b6134138582613395565b86555061347b565b601f19841661342986613205565b60005b828110156134515784890151825560018201915060208501945060208101905061342c565b8683101561346e578489015161346a601f891682613377565b8355505b6001600288020188555050505b505050505050565b60006060820190506134986000830186612cd7565b6134a56020830185612cc8565b6134b26040830184612cd7565b949350505050565b60006134c5826126fa565b91507fffffffffffffffffffffffffffffffffffffffffffffffffffffffffffffffff82036134f7576134f6613028565b5b600182019050919050565b60006080820190506135176000830187612cd7565b81810360208301526135298186612cf7565b90506135386040830185612cd7565b6135456060830184612cd7565b95945050505050565b7f4e487b7100000000000000000000000000000000000000000000000000000000600052603260045260246000fd5b60006040820190506135926000830185612cc8565b61359f6020830184612cd7565b9392505050565b6135af81612abd565b81146135ba57600080fd5b50565b6000815190506135cc816135a6565b92915050565b6000602082840312156135e8576135e76126f0565b5b60006135f6848285016135bd565b91505092915050565b7f4f6e6c79206f776e65722063616e2077697468647261772074686520616d6f7560008201527f6e74000000000000000000000000000000000000000000000000000000000000602082015250565b600061365b602283612ce6565b9150613666826135ff565b604082019050919050565b6000602082019050818103600083015261368a8161364e565b9050919050565b7f526166666c65206973207374696c6c2061637469766500000000000000000000600082015250565b60006136c7601683612ce6565b91506136d282613691565b602082019050919050565b600060208201905081810360008301526136f6816136ba565b9050919050565b7f416d6f756e7420616c72656164792077697468647261776e0000000000000000600082015250565b6000613733601883612ce6565b915061373e826136fd565b602082019050919050565b6000602082019050818103600083015261376281613726565b9050919050565b7f4e487b7100000000000000000000000000000000000000000000000000000000600052601260045260246000fd5b60006137a3826126fa565b91506137ae836126fa565b9250826137be576137bd613769565b5b828204905092915050565b60006137d4826126fa565b91506137df836126fa565b92508282039050818111156137f7576137f6613028565b5b92915050565b600081905092915050565b50565b60006138186000836137fd565b915061382382613808565b600082019050919050565b60006138398261380b565b9150819050919050565b7f5769746864726177206661696c65640000000000000000000000000000000000600082015250565b6000613879600f83612ce6565b915061388482613843565b602082019050919050565b600060208201905081810360008301526138a88161386c565b9050919050565b7f526166666c65206973206e6f7420636f6d706c65746500000000000000000000600082015250565b60006138e5601683612ce6565b91506138f0826138af565b602082019050919050565b60006020820190508181036000830152613914816138d8565b9050919050565b6000819050919050565b613936613931826126fa565b61391b565b82525050565b60006139488286613925565b6020820191506139588285613925565b6020820191506139688284613925565b602082019150819050949350505050565b6000613984826126fa565b915061398f836126fa565b92508261399f5761399e613769565b5b828206905092915050565b7f466565207472616e7366657220746f206f776e6572206661696c656400000000600082015250565b60006139e0601c83612ce6565b91506139eb826139aa565b602082019050919050565b60006020820190508181036000830152613a0f816139d3565b9050919050565b7f57696e6e6572207472616e73666572206661696c656400000000000000000000600082015250565b6000613a4c601683612ce6565b9150613a5782613a16565b602082019050919050565b60006020820190508181036000830152613a7b81613a3f565b9050919050565b6000604082019050613a976000830185612cd7565b613aa46020830184612cc8565b9392505050565b7f4f6e6c79206f776e65722063616e2063616c6c20746869732066756e6374696f60008201527f6e00000000000000000000000000000000000000000000000000000000000000602082015250565b6000613b07602183612ce6565b9150613b1282613aab565b604082019050919050565b60006020820190508181036000830152613b3681613afa565b905091905056fea26469706673582212200b1db3aa77a968566d11f9f68766c7bc985f59929f01eeb81621207c8c623f4264736f6c63430008180033",
  "linkReferences": {},
  "deployedLinkReferences": {}
}