{
  "_format": "hh-sol-artifact-1",
  "contractName": "Rifa",
  "sourceName": "contracts/RifaChain.sol",
  "abi": [
    {
      "inputs": [],
      "stateMutability": "nonpayable",
      "type": "constructor"
    },
    {
      "anonymous": false,
      "inputs": [
        {
          "indexed": false,
          "internalType": "address",
          "name": "comprador",
          "type": "address"
        },
        {
          "indexed": false,
          "internalType": "uint256",
          "name": "idBilhete",
          "type": "uint256"
        }
      ],
      "name": "BilheteComprado",
      "type": "event"
    },
    {
      "anonymous": false,
      "inputs": [
        {
          "indexed": false,
          "internalType": "uint256",
          "name": "idRifa",
          "type": "uint256"
        },
        {
          "indexed": false,
          "internalType": "uint256",
          "name": "valorPremio",
          "type": "uint256"
        }
      ],
      "name": "RifaCriada",
      "type": "event"
    },
    {
      "anonymous": false,
      "inputs": [
        {
          "indexed": false,
          "internalType": "uint256",
          "name": "idRifa",
          "type": "uint256"
        },
        {
          "indexed": false,
          "internalType": "address",
          "name": "ganhador",
          "type": "address"
        }
      ],
      "name": "RifaFinalizada",
      "type": "event"
    },
    {
      "anonymous": false,
      "inputs": [
        {
          "indexed": false,
          "internalType": "address",
          "name": "destinatario",
          "type": "address"
        },
        {
          "indexed": false,
          "internalType": "uint256",
          "name": "valor",
          "type": "uint256"
        }
      ],
      "name": "SaqueRealizado",
      "type": "event"
    },
    {
      "anonymous": false,
      "inputs": [
        {
          "indexed": false,
          "internalType": "address",
          "name": "administrador",
          "type": "address"
        },
        {
          "indexed": false,
          "internalType": "uint256",
          "name": "valorTaxaAdministrativa",
          "type": "uint256"
        }
      ],
      "name": "TaxaAdministrativaRecebida",
      "type": "event"
    },
    {
      "inputs": [],
      "name": "administrador",
      "outputs": [
        {
          "internalType": "address",
          "name": "",
          "type": "address"
        }
      ],
      "stateMutability": "view",
      "type": "function"
    },
    {
      "inputs": [
        {
          "internalType": "uint256",
          "name": "_novaTaxa",
          "type": "uint256"
        }
      ],
      "name": "ajustarTaxaAdministrativa",
      "outputs": [],
      "stateMutability": "nonpayable",
      "type": "function"
    },
    {
      "inputs": [
        {
          "internalType": "uint256",
          "name": "",
          "type": "uint256"
        }
      ],
      "name": "bilhetes",
      "outputs": [
        {
          "internalType": "address",
          "name": "dono",
          "type": "address"
        },
        {
          "internalType": "bool",
          "name": "vendido",
          "type": "bool"
        }
      ],
      "stateMutability": "view",
      "type": "function"
    },
    {
      "inputs": [
        {
          "internalType": "uint256",
          "name": "_idRifa",
          "type": "uint256"
        }
      ],
      "name": "cancelarRifa",
      "outputs": [],
      "stateMutability": "nonpayable",
      "type": "function"
    },
    {
      "inputs": [
        {
          "internalType": "uint256",
          "name": "_idRifa",
          "type": "uint256"
        },
        {
          "internalType": "uint256",
          "name": "_qntBilhetes",
          "type": "uint256"
        }
      ],
      "name": "comprarBilhete",
      "outputs": [],
      "stateMutability": "payable",
      "type": "function"
    },
    {
      "inputs": [
        {
          "internalType": "uint256",
          "name": "_valorPremio",
          "type": "uint256"
        },
        {
          "internalType": "uint256",
          "name": "_precoBilhete",
          "type": "uint256"
        },
        {
          "internalType": "uint256",
          "name": "_quantidadeBilhete",
          "type": "uint256"
        }
      ],
      "name": "criarRifa",
      "outputs": [
        {
          "internalType": "uint256",
          "name": "idRifa",
          "type": "uint256"
        }
      ],
      "stateMutability": "nonpayable",
      "type": "function"
    },
    {
      "inputs": [
        {
          "internalType": "uint256",
          "name": "_idRifa",
          "type": "uint256"
        }
      ],
      "name": "finalizarRifa",
      "outputs": [],
      "stateMutability": "nonpayable",
      "type": "function"
    },
    {
      "inputs": [
        {
          "internalType": "uint256",
          "name": "",
          "type": "uint256"
        }
      ],
      "name": "rifas",
      "outputs": [
        {
          "internalType": "uint256",
          "name": "id",
          "type": "uint256"
        },
        {
          "internalType": "uint256",
          "name": "valorPremio",
          "type": "uint256"
        },
        {
          "internalType": "uint256",
          "name": "precoBilhete",
          "type": "uint256"
        },
        {
          "internalType": "uint256",
          "name": "quantidadeBilhete",
          "type": "uint256"
        },
        {
          "internalType": "uint256",
          "name": "bilhetesDisponiveis",
          "type": "uint256"
        },
        {
          "internalType": "uint256",
          "name": "valorTotal",
          "type": "uint256"
        },
        {
          "internalType": "address",
          "name": "administrador",
          "type": "address"
        },
        {
          "internalType": "address",
          "name": "ganhador",
          "type": "address"
        },
        {
          "internalType": "bool",
          "name": "rifaFinalizada",
          "type": "bool"
        }
      ],
      "stateMutability": "view",
      "type": "function"
    },
    {
      "inputs": [],
      "name": "sacarSaldoAdministrativo",
      "outputs": [],
      "stateMutability": "nonpayable",
      "type": "function"
    },
    {
      "inputs": [
        {
          "internalType": "uint256",
          "name": "_idRifa",
          "type": "uint256"
        }
      ],
      "name": "sacarValorArrecadado",
      "outputs": [],
      "stateMutability": "nonpayable",
      "type": "function"
    },
    {
      "inputs": [
        {
          "internalType": "address",
          "name": "",
          "type": "address"
        }
      ],
      "name": "saldoAdministrativo",
      "outputs": [
        {
          "internalType": "uint256",
          "name": "",
          "type": "uint256"
        }
      ],
      "stateMutability": "view",
      "type": "function"
    },
    {
      "inputs": [],
      "name": "taxaAdministrativa",
      "outputs": [
        {
          "internalType": "uint256",
          "name": "",
          "type": "uint256"
        }
      ],
      "stateMutability": "view",
      "type": "function"
    },
    {
      "inputs": [],
      "name": "ultimaRifaId",
      "outputs": [
        {
          "internalType": "uint256",
          "name": "",
          "type": "uint256"
        }
      ],
      "stateMutability": "view",
      "type": "function"
    }
  ],
  "bytecode": "0x6080604052600a6000556000600260146101000a81548160ff02191690831515021790555034801561003057600080fd5b5033600260006101000a81548173ffffffffffffffffffffffffffffffffffffffff021916908373ffffffffffffffffffffffffffffffffffffffff16021790555061253e806100816000396000f3fe6080604052600436106100c25760003560e01c806372d980df1161007f578063c5197e7711610059578063c5197e7714610233578063cd56997a14610278578063d531efb5146102a1578063f3bbad83146102de576100c2565b806372d980df146101b457806374f5e540146101df578063ba20fc661461020a576100c2565b80630c4886df146100c757806319630e1b146100e35780633ef646631461010c578063560d6bbe146101355780635ed2bc581461014c5780637062b97d14610189575b600080fd5b6100e160048036038101906100dc91906116ca565b61031c565b005b3480156100ef57600080fd5b5061010a6004803603810190610105919061170a565b610595565b005b34801561011857600080fd5b50610133600480360381019061012e919061170a565b610829565b005b34801561014157600080fd5b5061014a610914565b005b34801561015857600080fd5b50610173600480360381019061016e9190611737565b610b3b565b6040516101809190611799565b60405180910390f35b34801561019557600080fd5b5061019e610dde565b6040516101ab91906117f5565b60405180910390f35b3480156101c057600080fd5b506101c9610e04565b6040516101d69190611799565b60405180910390f35b3480156101eb57600080fd5b506101f4610e0a565b6040516102019190611799565b60405180910390f35b34801561021657600080fd5b50610231600480360381019061022c919061170a565b610e10565b005b34801561023f57600080fd5b5061025a6004803603810190610255919061170a565b6110ac565b60405161026f9998979695949392919061182b565b60405180910390f35b34801561028457600080fd5b5061029f600480360381019061029a919061170a565b611147565b005b3480156102ad57600080fd5b506102c860048036038101906102c391906118e4565b61154f565b6040516102d59190611799565b60405180910390f35b3480156102ea57600080fd5b506103056004803603810190610300919061170a565b611567565b604051610313929190611911565b60405180910390f35b6000600360008481526020019081526020016000209050600081600001540361037a576040517f08c379a000000000000000000000000000000000000000000000000000000000815260040161037190611997565b60405180910390fd5b8060070160149054906101000a900460ff16156103cc576040517f08c379a00000000000000000000000000000000000000000000000000000000081526004016103c390611a03565b60405180910390fd5b8181600401541015610413576040517f08c379a000000000000000000000000000000000000000000000000000000000815260040161040a90611a95565b60405180910390fd5b8181600201546104239190611ae4565b341015610465576040517f08c379a000000000000000000000000000000000000000000000000000000000815260040161045c90611b98565b60405180910390fd5b60005b828110156105795760006001836004015484600301546104889190611bb8565b6104929190611bec565b9050336004600083815260200190815260200160002060000160006101000a81548173ffffffffffffffffffffffffffffffffffffffff021916908373ffffffffffffffffffffffffffffffffffffffff16021790555060016004600083815260200190815260200160002060000160146101000a81548160ff02191690831515021790555082600401600081548092919061052d90611c20565b91905055507fc1b08244fd0980bab64af15ce86041df50137ac89779371abc2fad51ceb091453382604051610563929190611c49565b60405180910390a1508080600101915050610468565b5060008160040154036105905761058f83611147565b5b505050565b600060036000838152602001908152602001600020905060008160000154036105f3576040517f08c379a00000000000000000000000000000000000000000000000000000000081526004016105ea90611997565b60405180910390fd5b8060070160149054906101000a900460ff16610644576040517f08c379a000000000000000000000000000000000000000000000000000000000815260040161063b90611cbe565b60405180910390fd5b8060060160009054906101000a900473ffffffffffffffffffffffffffffffffffffffff1673ffffffffffffffffffffffffffffffffffffffff163373ffffffffffffffffffffffffffffffffffffffff16146106d6576040517f08c379a00000000000000000000000000000000000000000000000000000000081526004016106cd90611d50565b60405180910390fd5b600260149054906101000a900460ff1615610726576040517f08c379a000000000000000000000000000000000000000000000000000000000815260040161071d90611de2565b60405180910390fd5b6001600260146101000a81548160ff021916908315150217905550600081600501549050600060646000548361075c9190611ae4565b6107669190611e31565b905060008184600101548461077b9190611bb8565b6107859190611bb8565b90503373ffffffffffffffffffffffffffffffffffffffff166108fc829081150290604051600060405180830381858888f193505050501580156107cd573d6000803e3d6000fd5b507fff12809415c01c2cf89ed7c318b357cb402d1ce96537d1592e9966b4f425e4d433826040516107ff929190611c49565b60405180910390a16000600260146101000a81548160ff0219169083151502179055505050505050565b600260009054906101000a900473ffffffffffffffffffffffffffffffffffffffff1673ffffffffffffffffffffffffffffffffffffffff163373ffffffffffffffffffffffffffffffffffffffff16146108b9576040517f08c379a00000000000000000000000000000000000000000000000000000000081526004016108b090611ed4565b60405180910390fd5b600081101580156108cb575060648111155b61090a576040517f08c379a000000000000000000000000000000000000000000000000000000000815260040161090190611f66565b60405180910390fd5b8060008190555050565b600260009054906101000a900473ffffffffffffffffffffffffffffffffffffffff1673ffffffffffffffffffffffffffffffffffffffff163373ffffffffffffffffffffffffffffffffffffffff16146109a4576040517f08c379a000000000000000000000000000000000000000000000000000000000815260040161099b90611ed4565b60405180910390fd5b6000600560003373ffffffffffffffffffffffffffffffffffffffff1673ffffffffffffffffffffffffffffffffffffffff16815260200190815260200160002054905060008111610a2b576040517f08c379a0000000000000000000000000000000000000000000000000000000008152600401610a2290611ff8565b60405180910390fd5b610a34336115b8565b610a73576040517f08c379a0000000000000000000000000000000000000000000000000000000008152600401610a6a90612064565b60405180910390fd5b6000600560003373ffffffffffffffffffffffffffffffffffffffff1673ffffffffffffffffffffffffffffffffffffffff168152602001908152602001600020819055503373ffffffffffffffffffffffffffffffffffffffff166108fc829081150290604051600060405180830381858888f19350505050158015610afe573d6000803e3d6000fd5b507fff12809415c01c2cf89ed7c318b357cb402d1ce96537d1592e9966b4f425e4d43382604051610b30929190611c49565b60405180910390a150565b6000808411610b7f576040517f08c379a0000000000000000000000000000000000000000000000000000000008152600401610b76906120f6565b60405180910390fd5b60008311610bc2576040517f08c379a0000000000000000000000000000000000000000000000000000000008152600401610bb990612188565b60405180910390fd5b60008211610c05576040517f08c379a0000000000000000000000000000000000000000000000000000000008152600401610bfc9061221a565b60405180910390fd5b60016000815480929190610c189061223a565b919050555060015490506040518061012001604052808281526020018581526020018481526020018381526020018381526020018484610c589190611ae4565b81526020013373ffffffffffffffffffffffffffffffffffffffff168152602001600073ffffffffffffffffffffffffffffffffffffffff1681526020016000151581525060036000838152602001908152602001600020600082015181600001556020820151816001015560408201518160020155606082015181600301556080820151816004015560a0820151816005015560c08201518160060160006101000a81548173ffffffffffffffffffffffffffffffffffffffff021916908373ffffffffffffffffffffffffffffffffffffffff16021790555060e08201518160070160006101000a81548173ffffffffffffffffffffffffffffffffffffffff021916908373ffffffffffffffffffffffffffffffffffffffff1602179055506101008201518160070160146101000a81548160ff0219169083151502179055509050507f9f788631323233e97aa120b252b89837fbc7d796f463281e8c4ff2d94b745f008185604051610dcf929190612282565b60405180910390a19392505050565b600260009054906101000a900473ffffffffffffffffffffffffffffffffffffffff1681565b60005481565b60015481565b60006003600083815260200190815260200160002090506000816000015403610e6e576040517f08c379a0000000000000000000000000000000000000000000000000000000008152600401610e6590611997565b60405180910390fd5b8060060160009054906101000a900473ffffffffffffffffffffffffffffffffffffffff1673ffffffffffffffffffffffffffffffffffffffff163373ffffffffffffffffffffffffffffffffffffffff161480610f195750600260009054906101000a900473ffffffffffffffffffffffffffffffffffffffff1673ffffffffffffffffffffffffffffffffffffffff163373ffffffffffffffffffffffffffffffffffffffff16145b610f58576040517f08c379a0000000000000000000000000000000000000000000000000000000008152600401610f4f9061231d565b60405180910390fd5b8060070160149054906101000a900460ff1615610faa576040517f08c379a0000000000000000000000000000000000000000000000000000000008152600401610fa1906123af565b60405180910390fd5b806004015481600301541461108b576000600190505b81600301548111611089576004600082815260200190815260200160002060000160149054906101000a900460ff1615611076576004600082815260200190815260200160002060000160009054906101000a900473ffffffffffffffffffffffffffffffffffffffff1673ffffffffffffffffffffffffffffffffffffffff166108fc83600201549081150290604051600060405180830381858888f19350505050158015611074573d6000803e3d6000fd5b505b80806110819061223a565b915050610fc0565b505b60018160070160146101000a81548160ff0219169083151502179055505050565b60036020528060005260406000206000915090508060000154908060010154908060020154908060030154908060040154908060050154908060060160009054906101000a900473ffffffffffffffffffffffffffffffffffffffff16908060070160009054906101000a900473ffffffffffffffffffffffffffffffffffffffff16908060070160149054906101000a900460ff16905089565b600060036000838152602001908152602001600020905060008160000154036111a5576040517f08c379a000000000000000000000000000000000000000000000000000000000815260040161119c90611997565b60405180910390fd5b8060070160149054906101000a900460ff16156111f7576040517f08c379a00000000000000000000000000000000000000000000000000000000081526004016111ee90611a03565b60405180910390fd5b600081600401541461123e576040517f08c379a000000000000000000000000000000000000000000000000000000000815260040161123590612441565b60405180910390fd5b600060018260030154424460405160200161125a929190612482565b6040516020818303038152906040528051906020012060001c61127d91906124ae565b6112879190611bec565b90506004600082815260200190815260200160002060000160009054906101000a900473ffffffffffffffffffffffffffffffffffffffff168260070160006101000a81548173ffffffffffffffffffffffffffffffffffffffff021916908373ffffffffffffffffffffffffffffffffffffffff16021790555060018260070160146101000a81548160ff0219169083151502179055508160070160009054906101000a900473ffffffffffffffffffffffffffffffffffffffff1673ffffffffffffffffffffffffffffffffffffffff166108fc83600101549081150290604051600060405180830381858888f1935050505015801561138d573d6000803e3d6000fd5b506000606460005484600501546113a49190611ae4565b6113ae9190611e31565b90508060056000600260009054906101000a900473ffffffffffffffffffffffffffffffffffffffff1673ffffffffffffffffffffffffffffffffffffffff1673ffffffffffffffffffffffffffffffffffffffff16815260200190815260200160002060008282546114219190611bec565b92505081905550600260009054906101000a900473ffffffffffffffffffffffffffffffffffffffff1673ffffffffffffffffffffffffffffffffffffffff166108fc829081150290604051600060405180830381858888f19350505050158015611490573d6000803e3d6000fd5b507f6823229c48e2515e0419d97541510a5c6d9e94ce2b8741c001b9acb1fc6e1bc4848460070160009054906101000a900473ffffffffffffffffffffffffffffffffffffffff166040516114e69291906124df565b60405180910390a17f25d5cd9948bbe5aa16f7c9ceb592835ff8c5f142cdf6f2aae3e86da6e4f34668600260009054906101000a900473ffffffffffffffffffffffffffffffffffffffff1682604051611541929190611c49565b60405180910390a150505050565b60056020528060005260406000206000915090505481565b60046020528060005260406000206000915090508060000160009054906101000a900473ffffffffffffffffffffffffffffffffffffffff16908060000160149054906101000a900460ff16905082565b600080600090506000600190505b60015481116116435760006003600083815260200190815260200160002090508060070160149054906101000a900460ff161561162f576000606460005483600501546116139190611ae4565b61161d9190611e31565b9050808461162b9190611bec565b9350505b50808061163b9061223a565b9150506115c6565b5080600560008573ffffffffffffffffffffffffffffffffffffffff1673ffffffffffffffffffffffffffffffffffffffff168152602001908152602001600020541115915050919050565b600080fd5b6000819050919050565b6116a781611694565b81146116b257600080fd5b50565b6000813590506116c48161169e565b92915050565b600080604083850312156116e1576116e061168f565b5b60006116ef858286016116b5565b9250506020611700858286016116b5565b9150509250929050565b6000602082840312156117205761171f61168f565b5b600061172e848285016116b5565b91505092915050565b6000806000606084860312156117505761174f61168f565b5b600061175e868287016116b5565b935050602061176f868287016116b5565b9250506040611780868287016116b5565b9150509250925092565b61179381611694565b82525050565b60006020820190506117ae600083018461178a565b92915050565b600073ffffffffffffffffffffffffffffffffffffffff82169050919050565b60006117df826117b4565b9050919050565b6117ef816117d4565b82525050565b600060208201905061180a60008301846117e6565b92915050565b60008115159050919050565b61182581611810565b82525050565b600061012082019050611841600083018c61178a565b61184e602083018b61178a565b61185b604083018a61178a565b611868606083018961178a565b611875608083018861178a565b61188260a083018761178a565b61188f60c08301866117e6565b61189c60e08301856117e6565b6118aa61010083018461181c565b9a9950505050505050505050565b6118c1816117d4565b81146118cc57600080fd5b50565b6000813590506118de816118b8565b92915050565b6000602082840312156118fa576118f961168f565b5b6000611908848285016118cf565b91505092915050565b600060408201905061192660008301856117e6565b611933602083018461181c565b9392505050565b600082825260208201905092915050565b7f52696661206ec3a36f20656e636f6e7472616461000000000000000000000000600082015250565b600061198160148361193a565b915061198c8261194b565b602082019050919050565b600060208201905081810360008301526119b081611974565b9050919050565b7f412072696661206ac3a120666f692066696e616c697a61646100000000000000600082015250565b60006119ed60198361193a565b91506119f8826119b7565b602082019050919050565b60006020820190508181036000830152611a1c816119e0565b9050919050565b7f4ec3a36f2068c3a12062696c686574657320737566696369656e74657320646960008201527f73706f6ec3ad7665697300000000000000000000000000000000000000000000602082015250565b6000611a7f602a8361193a565b9150611a8a82611a23565b604082019050919050565b60006020820190508181036000830152611aae81611a72565b9050919050565b7f4e487b7100000000000000000000000000000000000000000000000000000000600052601160045260246000fd5b6000611aef82611694565b9150611afa83611694565b9250828202611b0881611694565b91508282048414831517611b1f57611b1e611ab5565b5b5092915050565b7f56616c6f7220696e737566696369656e7465207061726120636f6d707261722060008201527f6f732062696c6865746573000000000000000000000000000000000000000000602082015250565b6000611b82602b8361193a565b9150611b8d82611b26565b604082019050919050565b60006020820190508181036000830152611bb181611b75565b9050919050565b6000611bc382611694565b9150611bce83611694565b9250828203905081811115611be657611be5611ab5565b5b92915050565b6000611bf782611694565b9150611c0283611694565b9250828201905080821115611c1a57611c19611ab5565b5b92915050565b6000611c2b82611694565b915060008203611c3e57611c3d611ab5565b5b600182039050919050565b6000604082019050611c5e60008301856117e6565b611c6b602083018461178a565b9392505050565b7f4120726966612061696e6461206ec3a36f20666f692066696e616c697a616461600082015250565b6000611ca860208361193a565b9150611cb382611c72565b602082019050919050565b60006020820190508181036000830152611cd781611c9b565b9050919050565b7f536f6d656e7465206f2061646d696e6973747261646f7220646120726966612060008201527f706f6465207361636172206f2076616c6f72206172726563616461646f000000602082015250565b6000611d3a603d8361193a565b9150611d4582611cde565b604082019050919050565b60006020820190508181036000830152611d6981611d2d565b9050919050565b7f46756ec3a7c3a36f20736163617256616c6f724172726563616461646f20656d60008201527f206578656375c3a7c3a36f000000000000000000000000000000000000000000602082015250565b6000611dcc602b8361193a565b9150611dd782611d70565b604082019050919050565b60006020820190508181036000830152611dfb81611dbf565b9050919050565b7f4e487b7100000000000000000000000000000000000000000000000000000000600052601260045260246000fd5b6000611e3c82611694565b9150611e4783611694565b925082611e5757611e56611e02565b5b828204905092915050565b7f536f6d656e7465206f2061646d696e6973747261646f7220646f20636f6e747260008201527f61746f20706f646520657865637574617220657373612066756ec3a7c3a36f00602082015250565b6000611ebe603f8361193a565b9150611ec982611e62565b604082019050919050565b60006020820190508181036000830152611eed81611eb1565b9050919050565b7f4120746178612061646d696e697374726174697661206465766520736572207560008201527f6d2076616c6f7220656e74726520302065203130300000000000000000000000602082015250565b6000611f5060358361193a565b9150611f5b82611ef4565b604082019050919050565b60006020820190508181036000830152611f7f81611f43565b9050919050565b7f53616c646f2061646d696e69737472617469766f20696e737566696369656e7460008201527f6500000000000000000000000000000000000000000000000000000000000000602082015250565b6000611fe260218361193a565b9150611fed82611f86565b604082019050919050565b6000602082019050818103600083015261201181611fd5565b9050919050565b7f53616c646f2061646d696e69737472617469766f20696e76c3a16c69646f0000600082015250565b600061204e601e8361193a565b915061205982612018565b602082019050919050565b6000602082019050818103600083015261207d81612041565b9050919050565b7f4f2076616c6f7220746f74616c2064612072696661206465766520736572206d60008201527f61696f7220717565207a65726f00000000000000000000000000000000000000602082015250565b60006120e0602d8361193a565b91506120eb82612084565b604082019050919050565b6000602082019050818103600083015261210f816120d3565b9050919050565b7f4f20707265c3a76f20646f2062696c68657465206465766520736572206d616960008201527f6f7220717565207a65726f000000000000000000000000000000000000000000602082015250565b6000612172602b8361193a565b915061217d82612116565b604082019050919050565b600060208201905081810360008301526121a181612165565b9050919050565b7f41207175616e7469646164652064652062696c6865746573206465766520736560008201527f72206d61696f7220717565207a65726f00000000000000000000000000000000602082015250565b600061220460308361193a565b915061220f826121a8565b604082019050919050565b60006020820190508181036000830152612233816121f7565b9050919050565b600061224582611694565b91507fffffffffffffffffffffffffffffffffffffffffffffffffffffffffffffffff820361227757612276611ab5565b5b600182019050919050565b6000604082019050612297600083018561178a565b6122a4602083018461178a565b9392505050565b7f536f6d656e7465206f2061646d696e6973747261646f7220646120726966612060008201527f706f64652063616e63656c617220612072696661000000000000000000000000602082015250565b600061230760348361193a565b9150612312826122ab565b604082019050919050565b60006020820190508181036000830152612336816122fa565b9050919050565b7f4ec3a36f20c3a920706f7373c3ad76656c2063616e63656c617220756d61207260008201527f6966612066696e616c697a616461000000000000000000000000000000000000602082015250565b6000612399602e8361193a565b91506123a48261233d565b604082019050919050565b600060208201905081810360008301526123c88161238c565b9050919050565b7f4120726966612061696e64612074656d2062696c686574657320646973706f6e60008201527fc3ad766569730000000000000000000000000000000000000000000000000000602082015250565b600061242b60268361193a565b9150612436826123cf565b604082019050919050565b6000602082019050818103600083015261245a8161241e565b9050919050565b6000819050919050565b61247c61247782611694565b612461565b82525050565b600061248e828561246b565b60208201915061249e828461246b565b6020820191508190509392505050565b60006124b982611694565b91506124c483611694565b9250826124d4576124d3611e02565b5b828206905092915050565b60006040820190506124f4600083018561178a565b61250160208301846117e6565b939250505056fea26469706673582212205ed83e7d8cc0c59cb5da5ff6613c7816ad8e6ad548e14a60c4a4187a7255690964736f6c63430008180033",
  "linkReferences": {},
  "deployedLinkReferences": {}
}