{
  "_format": "hh-sol-artifact-1",
  "contractName": "Rifa",
  "sourceName": "contracts/RifaChain.sol",
  "abi": [
    {
      "inputs": [],
      "stateMutability": "nonpayable",
      "type": "constructor"
    },
    {
      "anonymous": false,
      "inputs": [
        {
          "indexed": false,
          "internalType": "address",
          "name": "comprador",
          "type": "address"
        },
        {
          "indexed": false,
          "internalType": "uint256",
          "name": "idBilhete",
          "type": "uint256"
        }
      ],
      "name": "BilheteComprado",
      "type": "event"
    },
    {
      "anonymous": false,
      "inputs": [
        {
          "indexed": false,
          "internalType": "uint256",
          "name": "idRifa",
          "type": "uint256"
        },
        {
          "indexed": false,
          "internalType": "uint256",
          "name": "valorPremio",
          "type": "uint256"
        }
      ],
      "name": "RifaCriada",
      "type": "event"
    },
    {
      "anonymous": false,
      "inputs": [
        {
          "indexed": false,
          "internalType": "uint256",
          "name": "idRifa",
          "type": "uint256"
        },
        {
          "indexed": false,
          "internalType": "address",
          "name": "ganhador",
          "type": "address"
        }
      ],
      "name": "RifaFinalizada",
      "type": "event"
    },
    {
      "anonymous": false,
      "inputs": [
        {
          "indexed": false,
          "internalType": "address",
          "name": "destinatario",
          "type": "address"
        },
        {
          "indexed": false,
          "internalType": "uint256",
          "name": "valor",
          "type": "uint256"
        }
      ],
      "name": "SaqueRealizado",
      "type": "event"
    },
    {
      "anonymous": false,
      "inputs": [
        {
          "indexed": false,
          "internalType": "address",
          "name": "administrador",
          "type": "address"
        },
        {
          "indexed": false,
          "internalType": "uint256",
          "name": "valorTaxaAdministrativa",
          "type": "uint256"
        }
      ],
      "name": "TaxaAdministrativaRecebida",
      "type": "event"
    },
    {
      "inputs": [],
      "name": "administrador",
      "outputs": [
        {
          "internalType": "address",
          "name": "",
          "type": "address"
        }
      ],
      "stateMutability": "view",
      "type": "function"
    },
    {
      "inputs": [
        {
          "internalType": "uint256",
          "name": "_novaTaxa",
          "type": "uint256"
        }
      ],
      "name": "ajustarTaxaAdministrativa",
      "outputs": [],
      "stateMutability": "nonpayable",
      "type": "function"
    },
    {
      "inputs": [
        {
          "internalType": "uint256",
          "name": "",
          "type": "uint256"
        }
      ],
      "name": "bilhetes",
      "outputs": [
        {
          "internalType": "address",
          "name": "dono",
          "type": "address"
        },
        {
          "internalType": "bool",
          "name": "vendido",
          "type": "bool"
        }
      ],
      "stateMutability": "view",
      "type": "function"
    },
    {
      "inputs": [
        {
          "internalType": "uint256",
          "name": "_idRifa",
          "type": "uint256"
        }
      ],
      "name": "cancelarRifa",
      "outputs": [],
      "stateMutability": "nonpayable",
      "type": "function"
    },
    {
      "inputs": [
        {
          "internalType": "uint256",
          "name": "_idRifa",
          "type": "uint256"
        },
        {
          "internalType": "uint256",
          "name": "_qntBilhetes",
          "type": "uint256"
        }
      ],
      "name": "comprarBilhete",
      "outputs": [],
      "stateMutability": "payable",
      "type": "function"
    },
    {
      "inputs": [
        {
          "internalType": "uint256",
          "name": "_valorPremio",
          "type": "uint256"
        },
        {
          "internalType": "uint256",
          "name": "_precoBilhete",
          "type": "uint256"
        },
        {
          "internalType": "uint256",
          "name": "_quantidadeBilhete",
          "type": "uint256"
        }
      ],
      "name": "criarRifa",
      "outputs": [
        {
          "internalType": "uint256",
          "name": "idRifa",
          "type": "uint256"
        }
      ],
      "stateMutability": "nonpayable",
      "type": "function"
    },
    {
      "inputs": [
        {
          "internalType": "uint256",
          "name": "_idRifa",
          "type": "uint256"
        }
      ],
      "name": "finalizarRifa",
      "outputs": [],
      "stateMutability": "nonpayable",
      "type": "function"
    },
    {
      "inputs": [
        {
          "internalType": "address",
          "name": "_address",
          "type": "address"
        }
      ],
      "name": "listarRifas",
      "outputs": [
        {
          "internalType": "uint256[]",
          "name": "",
          "type": "uint256[]"
        }
      ],
      "stateMutability": "view",
      "type": "function"
    },
    {
      "inputs": [
        {
          "internalType": "uint256",
          "name": "",
          "type": "uint256"
        }
      ],
      "name": "rifas",
      "outputs": [
        {
          "internalType": "uint256",
          "name": "id",
          "type": "uint256"
        },
        {
          "internalType": "uint256",
          "name": "valorPremio",
          "type": "uint256"
        },
        {
          "internalType": "uint256",
          "name": "precoBilhete",
          "type": "uint256"
        },
        {
          "internalType": "uint256",
          "name": "quantidadeBilhete",
          "type": "uint256"
        },
        {
          "internalType": "uint256",
          "name": "bilhetesDisponiveis",
          "type": "uint256"
        },
        {
          "internalType": "uint256",
          "name": "valorTotal",
          "type": "uint256"
        },
        {
          "internalType": "address",
          "name": "administrador",
          "type": "address"
        },
        {
          "internalType": "address",
          "name": "ganhador",
          "type": "address"
        },
        {
          "internalType": "bool",
          "name": "rifaFinalizada",
          "type": "bool"
        }
      ],
      "stateMutability": "view",
      "type": "function"
    },
    {
      "inputs": [],
      "name": "sacarSaldoAdministrativo",
      "outputs": [],
      "stateMutability": "nonpayable",
      "type": "function"
    },
    {
      "inputs": [
        {
          "internalType": "uint256",
          "name": "_idRifa",
          "type": "uint256"
        }
      ],
      "name": "sacarValorArrecadado",
      "outputs": [],
      "stateMutability": "nonpayable",
      "type": "function"
    },
    {
      "inputs": [
        {
          "internalType": "address",
          "name": "",
          "type": "address"
        }
      ],
      "name": "saldoAdministrativo",
      "outputs": [
        {
          "internalType": "uint256",
          "name": "",
          "type": "uint256"
        }
      ],
      "stateMutability": "view",
      "type": "function"
    },
    {
      "inputs": [],
      "name": "taxaAdministrativa",
      "outputs": [
        {
          "internalType": "uint256",
          "name": "",
          "type": "uint256"
        }
      ],
      "stateMutability": "view",
      "type": "function"
    },
    {
      "inputs": [],
      "name": "ultimaRifaId",
      "outputs": [
        {
          "internalType": "uint256",
          "name": "",
          "type": "uint256"
        }
      ],
      "stateMutability": "view",
      "type": "function"
    }
  ],
  "bytecode": "0x6080604052600a6000556000600260146101000a81548160ff02191690831515021790555034801561003057600080fd5b5033600260006101000a81548173ffffffffffffffffffffffffffffffffffffffff021916908373ffffffffffffffffffffffffffffffffffffffff1602179055506127ec806100816000396000f3fe6080604052600436106100dd5760003560e01c806372d980df1161007f578063c5197e7711610059578063c5197e771461028b578063cd56997a146102d0578063d531efb5146102f9578063f3bbad8314610336576100dd565b806372d980df1461020c57806374f5e54014610237578063ba20fc6614610262576100dd565b80633ef64663116100bb5780633ef6466314610164578063560d6bbe1461018d5780635ed2bc58146101a45780637062b97d146101e1576100dd565b80630c4886df146100e257806319630e1b146100fe5780633a3d0d8914610127575b600080fd5b6100fc60048036038101906100f7919061183a565b610374565b005b34801561010a57600080fd5b506101256004803603810190610120919061187a565b6105ed565b005b34801561013357600080fd5b5061014e60048036038101906101499190611905565b610881565b60405161015b91906119f0565b60405180910390f35b34801561017057600080fd5b5061018b6004803603810190610186919061187a565b610999565b005b34801561019957600080fd5b506101a2610a84565b005b3480156101b057600080fd5b506101cb60048036038101906101c69190611a12565b610cab565b6040516101d89190611a74565b60405180910390f35b3480156101ed57600080fd5b506101f6610f4e565b6040516102039190611a9e565b60405180910390f35b34801561021857600080fd5b50610221610f74565b60405161022e9190611a74565b60405180910390f35b34801561024357600080fd5b5061024c610f7a565b6040516102599190611a74565b60405180910390f35b34801561026e57600080fd5b506102896004803603810190610284919061187a565b610f80565b005b34801561029757600080fd5b506102b260048036038101906102ad919061187a565b61121c565b6040516102c799989796959493929190611ad4565b60405180910390f35b3480156102dc57600080fd5b506102f760048036038101906102f2919061187a565b6112b7565b005b34801561030557600080fd5b50610320600480360381019061031b9190611905565b6116bf565b60405161032d9190611a74565b60405180910390f35b34801561034257600080fd5b5061035d6004803603810190610358919061187a565b6116d7565b60405161036b929190611b61565b60405180910390f35b600060036000848152602001908152602001600020905060008160000154036103d2576040517f08c379a00000000000000000000000000000000000000000000000000000000081526004016103c990611be7565b60405180910390fd5b8060070160149054906101000a900460ff1615610424576040517f08c379a000000000000000000000000000000000000000000000000000000000815260040161041b90611c53565b60405180910390fd5b818160040154101561046b576040517f08c379a000000000000000000000000000000000000000000000000000000000815260040161046290611ce5565b60405180910390fd5b81816002015461047b9190611d34565b3410156104bd576040517f08c379a00000000000000000000000000000000000000000000000000000000081526004016104b490611de8565b60405180910390fd5b60005b828110156105d15760006001836004015484600301546104e09190611e08565b6104ea9190611e3c565b9050336004600083815260200190815260200160002060000160006101000a81548173ffffffffffffffffffffffffffffffffffffffff021916908373ffffffffffffffffffffffffffffffffffffffff16021790555060016004600083815260200190815260200160002060000160146101000a81548160ff02191690831515021790555082600401600081548092919061058590611e70565b91905055507fc1b08244fd0980bab64af15ce86041df50137ac89779371abc2fad51ceb0914533826040516105bb929190611e99565b60405180910390a15080806001019150506104c0565b5060008160040154036105e8576105e7836112b7565b5b505050565b6000600360008381526020019081526020016000209050600081600001540361064b576040517f08c379a000000000000000000000000000000000000000000000000000000000815260040161064290611be7565b60405180910390fd5b8060070160149054906101000a900460ff1661069c576040517f08c379a000000000000000000000000000000000000000000000000000000000815260040161069390611f0e565b60405180910390fd5b8060060160009054906101000a900473ffffffffffffffffffffffffffffffffffffffff1673ffffffffffffffffffffffffffffffffffffffff163373ffffffffffffffffffffffffffffffffffffffff161461072e576040517f08c379a000000000000000000000000000000000000000000000000000000000815260040161072590611fa0565b60405180910390fd5b600260149054906101000a900460ff161561077e576040517f08c379a000000000000000000000000000000000000000000000000000000000815260040161077590612032565b60405180910390fd5b6001600260146101000a81548160ff02191690831515021790555060008160050154905060006064600054836107b49190611d34565b6107be9190612081565b90506000818460010154846107d39190611e08565b6107dd9190611e08565b90503373ffffffffffffffffffffffffffffffffffffffff166108fc829081150290604051600060405180830381858888f19350505050158015610825573d6000803e3d6000fd5b507fff12809415c01c2cf89ed7c318b357cb402d1ce96537d1592e9966b4f425e4d43382604051610857929190611e99565b60405180910390a16000600260146101000a81548160ff0219169083151502179055505050505050565b6060600060015467ffffffffffffffff8111156108a1576108a06120b2565b5b6040519080825280602002602001820160405280156108cf5781602001602082028036833780820191505090505b509050600080600190505b600154811161098e578473ffffffffffffffffffffffffffffffffffffffff166003600083815260200190815260200160002060060160009054906101000a900473ffffffffffffffffffffffffffffffffffffffff1673ffffffffffffffffffffffffffffffffffffffff160361097b57808383815181106109605761095f6120e1565b5b602002602001018181525050818061097790612110565b9250505b808061098690612110565b9150506108da565b508192505050919050565b600260009054906101000a900473ffffffffffffffffffffffffffffffffffffffff1673ffffffffffffffffffffffffffffffffffffffff163373ffffffffffffffffffffffffffffffffffffffff1614610a29576040517f08c379a0000000000000000000000000000000000000000000000000000000008152600401610a20906121ca565b60405180910390fd5b60008110158015610a3b575060648111155b610a7a576040517f08c379a0000000000000000000000000000000000000000000000000000000008152600401610a719061225c565b60405180910390fd5b8060008190555050565b600260009054906101000a900473ffffffffffffffffffffffffffffffffffffffff1673ffffffffffffffffffffffffffffffffffffffff163373ffffffffffffffffffffffffffffffffffffffff1614610b14576040517f08c379a0000000000000000000000000000000000000000000000000000000008152600401610b0b906121ca565b60405180910390fd5b6000600560003373ffffffffffffffffffffffffffffffffffffffff1673ffffffffffffffffffffffffffffffffffffffff16815260200190815260200160002054905060008111610b9b576040517f08c379a0000000000000000000000000000000000000000000000000000000008152600401610b92906122ee565b60405180910390fd5b610ba433611728565b610be3576040517f08c379a0000000000000000000000000000000000000000000000000000000008152600401610bda9061235a565b60405180910390fd5b6000600560003373ffffffffffffffffffffffffffffffffffffffff1673ffffffffffffffffffffffffffffffffffffffff168152602001908152602001600020819055503373ffffffffffffffffffffffffffffffffffffffff166108fc829081150290604051600060405180830381858888f19350505050158015610c6e573d6000803e3d6000fd5b507fff12809415c01c2cf89ed7c318b357cb402d1ce96537d1592e9966b4f425e4d43382604051610ca0929190611e99565b60405180910390a150565b6000808411610cef576040517f08c379a0000000000000000000000000000000000000000000000000000000008152600401610ce6906123ec565b60405180910390fd5b60008311610d32576040517f08c379a0000000000000000000000000000000000000000000000000000000008152600401610d299061247e565b60405180910390fd5b60008211610d75576040517f08c379a0000000000000000000000000000000000000000000000000000000008152600401610d6c90612510565b60405180910390fd5b60016000815480929190610d8890612110565b919050555060015490506040518061012001604052808281526020018581526020018481526020018381526020018381526020018484610dc89190611d34565b81526020013373ffffffffffffffffffffffffffffffffffffffff168152602001600073ffffffffffffffffffffffffffffffffffffffff1681526020016000151581525060036000838152602001908152602001600020600082015181600001556020820151816001015560408201518160020155606082015181600301556080820151816004015560a0820151816005015560c08201518160060160006101000a81548173ffffffffffffffffffffffffffffffffffffffff021916908373ffffffffffffffffffffffffffffffffffffffff16021790555060e08201518160070160006101000a81548173ffffffffffffffffffffffffffffffffffffffff021916908373ffffffffffffffffffffffffffffffffffffffff1602179055506101008201518160070160146101000a81548160ff0219169083151502179055509050507f9f788631323233e97aa120b252b89837fbc7d796f463281e8c4ff2d94b745f008185604051610f3f929190612530565b60405180910390a19392505050565b600260009054906101000a900473ffffffffffffffffffffffffffffffffffffffff1681565b60005481565b60015481565b60006003600083815260200190815260200160002090506000816000015403610fde576040517f08c379a0000000000000000000000000000000000000000000000000000000008152600401610fd590611be7565b60405180910390fd5b8060060160009054906101000a900473ffffffffffffffffffffffffffffffffffffffff1673ffffffffffffffffffffffffffffffffffffffff163373ffffffffffffffffffffffffffffffffffffffff1614806110895750600260009054906101000a900473ffffffffffffffffffffffffffffffffffffffff1673ffffffffffffffffffffffffffffffffffffffff163373ffffffffffffffffffffffffffffffffffffffff16145b6110c8576040517f08c379a00000000000000000000000000000000000000000000000000000000081526004016110bf906125cb565b60405180910390fd5b8060070160149054906101000a900460ff161561111a576040517f08c379a00000000000000000000000000000000000000000000000000000000081526004016111119061265d565b60405180910390fd5b80600401548160030154146111fb576000600190505b816003015481116111f9576004600082815260200190815260200160002060000160149054906101000a900460ff16156111e6576004600082815260200190815260200160002060000160009054906101000a900473ffffffffffffffffffffffffffffffffffffffff1673ffffffffffffffffffffffffffffffffffffffff166108fc83600201549081150290604051600060405180830381858888f193505050501580156111e4573d6000803e3d6000fd5b505b80806111f190612110565b915050611130565b505b60018160070160146101000a81548160ff0219169083151502179055505050565b60036020528060005260406000206000915090508060000154908060010154908060020154908060030154908060040154908060050154908060060160009054906101000a900473ffffffffffffffffffffffffffffffffffffffff16908060070160009054906101000a900473ffffffffffffffffffffffffffffffffffffffff16908060070160149054906101000a900460ff16905089565b60006003600083815260200190815260200160002090506000816000015403611315576040517f08c379a000000000000000000000000000000000000000000000000000000000815260040161130c90611be7565b60405180910390fd5b8060070160149054906101000a900460ff1615611367576040517f08c379a000000000000000000000000000000000000000000000000000000000815260040161135e90611c53565b60405180910390fd5b60008160040154146113ae576040517f08c379a00000000000000000000000000000000000000000000000000000000081526004016113a5906126ef565b60405180910390fd5b60006001826003015442446040516020016113ca929190612730565b6040516020818303038152906040528051906020012060001c6113ed919061275c565b6113f79190611e3c565b90506004600082815260200190815260200160002060000160009054906101000a900473ffffffffffffffffffffffffffffffffffffffff168260070160006101000a81548173ffffffffffffffffffffffffffffffffffffffff021916908373ffffffffffffffffffffffffffffffffffffffff16021790555060018260070160146101000a81548160ff0219169083151502179055508160070160009054906101000a900473ffffffffffffffffffffffffffffffffffffffff1673ffffffffffffffffffffffffffffffffffffffff166108fc83600101549081150290604051600060405180830381858888f193505050501580156114fd573d6000803e3d6000fd5b506000606460005484600501546115149190611d34565b61151e9190612081565b90508060056000600260009054906101000a900473ffffffffffffffffffffffffffffffffffffffff1673ffffffffffffffffffffffffffffffffffffffff1673ffffffffffffffffffffffffffffffffffffffff16815260200190815260200160002060008282546115919190611e3c565b92505081905550600260009054906101000a900473ffffffffffffffffffffffffffffffffffffffff1673ffffffffffffffffffffffffffffffffffffffff166108fc829081150290604051600060405180830381858888f19350505050158015611600573d6000803e3d6000fd5b507f6823229c48e2515e0419d97541510a5c6d9e94ce2b8741c001b9acb1fc6e1bc4848460070160009054906101000a900473ffffffffffffffffffffffffffffffffffffffff1660405161165692919061278d565b60405180910390a17f25d5cd9948bbe5aa16f7c9ceb592835ff8c5f142cdf6f2aae3e86da6e4f34668600260009054906101000a900473ffffffffffffffffffffffffffffffffffffffff16826040516116b1929190611e99565b60405180910390a150505050565b60056020528060005260406000206000915090505481565b60046020528060005260406000206000915090508060000160009054906101000a900473ffffffffffffffffffffffffffffffffffffffff16908060000160149054906101000a900460ff16905082565b600080600090506000600190505b60015481116117b35760006003600083815260200190815260200160002090508060070160149054906101000a900460ff161561179f576000606460005483600501546117839190611d34565b61178d9190612081565b9050808461179b9190611e3c565b9350505b5080806117ab90612110565b915050611736565b5080600560008573ffffffffffffffffffffffffffffffffffffffff1673ffffffffffffffffffffffffffffffffffffffff168152602001908152602001600020541115915050919050565b600080fd5b6000819050919050565b61181781611804565b811461182257600080fd5b50565b6000813590506118348161180e565b92915050565b60008060408385031215611851576118506117ff565b5b600061185f85828601611825565b925050602061187085828601611825565b9150509250929050565b6000602082840312156118905761188f6117ff565b5b600061189e84828501611825565b91505092915050565b600073ffffffffffffffffffffffffffffffffffffffff82169050919050565b60006118d2826118a7565b9050919050565b6118e2816118c7565b81146118ed57600080fd5b50565b6000813590506118ff816118d9565b92915050565b60006020828403121561191b5761191a6117ff565b5b6000611929848285016118f0565b91505092915050565b600081519050919050565b600082825260208201905092915050565b6000819050602082019050919050565b61196781611804565b82525050565b6000611979838361195e565b60208301905092915050565b6000602082019050919050565b600061199d82611932565b6119a7818561193d565b93506119b28361194e565b8060005b838110156119e35781516119ca888261196d565b97506119d583611985565b9250506001810190506119b6565b5085935050505092915050565b60006020820190508181036000830152611a0a8184611992565b905092915050565b600080600060608486031215611a2b57611a2a6117ff565b5b6000611a3986828701611825565b9350506020611a4a86828701611825565b9250506040611a5b86828701611825565b9150509250925092565b611a6e81611804565b82525050565b6000602082019050611a896000830184611a65565b92915050565b611a98816118c7565b82525050565b6000602082019050611ab36000830184611a8f565b92915050565b60008115159050919050565b611ace81611ab9565b82525050565b600061012082019050611aea600083018c611a65565b611af7602083018b611a65565b611b04604083018a611a65565b611b116060830189611a65565b611b1e6080830188611a65565b611b2b60a0830187611a65565b611b3860c0830186611a8f565b611b4560e0830185611a8f565b611b53610100830184611ac5565b9a9950505050505050505050565b6000604082019050611b766000830185611a8f565b611b836020830184611ac5565b9392505050565b600082825260208201905092915050565b7f52696661206ec3a36f20656e636f6e7472616461000000000000000000000000600082015250565b6000611bd1601483611b8a565b9150611bdc82611b9b565b602082019050919050565b60006020820190508181036000830152611c0081611bc4565b9050919050565b7f412072696661206ac3a120666f692066696e616c697a61646100000000000000600082015250565b6000611c3d601983611b8a565b9150611c4882611c07565b602082019050919050565b60006020820190508181036000830152611c6c81611c30565b9050919050565b7f4ec3a36f2068c3a12062696c686574657320737566696369656e74657320646960008201527f73706f6ec3ad7665697300000000000000000000000000000000000000000000602082015250565b6000611ccf602a83611b8a565b9150611cda82611c73565b604082019050919050565b60006020820190508181036000830152611cfe81611cc2565b9050919050565b7f4e487b7100000000000000000000000000000000000000000000000000000000600052601160045260246000fd5b6000611d3f82611804565b9150611d4a83611804565b9250828202611d5881611804565b91508282048414831517611d6f57611d6e611d05565b5b5092915050565b7f56616c6f7220696e737566696369656e7465207061726120636f6d707261722060008201527f6f732062696c6865746573000000000000000000000000000000000000000000602082015250565b6000611dd2602b83611b8a565b9150611ddd82611d76565b604082019050919050565b60006020820190508181036000830152611e0181611dc5565b9050919050565b6000611e1382611804565b9150611e1e83611804565b9250828203905081811115611e3657611e35611d05565b5b92915050565b6000611e4782611804565b9150611e5283611804565b9250828201905080821115611e6a57611e69611d05565b5b92915050565b6000611e7b82611804565b915060008203611e8e57611e8d611d05565b5b600182039050919050565b6000604082019050611eae6000830185611a8f565b611ebb6020830184611a65565b9392505050565b7f4120726966612061696e6461206ec3a36f20666f692066696e616c697a616461600082015250565b6000611ef8602083611b8a565b9150611f0382611ec2565b602082019050919050565b60006020820190508181036000830152611f2781611eeb565b9050919050565b7f536f6d656e7465206f2061646d696e6973747261646f7220646120726966612060008201527f706f6465207361636172206f2076616c6f72206172726563616461646f000000602082015250565b6000611f8a603d83611b8a565b9150611f9582611f2e565b604082019050919050565b60006020820190508181036000830152611fb981611f7d565b9050919050565b7f46756ec3a7c3a36f20736163617256616c6f724172726563616461646f20656d60008201527f206578656375c3a7c3a36f000000000000000000000000000000000000000000602082015250565b600061201c602b83611b8a565b915061202782611fc0565b604082019050919050565b6000602082019050818103600083015261204b8161200f565b9050919050565b7f4e487b7100000000000000000000000000000000000000000000000000000000600052601260045260246000fd5b600061208c82611804565b915061209783611804565b9250826120a7576120a6612052565b5b828204905092915050565b7f4e487b7100000000000000000000000000000000000000000000000000000000600052604160045260246000fd5b7f4e487b7100000000000000000000000000000000000000000000000000000000600052603260045260246000fd5b600061211b82611804565b91507fffffffffffffffffffffffffffffffffffffffffffffffffffffffffffffffff820361214d5761214c611d05565b5b600182019050919050565b7f536f6d656e7465206f2061646d696e6973747261646f7220646f20636f6e747260008201527f61746f20706f646520657865637574617220657373612066756ec3a7c3a36f00602082015250565b60006121b4603f83611b8a565b91506121bf82612158565b604082019050919050565b600060208201905081810360008301526121e3816121a7565b9050919050565b7f4120746178612061646d696e697374726174697661206465766520736572207560008201527f6d2076616c6f7220656e74726520302065203130300000000000000000000000602082015250565b6000612246603583611b8a565b9150612251826121ea565b604082019050919050565b6000602082019050818103600083015261227581612239565b9050919050565b7f53616c646f2061646d696e69737472617469766f20696e737566696369656e7460008201527f6500000000000000000000000000000000000000000000000000000000000000602082015250565b60006122d8602183611b8a565b91506122e38261227c565b604082019050919050565b60006020820190508181036000830152612307816122cb565b9050919050565b7f53616c646f2061646d696e69737472617469766f20696e76c3a16c69646f0000600082015250565b6000612344601e83611b8a565b915061234f8261230e565b602082019050919050565b6000602082019050818103600083015261237381612337565b9050919050565b7f4f2076616c6f7220746f74616c2064612072696661206465766520736572206d60008201527f61696f7220717565207a65726f00000000000000000000000000000000000000602082015250565b60006123d6602d83611b8a565b91506123e18261237a565b604082019050919050565b60006020820190508181036000830152612405816123c9565b9050919050565b7f4f20707265c3a76f20646f2062696c68657465206465766520736572206d616960008201527f6f7220717565207a65726f000000000000000000000000000000000000000000602082015250565b6000612468602b83611b8a565b91506124738261240c565b604082019050919050565b600060208201905081810360008301526124978161245b565b9050919050565b7f41207175616e7469646164652064652062696c6865746573206465766520736560008201527f72206d61696f7220717565207a65726f00000000000000000000000000000000602082015250565b60006124fa603083611b8a565b91506125058261249e565b604082019050919050565b60006020820190508181036000830152612529816124ed565b9050919050565b60006040820190506125456000830185611a65565b6125526020830184611a65565b9392505050565b7f536f6d656e7465206f2061646d696e6973747261646f7220646120726966612060008201527f706f64652063616e63656c617220612072696661000000000000000000000000602082015250565b60006125b5603483611b8a565b91506125c082612559565b604082019050919050565b600060208201905081810360008301526125e4816125a8565b9050919050565b7f4ec3a36f20c3a920706f7373c3ad76656c2063616e63656c617220756d61207260008201527f6966612066696e616c697a616461000000000000000000000000000000000000602082015250565b6000612647602e83611b8a565b9150612652826125eb565b604082019050919050565b600060208201905081810360008301526126768161263a565b9050919050565b7f4120726966612061696e64612074656d2062696c686574657320646973706f6e60008201527fc3ad766569730000000000000000000000000000000000000000000000000000602082015250565b60006126d9602683611b8a565b91506126e48261267d565b604082019050919050565b60006020820190508181036000830152612708816126cc565b9050919050565b6000819050919050565b61272a61272582611804565b61270f565b82525050565b600061273c8285612719565b60208201915061274c8284612719565b6020820191508190509392505050565b600061276782611804565b915061277283611804565b92508261278257612781612052565b5b828206905092915050565b60006040820190506127a26000830185611a65565b6127af6020830184611a8f565b939250505056fea264697066735822122002fe33dc7eddbe20b3e3d604d3c54b37ab08ee398fbe9803528b1258c9c377e064736f6c63430008180033",
  "linkReferences": {},
  "deployedLinkReferences": {}
}