{
  "_format": "hh-sol-artifact-1",
  "contractName": "Rifa",
  "sourceName": "contracts/RifaChain.sol",
  "abi": [
    {
      "inputs": [],
      "stateMutability": "nonpayable",
      "type": "constructor"
    },
    {
      "anonymous": false,
      "inputs": [
        {
          "indexed": false,
          "internalType": "address",
          "name": "comprador",
          "type": "address"
        },
        {
          "indexed": false,
          "internalType": "uint256",
          "name": "idBilhete",
          "type": "uint256"
        }
      ],
      "name": "BilheteComprado",
      "type": "event"
    },
    {
      "anonymous": false,
      "inputs": [
        {
          "indexed": false,
          "internalType": "uint256",
          "name": "idRifa",
          "type": "uint256"
        },
        {
          "indexed": false,
          "internalType": "uint256",
          "name": "valorPremio",
          "type": "uint256"
        }
      ],
      "name": "RifaCriada",
      "type": "event"
    },
    {
      "anonymous": false,
      "inputs": [
        {
          "indexed": false,
          "internalType": "uint256",
          "name": "idRifa",
          "type": "uint256"
        },
        {
          "indexed": false,
          "internalType": "address",
          "name": "ganhador",
          "type": "address"
        }
      ],
      "name": "RifaFinalizada",
      "type": "event"
    },
    {
      "anonymous": false,
      "inputs": [
        {
          "indexed": false,
          "internalType": "address",
          "name": "destinatario",
          "type": "address"
        },
        {
          "indexed": false,
          "internalType": "uint256",
          "name": "valor",
          "type": "uint256"
        }
      ],
      "name": "SaqueRealizado",
      "type": "event"
    },
    {
      "anonymous": false,
      "inputs": [
        {
          "indexed": false,
          "internalType": "address",
          "name": "administrador",
          "type": "address"
        },
        {
          "indexed": false,
          "internalType": "uint256",
          "name": "valorTaxaAdministrativa",
          "type": "uint256"
        }
      ],
      "name": "TaxaAdministrativaRecebida",
      "type": "event"
    },
    {
      "inputs": [],
      "name": "administrador",
      "outputs": [
        {
          "internalType": "address",
          "name": "",
          "type": "address"
        }
      ],
      "stateMutability": "view",
      "type": "function"
    },
    {
      "inputs": [
        {
          "internalType": "uint256",
          "name": "_novaTaxa",
          "type": "uint256"
        }
      ],
      "name": "ajustarTaxaAdministrativa",
      "outputs": [],
      "stateMutability": "nonpayable",
      "type": "function"
    },
    {
      "inputs": [
        {
          "internalType": "uint256",
          "name": "",
          "type": "uint256"
        }
      ],
      "name": "bilhetes",
      "outputs": [
        {
          "internalType": "address",
          "name": "dono",
          "type": "address"
        },
        {
          "internalType": "bool",
          "name": "vendido",
          "type": "bool"
        }
      ],
      "stateMutability": "view",
      "type": "function"
    },
    {
      "inputs": [
        {
          "internalType": "uint256",
          "name": "_idRifa",
          "type": "uint256"
        }
      ],
      "name": "cancelarRifa",
      "outputs": [],
      "stateMutability": "nonpayable",
      "type": "function"
    },
    {
      "inputs": [
        {
          "internalType": "uint256",
          "name": "_idRifa",
          "type": "uint256"
        },
        {
          "internalType": "uint256",
          "name": "_qntBilhetes",
          "type": "uint256"
        }
      ],
      "name": "comprarBilhete",
      "outputs": [],
      "stateMutability": "payable",
      "type": "function"
    },
    {
      "inputs": [
        {
          "internalType": "string",
          "name": "_nomeRifa",
          "type": "string"
        },
        {
          "internalType": "uint256",
          "name": "_valorPremio",
          "type": "uint256"
        },
        {
          "internalType": "uint256",
          "name": "_precoBilhete",
          "type": "uint256"
        },
        {
          "internalType": "uint256",
          "name": "_quantidadeBilhete",
          "type": "uint256"
        }
      ],
      "name": "criarRifa",
      "outputs": [
        {
          "internalType": "uint256",
          "name": "idRifa",
          "type": "uint256"
        }
      ],
      "stateMutability": "nonpayable",
      "type": "function"
    },
    {
      "inputs": [
        {
          "internalType": "uint256",
          "name": "_idRifa",
          "type": "uint256"
        }
      ],
      "name": "finalizarRifa",
      "outputs": [],
      "stateMutability": "nonpayable",
      "type": "function"
    },
    {
      "inputs": [
        {
          "internalType": "address",
          "name": "_address",
          "type": "address"
        }
      ],
      "name": "listarRifas",
      "outputs": [
        {
          "components": [
            {
              "internalType": "uint256",
              "name": "id",
              "type": "uint256"
            },
            {
              "internalType": "string",
              "name": "nomeRifa",
              "type": "string"
            },
            {
              "internalType": "uint256",
              "name": "valorPremio",
              "type": "uint256"
            },
            {
              "internalType": "uint256",
              "name": "precoBilhete",
              "type": "uint256"
            },
            {
              "internalType": "uint256",
              "name": "quantidadeBilhete",
              "type": "uint256"
            },
            {
              "internalType": "uint256",
              "name": "bilhetesDisponiveis",
              "type": "uint256"
            },
            {
              "internalType": "uint256",
              "name": "valorTotal",
              "type": "uint256"
            },
            {
              "internalType": "address",
              "name": "administrador",
              "type": "address"
            },
            {
              "internalType": "address",
              "name": "ganhador",
              "type": "address"
            },
            {
              "internalType": "bool",
              "name": "rifaFinalizada",
              "type": "bool"
            }
          ],
          "internalType": "struct Rifa.RifaInfo[]",
          "name": "",
          "type": "tuple[]"
        }
      ],
      "stateMutability": "view",
      "type": "function"
    },
    {
      "inputs": [
        {
          "internalType": "uint256",
          "name": "",
          "type": "uint256"
        }
      ],
      "name": "rifas",
      "outputs": [
        {
          "internalType": "uint256",
          "name": "id",
          "type": "uint256"
        },
        {
          "internalType": "string",
          "name": "nomeRifa",
          "type": "string"
        },
        {
          "internalType": "uint256",
          "name": "valorPremio",
          "type": "uint256"
        },
        {
          "internalType": "uint256",
          "name": "precoBilhete",
          "type": "uint256"
        },
        {
          "internalType": "uint256",
          "name": "quantidadeBilhete",
          "type": "uint256"
        },
        {
          "internalType": "uint256",
          "name": "bilhetesDisponiveis",
          "type": "uint256"
        },
        {
          "internalType": "uint256",
          "name": "valorTotal",
          "type": "uint256"
        },
        {
          "internalType": "address",
          "name": "administrador",
          "type": "address"
        },
        {
          "internalType": "address",
          "name": "ganhador",
          "type": "address"
        },
        {
          "internalType": "bool",
          "name": "rifaFinalizada",
          "type": "bool"
        }
      ],
      "stateMutability": "view",
      "type": "function"
    },
    {
      "inputs": [],
      "name": "sacarSaldoAdministrativo",
      "outputs": [],
      "stateMutability": "nonpayable",
      "type": "function"
    },
    {
      "inputs": [
        {
          "internalType": "uint256",
          "name": "_idRifa",
          "type": "uint256"
        }
      ],
      "name": "sacarValorArrecadado",
      "outputs": [],
      "stateMutability": "nonpayable",
      "type": "function"
    },
    {
      "inputs": [
        {
          "internalType": "address",
          "name": "",
          "type": "address"
        }
      ],
      "name": "saldoAdministrativo",
      "outputs": [
        {
          "internalType": "uint256",
          "name": "",
          "type": "uint256"
        }
      ],
      "stateMutability": "view",
      "type": "function"
    },
    {
      "inputs": [],
      "name": "taxaAdministrativa",
      "outputs": [
        {
          "internalType": "uint256",
          "name": "",
          "type": "uint256"
        }
      ],
      "stateMutability": "view",
      "type": "function"
    },
    {
      "inputs": [],
      "name": "ultimaRifaId",
      "outputs": [
        {
          "internalType": "uint256",
          "name": "",
          "type": "uint256"
        }
      ],
      "stateMutability": "view",
      "type": "function"
    }
  ],
  "bytecode": "0x6080604052600a6000556000600260146101000a81548160ff02191690831515021790555034801561003057600080fd5b5033600260006101000a81548173ffffffffffffffffffffffffffffffffffffffff021916908373ffffffffffffffffffffffffffffffffffffffff160217905550613180806100816000396000f3fe6080604052600436106100dd5760003560e01c806372d980df1161007f578063c5197e7711610059578063c5197e771461028b578063cd56997a146102d1578063d531efb5146102fa578063f3bbad8314610337576100dd565b806372d980df1461020c57806374f5e54014610237578063ba20fc6614610262576100dd565b80633ef64663116100bb5780633ef6466314610164578063420201331461018d578063560d6bbe146101ca5780637062b97d146101e1576100dd565b80630c4886df146100e257806319630e1b146100fe5780633a3d0d8914610127575b600080fd5b6100fc60048036038101906100f79190611bd0565b610375565b005b34801561010a57600080fd5b5061012560048036038101906101209190611c10565b6105ee565b005b34801561013357600080fd5b5061014e60048036038101906101499190611c9b565b610882565b60405161015b9190611f2d565b60405180910390f35b34801561017057600080fd5b5061018b60048036038101906101869190611c10565b610bf3565b005b34801561019957600080fd5b506101b460048036038101906101af9190612084565b610cde565b6040516101c19190612116565b60405180910390f35b3480156101d657600080fd5b506101df610f9f565b005b3480156101ed57600080fd5b506101f66111c6565b6040516102039190612140565b60405180910390f35b34801561021857600080fd5b506102216111ec565b60405161022e9190612116565b60405180910390f35b34801561024357600080fd5b5061024c6111f2565b6040516102599190612116565b60405180910390f35b34801561026e57600080fd5b5061028960048036038101906102849190611c10565b6111f8565b005b34801561029757600080fd5b506102b260048036038101906102ad9190611c10565b611494565b6040516102c89a999897969594939291906121b4565b60405180910390f35b3480156102dd57600080fd5b506102f860048036038101906102f39190611c10565b6115bd565b005b34801561030657600080fd5b50610321600480360381019061031c9190611c9b565b6119c5565b60405161032e9190612116565b60405180910390f35b34801561034357600080fd5b5061035e60048036038101906103599190611c10565b6119dd565b60405161036c929190612257565b60405180910390f35b600060036000848152602001908152602001600020905060008160000154036103d3576040517f08c379a00000000000000000000000000000000000000000000000000000000081526004016103ca906122cc565b60405180910390fd5b8060080160149054906101000a900460ff1615610425576040517f08c379a000000000000000000000000000000000000000000000000000000000815260040161041c90612338565b60405180910390fd5b818160050154101561046c576040517f08c379a0000000000000000000000000000000000000000000000000000000008152600401610463906123ca565b60405180910390fd5b81816003015461047c9190612419565b3410156104be576040517f08c379a00000000000000000000000000000000000000000000000000000000081526004016104b5906124cd565b60405180910390fd5b60005b828110156105d25760006001836005015484600401546104e191906124ed565b6104eb9190612521565b9050336004600083815260200190815260200160002060000160006101000a81548173ffffffffffffffffffffffffffffffffffffffff021916908373ffffffffffffffffffffffffffffffffffffffff16021790555060016004600083815260200190815260200160002060000160146101000a81548160ff02191690831515021790555082600501600081548092919061058690612555565b91905055507fc1b08244fd0980bab64af15ce86041df50137ac89779371abc2fad51ceb0914533826040516105bc92919061257e565b60405180910390a15080806001019150506104c1565b5060008160050154036105e9576105e8836115bd565b5b505050565b6000600360008381526020019081526020016000209050600081600001540361064c576040517f08c379a0000000000000000000000000000000000000000000000000000000008152600401610643906122cc565b60405180910390fd5b8060080160149054906101000a900460ff1661069d576040517f08c379a0000000000000000000000000000000000000000000000000000000008152600401610694906125f3565b60405180910390fd5b8060070160009054906101000a900473ffffffffffffffffffffffffffffffffffffffff1673ffffffffffffffffffffffffffffffffffffffff163373ffffffffffffffffffffffffffffffffffffffff161461072f576040517f08c379a000000000000000000000000000000000000000000000000000000000815260040161072690612685565b60405180910390fd5b600260149054906101000a900460ff161561077f576040517f08c379a000000000000000000000000000000000000000000000000000000000815260040161077690612717565b60405180910390fd5b6001600260146101000a81548160ff02191690831515021790555060008160060154905060006064600054836107b59190612419565b6107bf9190612766565b90506000818460020154846107d491906124ed565b6107de91906124ed565b90503373ffffffffffffffffffffffffffffffffffffffff166108fc829081150290604051600060405180830381858888f19350505050158015610826573d6000803e3d6000fd5b507fff12809415c01c2cf89ed7c318b357cb402d1ce96537d1592e9966b4f425e4d4338260405161085892919061257e565b60405180910390a16000600260146101000a81548160ff0219169083151502179055505050505050565b6060600080600190505b6001548111610920578373ffffffffffffffffffffffffffffffffffffffff166003600083815260200190815260200160002060070160009054906101000a900473ffffffffffffffffffffffffffffffffffffffff1673ffffffffffffffffffffffffffffffffffffffff160361090d57818061090990612797565b9250505b808061091890612797565b91505061088c565b5060008167ffffffffffffffff81111561093d5761093c611f59565b5b60405190808252806020026020018201604052801561097657816020015b610963611b05565b81526020019060019003908161095b5790505b509050600080600190505b6001548111610be7578573ffffffffffffffffffffffffffffffffffffffff166003600083815260200190815260200160002060070160009054906101000a900473ffffffffffffffffffffffffffffffffffffffff1673ffffffffffffffffffffffffffffffffffffffff1603610bd457600360008281526020019081526020016000206040518061014001604052908160008201548152602001600182018054610a2c9061280e565b80601f0160208091040260200160405190810160405280929190818152602001828054610a589061280e565b8015610aa55780601f10610a7a57610100808354040283529160200191610aa5565b820191906000526020600020905b815481529060010190602001808311610a8857829003601f168201915b5050505050815260200160028201548152602001600382015481526020016004820154815260200160058201548152602001600682015481526020016007820160009054906101000a900473ffffffffffffffffffffffffffffffffffffffff1673ffffffffffffffffffffffffffffffffffffffff1673ffffffffffffffffffffffffffffffffffffffff1681526020016008820160009054906101000a900473ffffffffffffffffffffffffffffffffffffffff1673ffffffffffffffffffffffffffffffffffffffff1673ffffffffffffffffffffffffffffffffffffffff1681526020016008820160149054906101000a900460ff161515151581525050838381518110610bba57610bb961283f565b5b60200260200101819052508180610bd090612797565b9250505b8080610bdf90612797565b915050610981565b50819350505050919050565b600260009054906101000a900473ffffffffffffffffffffffffffffffffffffffff1673ffffffffffffffffffffffffffffffffffffffff163373ffffffffffffffffffffffffffffffffffffffff1614610c83576040517f08c379a0000000000000000000000000000000000000000000000000000000008152600401610c7a906128e0565b60405180910390fd5b60008110158015610c95575060648111155b610cd4576040517f08c379a0000000000000000000000000000000000000000000000000000000008152600401610ccb90612972565b60405180910390fd5b8060008190555050565b6000808411610d22576040517f08c379a0000000000000000000000000000000000000000000000000000000008152600401610d1990612a04565b60405180910390fd5b60008311610d65576040517f08c379a0000000000000000000000000000000000000000000000000000000008152600401610d5c90612a96565b60405180910390fd5b60008211610da8576040517f08c379a0000000000000000000000000000000000000000000000000000000008152600401610d9f90612b28565b60405180910390fd5b60016000815480929190610dbb90612797565b919050555060015490506040518061014001604052808281526020018681526020018581526020018481526020018381526020018381526020018484610e019190612419565b81526020013373ffffffffffffffffffffffffffffffffffffffff168152602001600073ffffffffffffffffffffffffffffffffffffffff1681526020016000151581525060036000838152602001908152602001600020600082015181600001556020820151816001019081610e789190612cf4565b5060408201518160020155606082015181600301556080820151816004015560a0820151816005015560c0820151816006015560e08201518160070160006101000a81548173ffffffffffffffffffffffffffffffffffffffff021916908373ffffffffffffffffffffffffffffffffffffffff1602179055506101008201518160080160006101000a81548173ffffffffffffffffffffffffffffffffffffffff021916908373ffffffffffffffffffffffffffffffffffffffff1602179055506101208201518160080160146101000a81548160ff0219169083151502179055509050507f9f788631323233e97aa120b252b89837fbc7d796f463281e8c4ff2d94b745f008185604051610f8f929190612dc6565b60405180910390a1949350505050565b600260009054906101000a900473ffffffffffffffffffffffffffffffffffffffff1673ffffffffffffffffffffffffffffffffffffffff163373ffffffffffffffffffffffffffffffffffffffff161461102f576040517f08c379a0000000000000000000000000000000000000000000000000000000008152600401611026906128e0565b60405180910390fd5b6000600560003373ffffffffffffffffffffffffffffffffffffffff1673ffffffffffffffffffffffffffffffffffffffff168152602001908152602001600020549050600081116110b6576040517f08c379a00000000000000000000000000000000000000000000000000000000081526004016110ad90612e61565b60405180910390fd5b6110bf33611a2e565b6110fe576040517f08c379a00000000000000000000000000000000000000000000000000000000081526004016110f590612ecd565b60405180910390fd5b6000600560003373ffffffffffffffffffffffffffffffffffffffff1673ffffffffffffffffffffffffffffffffffffffff168152602001908152602001600020819055503373ffffffffffffffffffffffffffffffffffffffff166108fc829081150290604051600060405180830381858888f19350505050158015611189573d6000803e3d6000fd5b507fff12809415c01c2cf89ed7c318b357cb402d1ce96537d1592e9966b4f425e4d433826040516111bb92919061257e565b60405180910390a150565b600260009054906101000a900473ffffffffffffffffffffffffffffffffffffffff1681565b60005481565b60015481565b60006003600083815260200190815260200160002090506000816000015403611256576040517f08c379a000000000000000000000000000000000000000000000000000000000815260040161124d906122cc565b60405180910390fd5b8060070160009054906101000a900473ffffffffffffffffffffffffffffffffffffffff1673ffffffffffffffffffffffffffffffffffffffff163373ffffffffffffffffffffffffffffffffffffffff1614806113015750600260009054906101000a900473ffffffffffffffffffffffffffffffffffffffff1673ffffffffffffffffffffffffffffffffffffffff163373ffffffffffffffffffffffffffffffffffffffff16145b611340576040517f08c379a000000000000000000000000000000000000000000000000000000000815260040161133790612f5f565b60405180910390fd5b8060080160149054906101000a900460ff1615611392576040517f08c379a000000000000000000000000000000000000000000000000000000000815260040161138990612ff1565b60405180910390fd5b8060050154816004015414611473576000600190505b81600401548111611471576004600082815260200190815260200160002060000160149054906101000a900460ff161561145e576004600082815260200190815260200160002060000160009054906101000a900473ffffffffffffffffffffffffffffffffffffffff1673ffffffffffffffffffffffffffffffffffffffff166108fc83600301549081150290604051600060405180830381858888f1935050505015801561145c573d6000803e3d6000fd5b505b808061146990612797565b9150506113a8565b505b60018160080160146101000a81548160ff0219169083151502179055505050565b60036020528060005260406000206000915090508060000154908060010180546114bd9061280e565b80601f01602080910402602001604051908101604052809291908181526020018280546114e99061280e565b80156115365780601f1061150b57610100808354040283529160200191611536565b820191906000526020600020905b81548152906001019060200180831161151957829003601f168201915b5050505050908060020154908060030154908060040154908060050154908060060154908060070160009054906101000a900473ffffffffffffffffffffffffffffffffffffffff16908060080160009054906101000a900473ffffffffffffffffffffffffffffffffffffffff16908060080160149054906101000a900460ff1690508a565b6000600360008381526020019081526020016000209050600081600001540361161b576040517f08c379a0000000000000000000000000000000000000000000000000000000008152600401611612906122cc565b60405180910390fd5b8060080160149054906101000a900460ff161561166d576040517f08c379a000000000000000000000000000000000000000000000000000000000815260040161166490612338565b60405180910390fd5b60008160050154146116b4576040517f08c379a00000000000000000000000000000000000000000000000000000000081526004016116ab90613083565b60405180910390fd5b60006001826004015442446040516020016116d09291906130c4565b6040516020818303038152906040528051906020012060001c6116f391906130f0565b6116fd9190612521565b90506004600082815260200190815260200160002060000160009054906101000a900473ffffffffffffffffffffffffffffffffffffffff168260080160006101000a81548173ffffffffffffffffffffffffffffffffffffffff021916908373ffffffffffffffffffffffffffffffffffffffff16021790555060018260080160146101000a81548160ff0219169083151502179055508160080160009054906101000a900473ffffffffffffffffffffffffffffffffffffffff1673ffffffffffffffffffffffffffffffffffffffff166108fc83600201549081150290604051600060405180830381858888f19350505050158015611803573d6000803e3d6000fd5b5060006064600054846006015461181a9190612419565b6118249190612766565b90508060056000600260009054906101000a900473ffffffffffffffffffffffffffffffffffffffff1673ffffffffffffffffffffffffffffffffffffffff1673ffffffffffffffffffffffffffffffffffffffff16815260200190815260200160002060008282546118979190612521565b92505081905550600260009054906101000a900473ffffffffffffffffffffffffffffffffffffffff1673ffffffffffffffffffffffffffffffffffffffff166108fc829081150290604051600060405180830381858888f19350505050158015611906573d6000803e3d6000fd5b507f6823229c48e2515e0419d97541510a5c6d9e94ce2b8741c001b9acb1fc6e1bc4848460080160009054906101000a900473ffffffffffffffffffffffffffffffffffffffff1660405161195c929190613121565b60405180910390a17f25d5cd9948bbe5aa16f7c9ceb592835ff8c5f142cdf6f2aae3e86da6e4f34668600260009054906101000a900473ffffffffffffffffffffffffffffffffffffffff16826040516119b792919061257e565b60405180910390a150505050565b60056020528060005260406000206000915090505481565b60046020528060005260406000206000915090508060000160009054906101000a900473ffffffffffffffffffffffffffffffffffffffff16908060000160149054906101000a900460ff16905082565b600080600090506000600190505b6001548111611ab95760006003600083815260200190815260200160002090508060080160149054906101000a900460ff1615611aa557600060646000548360060154611a899190612419565b611a939190612766565b90508084611aa19190612521565b9350505b508080611ab190612797565b915050611a3c565b5080600560008573ffffffffffffffffffffffffffffffffffffffff1673ffffffffffffffffffffffffffffffffffffffff168152602001908152602001600020541115915050919050565b60405180610140016040528060008152602001606081526020016000815260200160008152602001600081526020016000815260200160008152602001600073ffffffffffffffffffffffffffffffffffffffff168152602001600073ffffffffffffffffffffffffffffffffffffffff1681526020016000151581525090565b6000604051905090565b600080fd5b600080fd5b6000819050919050565b611bad81611b9a565b8114611bb857600080fd5b50565b600081359050611bca81611ba4565b92915050565b60008060408385031215611be757611be6611b90565b5b6000611bf585828601611bbb565b9250506020611c0685828601611bbb565b9150509250929050565b600060208284031215611c2657611c25611b90565b5b6000611c3484828501611bbb565b91505092915050565b600073ffffffffffffffffffffffffffffffffffffffff82169050919050565b6000611c6882611c3d565b9050919050565b611c7881611c5d565b8114611c8357600080fd5b50565b600081359050611c9581611c6f565b92915050565b600060208284031215611cb157611cb0611b90565b5b6000611cbf84828501611c86565b91505092915050565b600081519050919050565b600082825260208201905092915050565b6000819050602082019050919050565b611cfd81611b9a565b82525050565b600081519050919050565b600082825260208201905092915050565b60005b83811015611d3d578082015181840152602081019050611d22565b60008484015250505050565b6000601f19601f8301169050919050565b6000611d6582611d03565b611d6f8185611d0e565b9350611d7f818560208601611d1f565b611d8881611d49565b840191505092915050565b611d9c81611c5d565b82525050565b60008115159050919050565b611db781611da2565b82525050565b600061014083016000830151611dd66000860182611cf4565b5060208301518482036020860152611dee8282611d5a565b9150506040830151611e036040860182611cf4565b506060830151611e166060860182611cf4565b506080830151611e296080860182611cf4565b5060a0830151611e3c60a0860182611cf4565b5060c0830151611e4f60c0860182611cf4565b5060e0830151611e6260e0860182611d93565b50610100830151611e77610100860182611d93565b50610120830151611e8c610120860182611dae565b508091505092915050565b6000611ea38383611dbd565b905092915050565b6000602082019050919050565b6000611ec382611cc8565b611ecd8185611cd3565b935083602082028501611edf85611ce4565b8060005b85811015611f1b5784840389528151611efc8582611e97565b9450611f0783611eab565b925060208a01995050600181019050611ee3565b50829750879550505050505092915050565b60006020820190508181036000830152611f478184611eb8565b905092915050565b600080fd5b600080fd5b7f4e487b7100000000000000000000000000000000000000000000000000000000600052604160045260246000fd5b611f9182611d49565b810181811067ffffffffffffffff82111715611fb057611faf611f59565b5b80604052505050565b6000611fc3611b86565b9050611fcf8282611f88565b919050565b600067ffffffffffffffff821115611fef57611fee611f59565b5b611ff882611d49565b9050602081019050919050565b82818337600083830152505050565b600061202761202284611fd4565b611fb9565b90508281526020810184848401111561204357612042611f54565b5b61204e848285612005565b509392505050565b600082601f83011261206b5761206a611f4f565b5b813561207b848260208601612014565b91505092915050565b6000806000806080858703121561209e5761209d611b90565b5b600085013567ffffffffffffffff8111156120bc576120bb611b95565b5b6120c887828801612056565b94505060206120d987828801611bbb565b93505060406120ea87828801611bbb565b92505060606120fb87828801611bbb565b91505092959194509250565b61211081611b9a565b82525050565b600060208201905061212b6000830184612107565b92915050565b61213a81611c5d565b82525050565b60006020820190506121556000830184612131565b92915050565b600082825260208201905092915050565b600061217782611d03565b612181818561215b565b9350612191818560208601611d1f565b61219a81611d49565b840191505092915050565b6121ae81611da2565b82525050565b6000610140820190506121ca600083018d612107565b81810360208301526121dc818c61216c565b90506121eb604083018b612107565b6121f8606083018a612107565b6122056080830189612107565b61221260a0830188612107565b61221f60c0830187612107565b61222c60e0830186612131565b61223a610100830185612131565b6122486101208301846121a5565b9b9a5050505050505050505050565b600060408201905061226c6000830185612131565b61227960208301846121a5565b9392505050565b7f52696661206ec3a36f20656e636f6e7472616461000000000000000000000000600082015250565b60006122b660148361215b565b91506122c182612280565b602082019050919050565b600060208201905081810360008301526122e5816122a9565b9050919050565b7f412072696661206ac3a120666f692066696e616c697a61646100000000000000600082015250565b600061232260198361215b565b915061232d826122ec565b602082019050919050565b6000602082019050818103600083015261235181612315565b9050919050565b7f4ec3a36f2068c3a12062696c686574657320737566696369656e74657320646960008201527f73706f6ec3ad7665697300000000000000000000000000000000000000000000602082015250565b60006123b4602a8361215b565b91506123bf82612358565b604082019050919050565b600060208201905081810360008301526123e3816123a7565b9050919050565b7f4e487b7100000000000000000000000000000000000000000000000000000000600052601160045260246000fd5b600061242482611b9a565b915061242f83611b9a565b925082820261243d81611b9a565b91508282048414831517612454576124536123ea565b5b5092915050565b7f56616c6f7220696e737566696369656e7465207061726120636f6d707261722060008201527f6f732062696c6865746573000000000000000000000000000000000000000000602082015250565b60006124b7602b8361215b565b91506124c28261245b565b604082019050919050565b600060208201905081810360008301526124e6816124aa565b9050919050565b60006124f882611b9a565b915061250383611b9a565b925082820390508181111561251b5761251a6123ea565b5b92915050565b600061252c82611b9a565b915061253783611b9a565b925082820190508082111561254f5761254e6123ea565b5b92915050565b600061256082611b9a565b915060008203612573576125726123ea565b5b600182039050919050565b60006040820190506125936000830185612131565b6125a06020830184612107565b9392505050565b7f4120726966612061696e6461206ec3a36f20666f692066696e616c697a616461600082015250565b60006125dd60208361215b565b91506125e8826125a7565b602082019050919050565b6000602082019050818103600083015261260c816125d0565b9050919050565b7f536f6d656e7465206f2061646d696e6973747261646f7220646120726966612060008201527f706f6465207361636172206f2076616c6f72206172726563616461646f000000602082015250565b600061266f603d8361215b565b915061267a82612613565b604082019050919050565b6000602082019050818103600083015261269e81612662565b9050919050565b7f46756ec3a7c3a36f20736163617256616c6f724172726563616461646f20656d60008201527f206578656375c3a7c3a36f000000000000000000000000000000000000000000602082015250565b6000612701602b8361215b565b915061270c826126a5565b604082019050919050565b60006020820190508181036000830152612730816126f4565b9050919050565b7f4e487b7100000000000000000000000000000000000000000000000000000000600052601260045260246000fd5b600061277182611b9a565b915061277c83611b9a565b92508261278c5761278b612737565b5b828204905092915050565b60006127a282611b9a565b91507fffffffffffffffffffffffffffffffffffffffffffffffffffffffffffffffff82036127d4576127d36123ea565b5b600182019050919050565b7f4e487b7100000000000000000000000000000000000000000000000000000000600052602260045260246000fd5b6000600282049050600182168061282657607f821691505b602082108103612839576128386127df565b5b50919050565b7f4e487b7100000000000000000000000000000000000000000000000000000000600052603260045260246000fd5b7f536f6d656e7465206f2061646d696e6973747261646f7220646f20636f6e747260008201527f61746f20706f646520657865637574617220657373612066756ec3a7c3a36f00602082015250565b60006128ca603f8361215b565b91506128d58261286e565b604082019050919050565b600060208201905081810360008301526128f9816128bd565b9050919050565b7f4120746178612061646d696e697374726174697661206465766520736572207560008201527f6d2076616c6f7220656e74726520302065203130300000000000000000000000602082015250565b600061295c60358361215b565b915061296782612900565b604082019050919050565b6000602082019050818103600083015261298b8161294f565b9050919050565b7f4f2076616c6f7220746f74616c2064612072696661206465766520736572206d60008201527f61696f7220717565207a65726f00000000000000000000000000000000000000602082015250565b60006129ee602d8361215b565b91506129f982612992565b604082019050919050565b60006020820190508181036000830152612a1d816129e1565b9050919050565b7f4f20707265c3a76f20646f2062696c68657465206465766520736572206d616960008201527f6f7220717565207a65726f000000000000000000000000000000000000000000602082015250565b6000612a80602b8361215b565b9150612a8b82612a24565b604082019050919050565b60006020820190508181036000830152612aaf81612a73565b9050919050565b7f41207175616e7469646164652064652062696c6865746573206465766520736560008201527f72206d61696f7220717565207a65726f00000000000000000000000000000000602082015250565b6000612b1260308361215b565b9150612b1d82612ab6565b604082019050919050565b60006020820190508181036000830152612b4181612b05565b9050919050565b60008190508160005260206000209050919050565b60006020601f8301049050919050565b600082821b905092915050565b600060088302612baa7fffffffffffffffffffffffffffffffffffffffffffffffffffffffffffffffff82612b6d565b612bb48683612b6d565b95508019841693508086168417925050509392505050565b6000819050919050565b6000612bf1612bec612be784611b9a565b612bcc565b611b9a565b9050919050565b6000819050919050565b612c0b83612bd6565b612c1f612c1782612bf8565b848454612b7a565b825550505050565b600090565b612c34612c27565b612c3f818484612c02565b505050565b5b81811015612c6357612c58600082612c2c565b600181019050612c45565b5050565b601f821115612ca857612c7981612b48565b612c8284612b5d565b81016020851015612c91578190505b612ca5612c9d85612b5d565b830182612c44565b50505b505050565b600082821c905092915050565b6000612ccb60001984600802612cad565b1980831691505092915050565b6000612ce48383612cba565b9150826002028217905092915050565b612cfd82611d03565b67ffffffffffffffff811115612d1657612d15611f59565b5b612d20825461280e565b612d2b828285612c67565b600060209050601f831160018114612d5e5760008415612d4c578287015190505b612d568582612cd8565b865550612dbe565b601f198416612d6c86612b48565b60005b82811015612d9457848901518255600182019150602085019450602081019050612d6f565b86831015612db15784890151612dad601f891682612cba565b8355505b6001600288020188555050505b505050505050565b6000604082019050612ddb6000830185612107565b612de86020830184612107565b9392505050565b7f53616c646f2061646d696e69737472617469766f20696e737566696369656e7460008201527f6500000000000000000000000000000000000000000000000000000000000000602082015250565b6000612e4b60218361215b565b9150612e5682612def565b604082019050919050565b60006020820190508181036000830152612e7a81612e3e565b9050919050565b7f53616c646f2061646d696e69737472617469766f20696e76c3a16c69646f0000600082015250565b6000612eb7601e8361215b565b9150612ec282612e81565b602082019050919050565b60006020820190508181036000830152612ee681612eaa565b9050919050565b7f536f6d656e7465206f2061646d696e6973747261646f7220646120726966612060008201527f706f64652063616e63656c617220612072696661000000000000000000000000602082015250565b6000612f4960348361215b565b9150612f5482612eed565b604082019050919050565b60006020820190508181036000830152612f7881612f3c565b9050919050565b7f4ec3a36f20c3a920706f7373c3ad76656c2063616e63656c617220756d61207260008201527f6966612066696e616c697a616461000000000000000000000000000000000000602082015250565b6000612fdb602e8361215b565b9150612fe682612f7f565b604082019050919050565b6000602082019050818103600083015261300a81612fce565b9050919050565b7f4120726966612061696e64612074656d2062696c686574657320646973706f6e60008201527fc3ad766569730000000000000000000000000000000000000000000000000000602082015250565b600061306d60268361215b565b915061307882613011565b604082019050919050565b6000602082019050818103600083015261309c81613060565b9050919050565b6000819050919050565b6130be6130b982611b9a565b6130a3565b82525050565b60006130d082856130ad565b6020820191506130e082846130ad565b6020820191508190509392505050565b60006130fb82611b9a565b915061310683611b9a565b92508261311657613115612737565b5b828206905092915050565b60006040820190506131366000830185612107565b6131436020830184612131565b939250505056fea26469706673582212207a532a6ec3a5a7221b292be7cd5e767a6fd4236807d428a33eaa97553e868d1464736f6c63430008180033",
  "linkReferences": {},
  "deployedLinkReferences": {}
}